{
  "contracts/MrtrSafe.sol": {
    "MrtrSafe": {
      "abi": [
        {
          "anonymous": false,
          "inputs": [
            {
              "indexed": false,
              "internalType": "uint256",
              "name": "minApproval",
              "type": "uint256"
            }
          ],
          "name": "ApprovalsChanged",
          "type": "event"
        },
        {
          "anonymous": false,
          "inputs": [
            {
              "indexed": true,
              "internalType": "address",
              "name": "sender",
              "type": "address"
            },
            {
              "indexed": false,
              "internalType": "uint256",
              "name": "amount",
              "type": "uint256"
            },
            {
              "indexed": false,
              "internalType": "uint256",
              "name": "balance",
              "type": "uint256"
            }
          ],
          "name": "FundsReceived",
          "type": "event"
        },
        {
          "anonymous": false,
          "inputs": [
            {
              "indexed": false,
              "internalType": "uint8",
              "name": "version",
              "type": "uint8"
            }
          ],
          "name": "Initialized",
          "type": "event"
        },
        {
          "anonymous": false,
          "inputs": [
            {
              "indexed": false,
              "internalType": "address",
              "name": "newOwner",
              "type": "address"
            }
          ],
          "name": "OwnerAdded",
          "type": "event"
        },
        {
          "anonymous": false,
          "inputs": [
            {
              "indexed": false,
              "internalType": "address",
              "name": "removedOwner",
              "type": "address"
            }
          ],
          "name": "OwnerRemoved",
          "type": "event"
        },
        {
          "inputs": [],
          "name": "BRCKBalance",
          "outputs": [
            {
              "internalType": "uint256",
              "name": "",
              "type": "uint256"
            }
          ],
          "stateMutability": "view",
          "type": "function"
        },
        {
          "inputs": [
            {
              "internalType": "address",
              "name": "owner",
              "type": "address"
            }
          ],
          "name": "EstateTokenBalance",
          "outputs": [
            {
              "internalType": "uint256",
              "name": "",
              "type": "uint256"
            }
          ],
          "stateMutability": "view",
          "type": "function"
        },
        {
          "inputs": [
            {
              "internalType": "uint256",
              "name": "id",
              "type": "uint256"
            }
          ],
          "name": "VCTExist",
          "outputs": [
            {
              "internalType": "uint256",
              "name": "",
              "type": "uint256"
            }
          ],
          "stateMutability": "view",
          "type": "function"
        },
        {
          "inputs": [
            {
              "internalType": "address[]",
              "name": "_owners",
              "type": "address[]"
            },
            {
              "internalType": "uint256",
              "name": "_minApprovals",
              "type": "uint256"
            }
          ],
          "name": "__MrtrSafe_init",
          "outputs": [],
          "stateMutability": "payable",
          "type": "function"
        },
        {
          "inputs": [
            {
              "internalType": "address",
              "name": "newOwner",
              "type": "address"
            },
            {
              "internalType": "uint256",
              "name": "_minApproval",
              "type": "uint256"
            }
          ],
          "name": "addOwner",
          "outputs": [],
          "stateMutability": "nonpayable",
          "type": "function"
        },
        {
          "inputs": [],
          "name": "getMinApproval",
          "outputs": [
            {
              "internalType": "uint256",
              "name": "",
              "type": "uint256"
            }
          ],
          "stateMutability": "view",
          "type": "function"
        },
        {
          "inputs": [],
          "name": "getOwners",
          "outputs": [
            {
              "internalType": "address[]",
              "name": "",
              "type": "address[]"
            }
          ],
          "stateMutability": "view",
          "type": "function"
        },
        {
          "inputs": [],
          "name": "getOwnersCount",
          "outputs": [
            {
              "internalType": "uint256",
              "name": "",
              "type": "uint256"
            }
          ],
          "stateMutability": "view",
          "type": "function"
        },
        {
          "inputs": [
            {
              "internalType": "address",
              "name": "",
              "type": "address"
            },
            {
              "internalType": "address",
              "name": "",
              "type": "address"
            },
            {
              "internalType": "uint256",
              "name": "",
              "type": "uint256"
            },
            {
              "internalType": "uint256",
              "name": "",
              "type": "uint256"
            },
            {
              "internalType": "bytes",
              "name": "",
              "type": "bytes"
            }
          ],
          "name": "onERC1155Received",
          "outputs": [
            {
              "internalType": "bytes4",
              "name": "",
              "type": "bytes4"
            }
          ],
          "stateMutability": "nonpayable",
          "type": "function"
        },
        {
          "inputs": [
            {
              "internalType": "address",
              "name": "",
              "type": "address"
            },
            {
              "internalType": "address",
              "name": "",
              "type": "address"
            },
            {
              "internalType": "uint256",
              "name": "",
              "type": "uint256"
            },
            {
              "internalType": "bytes",
              "name": "",
              "type": "bytes"
            }
          ],
          "name": "onERC721Received",
          "outputs": [
            {
              "internalType": "bytes4",
              "name": "",
              "type": "bytes4"
            }
          ],
          "stateMutability": "nonpayable",
          "type": "function"
        },
        {
          "inputs": [
            {
              "internalType": "address",
              "name": "owner",
              "type": "address"
            }
          ],
          "name": "ownerExists",
          "outputs": [
            {
              "internalType": "bool",
              "name": "",
              "type": "bool"
            }
          ],
          "stateMutability": "view",
          "type": "function"
        },
        {
          "inputs": [
            {
              "internalType": "address",
              "name": "owner",
              "type": "address"
            },
            {
              "internalType": "uint256",
              "name": "_minApproval",
              "type": "uint256"
            }
          ],
          "name": "removeOwner",
          "outputs": [],
          "stateMutability": "nonpayable",
          "type": "function"
        },
        {
          "inputs": [
            {
              "internalType": "bytes4",
              "name": "interfaceId",
              "type": "bytes4"
            }
          ],
          "name": "supportsInterface",
          "outputs": [
            {
              "internalType": "bool",
              "name": "",
              "type": "bool"
            }
          ],
          "stateMutability": "view",
          "type": "function"
        },
        {
          "inputs": [
            {
              "internalType": "address payable",
              "name": "receiver",
              "type": "address"
            },
            {
              "internalType": "string",
              "name": "symbol",
              "type": "string"
            },
            {
              "internalType": "uint256",
              "name": "id",
              "type": "uint256"
            },
            {
              "internalType": "uint256",
              "name": "amount",
              "type": "uint256"
            }
          ],
          "name": "transfer",
          "outputs": [],
          "stateMutability": "nonpayable",
          "type": "function"
        },
        {
          "inputs": [
            {
              "internalType": "uint256",
              "name": "tokenId",
              "type": "uint256"
            },
            {
              "internalType": "address",
              "name": "to",
              "type": "address"
            }
          ],
          "name": "transferEstateToken",
          "outputs": [],
          "stateMutability": "nonpayable",
          "type": "function"
        },
        {
          "inputs": [],
          "name": "walletAddress",
          "outputs": [
            {
              "internalType": "address",
              "name": "",
              "type": "address"
            }
          ],
          "stateMutability": "view",
          "type": "function"
        },
        {
          "stateMutability": "payable",
          "type": "receive"
        }
      ],
      "evm": {
        "bytecode": {
          "linkReferences": {},
          "object": "608060405234801561001057600080fd5b50611a57806100206000396000f3fe6080604052600436106100f75760003560e01c806373ff81cc1161008a578063a0e67e2b11610059578063a0e67e2b146102ea578063bfd2b3a31461030c578063f23a6e611461032c578063ff6aa4ea1461035857600080fd5b806373ff81cc1461029a578063815d7bec146102af578063838fb01d146102c2578063987cac33146102d557600080fd5b806316812c3e116100c657806316812c3e146102065780633cc38f5c1461022657806359dbfde8146102465780636ad5b3ea1461027f57600080fd5b80630109e2b91461013d57806301ffc9a714610170578063083fbd00146101a0578063150b7a02146101c257600080fd5b36610138576040805134815247602082015233917f363f315f930a17d1266b86a20d6dd34b1cfbc5a9db9f13a65d06a689c3a2af8a910160405180910390a2005b600080fd5b34801561014957600080fd5b5061015d610158366004611503565b610378565b6040519081526020015b60405180910390f35b34801561017c57600080fd5b5061019061018b366004611788565b6103fd565b6040519015158152602001610167565b3480156101ac57600080fd5b506101c06101bb3660046117e4565b610432565b005b3480156101ce57600080fd5b506101ed6101dd3660046115bb565b630a85bd0160e11b949350505050565b6040516001600160e01b03199091168152602001610167565b34801561021257600080fd5b5061015d6102213660046117b2565b6104a2565b34801561023257600080fd5b506101c061024136600461169d565b6104d8565b34801561025257600080fd5b50610190610261366004611503565b6001600160a01b031660009081526036602052604090205460ff1690565b34801561028b57600080fd5b50604051308152602001610167565b3480156102a657600080fd5b5060335461015d565b6101c06102bd3660046116c9565b6106e3565b3480156102ce57600080fd5b504761015d565b3480156102e157600080fd5b5060345461015d565b3480156102f657600080fd5b506102ff6107cb565b6040516101679190611824565b34801561031857600080fd5b506101c061032736600461169d565b61082d565b34801561033857600080fd5b506101ed610347366004611627565b63f23a6e6160e01b95945050505050565b34801561036457600080fd5b506101c0610373366004611527565b610adc565b609d546040516370a0823160e01b81526001600160a01b03838116600483015260009216906370a08231906024015b60206040518083038186803b1580156103bf57600080fd5b505afa1580156103d3573d6000803e3d6000fd5b505050506040513d601f19601f820116820180604052508101906103f791906117cb565b92915050565b60006001600160e01b0319821663f23a6e6160e01b14806103f757506301ffc9a760e01b6001600160e01b03198316146103f7565b609d54604051631ec81aa160e31b8152306004820152602481018490526001600160a01b0383811660448301529091169063f640d50890606401600060405180830381600087803b15801561048657600080fd5b505af115801561049a573d6000803e3d6000fd5b505050505050565b609b54604051627eeac760e11b8152306004820152602481018390526000916001600160a01b03169062fdd58e906044016103a7565b60005b60335481101561054a57336001600160a01b031660358281548110610502576105026119dd565b6000918252602090912001546001600160a01b0316141561053857336000908152603660205260409020805460ff191660011790555b8061054281611996565b9150506104db565b503360009081526036602052604090205460ff1615156001146105885760405162461bcd60e51b815260040161057f906118bf565b60405180910390fd5b6001600160a01b03821660009081526036602052604090205460ff161580156105b957506001600160a01b03821615155b6106115760405162461bcd60e51b8152602060048201526024808201527f4f776e6572733a206f776e657220657869737473206f72207a65726f206164646044820152637265737360e01b606482015260840161057f565b6035805460018101825560009182527fcfa4bec1d3298408bb5afcfcd9c430549c5b31f8aa5c5848151c0a55f473c34d0180546001600160a01b0319166001600160a01b038516179055603380549161066983611996565b90915550506001600160a01b0382166000908152603660205260409020805460ff1916600117905560345481146106a3576106a3816110b6565b6040516001600160a01b03831681527f994a936646fe87ffe4f1e469d3d6aa417d6b855598397f323de5b449f765f0c39060200160405180910390a15050565b60006106ef6001611176565b90508015610707576000805461ff0019166101001790555b61071183836111fe565b61071961146a565b609b80546001600160a01b0319908116730c12780426024405e90b9b40dee4b8f99b2e3da517909155609c805482167350dd14aa06f0032993e6a96fb314596beccd25c4179055609d805490911673bf54796c09ed3f0f9a816bf61f19620ecc99fbc417905580156107c6576000805461ff0019169055604051600181527f7f26b83ff96e1f2b6a682f133852f6798a09c465da95921460cefb3847402498906020015b60405180910390a15b505050565b6060603580548060200260200160405190810160405280929190818152602001828054801561082357602002820191906000526020600020905b81546001600160a01b03168152600190910190602001808311610805575b5050505050905090565b60005b60335481101561089f57336001600160a01b031660358281548110610857576108576119dd565b6000918252602090912001546001600160a01b0316141561088d57336000908152603660205260409020805460ff191660011790555b8061089781611996565b915050610830565b503360009081526036602052604090205460ff1615156001146108d45760405162461bcd60e51b815260040161057f906118bf565b6001600160a01b03821660009081526036602052604090205460ff161515600114801561090957506001600160a01b03821615155b61096b5760405162461bcd60e51b815260206004820152602d60248201527f4f776e6572733a206f776e65722020646f6573206e6f74206578697374206f7260448201526c207a65726f206164647265737360981b606482015260840161057f565b6000600160335461097c9190611968565b9050808211610a635760358181548110610998576109986119dd565b600091825260209091200154603580546001600160a01b03909216945090806109c3576109c36119c7565b60008281526020808220830160001990810180546001600160a01b03191690559092019092556001600160a01b03851682526036905260408120805460ff191690556033805491610a138361197f565b91905055508160345414610a2a57610a2a826110b6565b6040516001600160a01b03841681527f58619076adf5bb0943d100ef88d52d7c3fd691b19d3a9071b555b651fbf418da906020016107bd565b60405162461bcd60e51b815260206004820152604260248201527f4f776e6572733a206d696e20617070726f76616c2068617320746f206265206560448201527f7175616c206f72206c657373207468616e206e6577206f776e65727320636f756064820152611b9d60f21b608482015260a40161057f565b60005b603354811015610b4e57336001600160a01b031660358281548110610b0657610b066119dd565b6000918252602090912001546001600160a01b03161415610b3c57336000908152603660205260409020805460ff191660011790555b80610b4681611996565b915050610adf565b503360009081526036602052604090205460ff161515600114610b835760405162461bcd60e51b815260040161057f906118bf565b6001600160a01b03851615801590610ba457506001600160a01b0385163014155b610c065760405162461bcd60e51b815260206004820152602d60248201527f736166653a206e6f6e207a65726f20616464726573732026206f7574206f662060448201526c7468652073616665206f6e6c7960981b606482015260840161057f565b60408051808201825260048152634252434b60e01b602090910152517fdbc2612804e5df54a662169e29f93beaf7fe79a23031577517a5660e86a7cb9490610c519086908690611814565b60405180910390201415610d685780471015610cbf5760405162461bcd60e51b815260206004820152602760248201527f536166653a206578636565647320617661696c61626c6520427269636b27732060448201526662616c616e636560c81b606482015260840161057f565b6000856001600160a01b03168260405160006040518083038185875af1925050503d8060008114610d0c576040519150601f19603f3d011682016040523d82523d6000602084013e610d11565b606091505b5050905080610d625760405162461bcd60e51b815260206004820152601b60248201527f536166653a207472616e7366657220627269636b206661696c65640000000000604482015260640161057f565b506110af565b604080518082018252600381526210539160ea1b602090910152517f2feb63c2c262895ab5f671b924f903b32e1fe8c0f0f62ccab07f3905d3b00a3290610db29086908690611814565b60405180910390201415610e9c57609c546040516370a0823160e01b815230600482015282916001600160a01b0316906370a082319060240160206040518083038186803b158015610e0357600080fd5b505afa158015610e17573d6000803e3d6000fd5b505050506040513d601f19601f82011682018060405250810190610e3b91906117cb565b1015610e975760405162461bcd60e51b815260206004820152602560248201527f536166653a206578636565647320617661696c61626c6520414e4427732062616044820152646c616e636560d81b606482015260840161057f565b6110af565b60408051808201825260038152621590d560ea1b602090910152517f6225ed549502c0a5a145d9aecb911929318e1091ba351460c7e539ff7487d8af90610ee69086908690611814565b6040518091039020141561105657609b54604051627eeac760e11b81523060048201526024810184905282916001600160a01b03169062fdd58e9060440160206040518083038186803b158015610f3c57600080fd5b505afa158015610f50573d6000803e3d6000fd5b505050506040513d601f19601f82011682018060405250810190610f7491906117cb565b1015610fd05760405162461bcd60e51b815260206004820152602560248201527f536166653a206578636565647320617661696c61626c652056435427732062616044820152646c616e636560d81b606482015260840161057f565b609b54604051637921219560e11b81523060048201526001600160a01b038781166024830152604482018590526064820184905260a06084830152600060a48301529091169063f242432a9060c401600060405180830381600087803b15801561103957600080fd5b505af115801561104d573d6000803e3d6000fd5b505050506110af565b60405162461bcd60e51b815260206004820152602860248201527f536166653a20746f6b656e20646f206e6f74206578697374206f7220657374616044820152673a32903a37b5b2b760c11b606482015260840161057f565b5050505050565b600181101580156110c957506033548111155b61113b5760405162461bcd60e51b815260206004820152603e60248201527f4f776e6572733a20617070726f76616c732067726561746572207468616e206f60448201527f6e65202620657175616c206f72206c657373207468616e206f776e6572730000606482015260840161057f565b60348190556040518181527f8b2f7e347ebed013f88116ca40fb660c59fbb84ed5fb90b8bb3bdf214b4ab8b89060200160405180910390a150565b60008054610100900460ff16156111bd578160ff1660011480156111995750303b155b6111b55760405162461bcd60e51b815260040161057f90611871565b506000919050565b60005460ff8084169116106111e45760405162461bcd60e51b815260040161057f90611871565b506000805460ff191660ff92909216919091179055600190565b600054610100900460ff166112255760405162461bcd60e51b815260040161057f906118ec565b60005b8251811015611392576000838281518110611245576112456119dd565b6020026020010151905060006001600160a01b0316816001600160a01b031614156112b25760405162461bcd60e51b815260206004820152601f60248201527f4f776e6572733a206e6f207a65726f206164647265737320616c6c6f77656400604482015260640161057f565b6001600160a01b03811660009081526036602052604090205460ff161561131b5760405162461bcd60e51b815260206004820152601960248201527f4f776e6572733a2061646472657373206475706c696361746500000000000000604482015260640161057f565b6035805460018181019092557fcfa4bec1d3298408bb5afcfcd9c430549c5b31f8aa5c5848151c0a55f473c34d0180546001600160a01b039093166001600160a01b031990931683179055600091825260366020526040909120805460ff191690911790558061138a81611996565b915050611228565b5060008251116113db5760405162461bcd60e51b815260206004820152601460248201527313dddb995c9cce881b9bc81bdddb995c881e595d60621b604482015260640161057f565b6000811180156113ec575081518111155b61145e5760405162461bcd60e51b815260206004820152603f60248201527f4f776e6572733a20617070726f76616c732067726561746572207468616e207a60448201527f65726f202620657175616c206f72206c657373207468616e206f776e65727300606482015260840161057f565b60345550603554603355565b600054610100900460ff166114915760405162461bcd60e51b815260040161057f906118ec565b565b600082601f8301126114a457600080fd5b813567ffffffffffffffff8111156114be576114be6119f3565b6114d1601f8201601f1916602001611937565b8181528460208386010111156114e657600080fd5b816020850160208301376000918101602001919091529392505050565b60006020828403121561151557600080fd5b813561152081611a09565b9392505050565b60008060008060006080868803121561153f57600080fd5b853561154a81611a09565b9450602086013567ffffffffffffffff8082111561156757600080fd5b818801915088601f83011261157b57600080fd5b81358181111561158a57600080fd5b89602082850101111561159c57600080fd5b9699602092909201985095966040810135965060600135945092505050565b600080600080608085870312156115d157600080fd5b84356115dc81611a09565b935060208501356115ec81611a09565b925060408501359150606085013567ffffffffffffffff81111561160f57600080fd5b61161b87828801611493565b91505092959194509250565b600080600080600060a0868803121561163f57600080fd5b853561164a81611a09565b9450602086013561165a81611a09565b93506040860135925060608601359150608086013567ffffffffffffffff81111561168457600080fd5b61169088828901611493565b9150509295509295909350565b600080604083850312156116b057600080fd5b82356116bb81611a09565b946020939093013593505050565b600080604083850312156116dc57600080fd5b823567ffffffffffffffff808211156116f457600080fd5b818501915085601f83011261170857600080fd5b813560208282111561171c5761171c6119f3565b8160051b925061172d818401611937565b8281528181019085830185870184018b101561174857600080fd5b600096505b84871015611777578035955061176286611a09565b8583526001969096019591830191830161174d565b509997909101359750505050505050565b60006020828403121561179a57600080fd5b81356001600160e01b03198116811461152057600080fd5b6000602082840312156117c457600080fd5b5035919050565b6000602082840312156117dd57600080fd5b5051919050565b600080604083850312156117f757600080fd5b82359150602083013561180981611a09565b809150509250929050565b8183823760009101908152919050565b6020808252825182820181905260009190848201906040850190845b818110156118655783516001600160a01b031683529284019291840191600101611840565b50909695505050505050565b6020808252602e908201527f496e697469616c697a61626c653a20636f6e747261637420697320616c72656160408201526d191e481a5b9a5d1a585b1a5e995960921b606082015260800190565b6020808252601390820152724f776e6572733a206f776e657273206f6e6c7960681b604082015260600190565b6020808252602b908201527f496e697469616c697a61626c653a20636f6e7472616374206973206e6f74206960408201526a6e697469616c697a696e6760a81b606082015260800190565b604051601f8201601f1916810167ffffffffffffffff81118282101715611960576119606119f3565b604052919050565b60008282101561197a5761197a6119b1565b500390565b60008161198e5761198e6119b1565b506000190190565b60006000198214156119aa576119aa6119b1565b5060010190565b634e487b7160e01b600052601160045260246000fd5b634e487b7160e01b600052603160045260246000fd5b634e487b7160e01b600052603260045260246000fd5b634e487b7160e01b600052604160045260246000fd5b6001600160a01b0381168114611a1e57600080fd5b5056fea2646970667358221220cd26789c16c90f19589ef627161b8d6d86208290ec1ed4f1f74dd5a81072c1c564736f6c63430008070033",
          "opcodes": "PUSH1 0x80 PUSH1 0x40 MSTORE CALLVALUE DUP1 ISZERO PUSH2 0x10 JUMPI PUSH1 0x0 DUP1 REVERT JUMPDEST POP PUSH2 0x1A57 DUP1 PUSH2 0x20 PUSH1 0x0 CODECOPY PUSH1 0x0 RETURN INVALID PUSH1 0x80 PUSH1 0x40 MSTORE PUSH1 0x4 CALLDATASIZE LT PUSH2 0xF7 JUMPI PUSH1 0x0 CALLDATALOAD PUSH1 0xE0 SHR DUP1 PUSH4 0x73FF81CC GT PUSH2 0x8A JUMPI DUP1 PUSH4 0xA0E67E2B GT PUSH2 0x59 JUMPI DUP1 PUSH4 0xA0E67E2B EQ PUSH2 0x2EA JUMPI DUP1 PUSH4 0xBFD2B3A3 EQ PUSH2 0x30C JUMPI DUP1 PUSH4 0xF23A6E61 EQ PUSH2 0x32C JUMPI DUP1 PUSH4 0xFF6AA4EA EQ PUSH2 0x358 JUMPI PUSH1 0x0 DUP1 REVERT JUMPDEST DUP1 PUSH4 0x73FF81CC EQ PUSH2 0x29A JUMPI DUP1 PUSH4 0x815D7BEC EQ PUSH2 0x2AF JUMPI DUP1 PUSH4 0x838FB01D EQ PUSH2 0x2C2 JUMPI DUP1 PUSH4 0x987CAC33 EQ PUSH2 0x2D5 JUMPI PUSH1 0x0 DUP1 REVERT JUMPDEST DUP1 PUSH4 0x16812C3E GT PUSH2 0xC6 JUMPI DUP1 PUSH4 0x16812C3E EQ PUSH2 0x206 JUMPI DUP1 PUSH4 0x3CC38F5C EQ PUSH2 0x226 JUMPI DUP1 PUSH4 0x59DBFDE8 EQ PUSH2 0x246 JUMPI DUP1 PUSH4 0x6AD5B3EA EQ PUSH2 0x27F JUMPI PUSH1 0x0 DUP1 REVERT JUMPDEST DUP1 PUSH4 0x109E2B9 EQ PUSH2 0x13D JUMPI DUP1 PUSH4 0x1FFC9A7 EQ PUSH2 0x170 JUMPI DUP1 PUSH4 0x83FBD00 EQ PUSH2 0x1A0 JUMPI DUP1 PUSH4 0x150B7A02 EQ PUSH2 0x1C2 JUMPI PUSH1 0x0 DUP1 REVERT JUMPDEST CALLDATASIZE PUSH2 0x138 JUMPI PUSH1 0x40 DUP1 MLOAD CALLVALUE DUP2 MSTORE SELFBALANCE PUSH1 0x20 DUP3 ADD MSTORE CALLER SWAP2 PUSH32 0x363F315F930A17D1266B86A20D6DD34B1CFBC5A9DB9F13A65D06A689C3A2AF8A SWAP2 ADD PUSH1 0x40 MLOAD DUP1 SWAP2 SUB SWAP1 LOG2 STOP JUMPDEST PUSH1 0x0 DUP1 REVERT JUMPDEST CALLVALUE DUP1 ISZERO PUSH2 0x149 JUMPI PUSH1 0x0 DUP1 REVERT JUMPDEST POP PUSH2 0x15D PUSH2 0x158 CALLDATASIZE PUSH1 0x4 PUSH2 0x1503 JUMP JUMPDEST PUSH2 0x378 JUMP JUMPDEST PUSH1 0x40 MLOAD SWAP1 DUP2 MSTORE PUSH1 0x20 ADD JUMPDEST PUSH1 0x40 MLOAD DUP1 SWAP2 SUB SWAP1 RETURN JUMPDEST CALLVALUE DUP1 ISZERO PUSH2 0x17C JUMPI PUSH1 0x0 DUP1 REVERT JUMPDEST POP PUSH2 0x190 PUSH2 0x18B CALLDATASIZE PUSH1 0x4 PUSH2 0x1788 JUMP JUMPDEST PUSH2 0x3FD JUMP JUMPDEST PUSH1 0x40 MLOAD SWAP1 ISZERO ISZERO DUP2 MSTORE PUSH1 0x20 ADD PUSH2 0x167 JUMP JUMPDEST CALLVALUE DUP1 ISZERO PUSH2 0x1AC JUMPI PUSH1 0x0 DUP1 REVERT JUMPDEST POP PUSH2 0x1C0 PUSH2 0x1BB CALLDATASIZE PUSH1 0x4 PUSH2 0x17E4 JUMP JUMPDEST PUSH2 0x432 JUMP JUMPDEST STOP JUMPDEST CALLVALUE DUP1 ISZERO PUSH2 0x1CE JUMPI PUSH1 0x0 DUP1 REVERT JUMPDEST POP PUSH2 0x1ED PUSH2 0x1DD CALLDATASIZE PUSH1 0x4 PUSH2 0x15BB JUMP JUMPDEST PUSH4 0xA85BD01 PUSH1 0xE1 SHL SWAP5 SWAP4 POP POP POP POP JUMP JUMPDEST PUSH1 0x40 MLOAD PUSH1 0x1 PUSH1 0x1 PUSH1 0xE0 SHL SUB NOT SWAP1 SWAP2 AND DUP2 MSTORE PUSH1 0x20 ADD PUSH2 0x167 JUMP JUMPDEST CALLVALUE DUP1 ISZERO PUSH2 0x212 JUMPI PUSH1 0x0 DUP1 REVERT JUMPDEST POP PUSH2 0x15D PUSH2 0x221 CALLDATASIZE PUSH1 0x4 PUSH2 0x17B2 JUMP JUMPDEST PUSH2 0x4A2 JUMP JUMPDEST CALLVALUE DUP1 ISZERO PUSH2 0x232 JUMPI PUSH1 0x0 DUP1 REVERT JUMPDEST POP PUSH2 0x1C0 PUSH2 0x241 CALLDATASIZE PUSH1 0x4 PUSH2 0x169D JUMP JUMPDEST PUSH2 0x4D8 JUMP JUMPDEST CALLVALUE DUP1 ISZERO PUSH2 0x252 JUMPI PUSH1 0x0 DUP1 REVERT JUMPDEST POP PUSH2 0x190 PUSH2 0x261 CALLDATASIZE PUSH1 0x4 PUSH2 0x1503 JUMP JUMPDEST PUSH1 0x1 PUSH1 0x1 PUSH1 0xA0 SHL SUB AND PUSH1 0x0 SWAP1 DUP2 MSTORE PUSH1 0x36 PUSH1 0x20 MSTORE PUSH1 0x40 SWAP1 KECCAK256 SLOAD PUSH1 0xFF AND SWAP1 JUMP JUMPDEST CALLVALUE DUP1 ISZERO PUSH2 0x28B JUMPI PUSH1 0x0 DUP1 REVERT JUMPDEST POP PUSH1 0x40 MLOAD ADDRESS DUP2 MSTORE PUSH1 0x20 ADD PUSH2 0x167 JUMP JUMPDEST CALLVALUE DUP1 ISZERO PUSH2 0x2A6 JUMPI PUSH1 0x0 DUP1 REVERT JUMPDEST POP PUSH1 0x33 SLOAD PUSH2 0x15D JUMP JUMPDEST PUSH2 0x1C0 PUSH2 0x2BD CALLDATASIZE PUSH1 0x4 PUSH2 0x16C9 JUMP JUMPDEST PUSH2 0x6E3 JUMP JUMPDEST CALLVALUE DUP1 ISZERO PUSH2 0x2CE JUMPI PUSH1 0x0 DUP1 REVERT JUMPDEST POP SELFBALANCE PUSH2 0x15D JUMP JUMPDEST CALLVALUE DUP1 ISZERO PUSH2 0x2E1 JUMPI PUSH1 0x0 DUP1 REVERT JUMPDEST POP PUSH1 0x34 SLOAD PUSH2 0x15D JUMP JUMPDEST CALLVALUE DUP1 ISZERO PUSH2 0x2F6 JUMPI PUSH1 0x0 DUP1 REVERT JUMPDEST POP PUSH2 0x2FF PUSH2 0x7CB JUMP JUMPDEST PUSH1 0x40 MLOAD PUSH2 0x167 SWAP2 SWAP1 PUSH2 0x1824 JUMP JUMPDEST CALLVALUE DUP1 ISZERO PUSH2 0x318 JUMPI PUSH1 0x0 DUP1 REVERT JUMPDEST POP PUSH2 0x1C0 PUSH2 0x327 CALLDATASIZE PUSH1 0x4 PUSH2 0x169D JUMP JUMPDEST PUSH2 0x82D JUMP JUMPDEST CALLVALUE DUP1 ISZERO PUSH2 0x338 JUMPI PUSH1 0x0 DUP1 REVERT JUMPDEST POP PUSH2 0x1ED PUSH2 0x347 CALLDATASIZE PUSH1 0x4 PUSH2 0x1627 JUMP JUMPDEST PUSH4 0xF23A6E61 PUSH1 0xE0 SHL SWAP6 SWAP5 POP POP POP POP POP JUMP JUMPDEST CALLVALUE DUP1 ISZERO PUSH2 0x364 JUMPI PUSH1 0x0 DUP1 REVERT JUMPDEST POP PUSH2 0x1C0 PUSH2 0x373 CALLDATASIZE PUSH1 0x4 PUSH2 0x1527 JUMP JUMPDEST PUSH2 0xADC JUMP JUMPDEST PUSH1 0x9D SLOAD PUSH1 0x40 MLOAD PUSH4 0x70A08231 PUSH1 0xE0 SHL DUP2 MSTORE PUSH1 0x1 PUSH1 0x1 PUSH1 0xA0 SHL SUB DUP4 DUP2 AND PUSH1 0x4 DUP4 ADD MSTORE PUSH1 0x0 SWAP3 AND SWAP1 PUSH4 0x70A08231 SWAP1 PUSH1 0x24 ADD JUMPDEST PUSH1 0x20 PUSH1 0x40 MLOAD DUP1 DUP4 SUB DUP2 DUP7 DUP1 EXTCODESIZE ISZERO DUP1 ISZERO PUSH2 0x3BF JUMPI PUSH1 0x0 DUP1 REVERT JUMPDEST POP GAS STATICCALL ISZERO DUP1 ISZERO PUSH2 0x3D3 JUMPI RETURNDATASIZE PUSH1 0x0 DUP1 RETURNDATACOPY RETURNDATASIZE PUSH1 0x0 REVERT JUMPDEST POP POP POP POP PUSH1 0x40 MLOAD RETURNDATASIZE PUSH1 0x1F NOT PUSH1 0x1F DUP3 ADD AND DUP3 ADD DUP1 PUSH1 0x40 MSTORE POP DUP2 ADD SWAP1 PUSH2 0x3F7 SWAP2 SWAP1 PUSH2 0x17CB JUMP JUMPDEST SWAP3 SWAP2 POP POP JUMP JUMPDEST PUSH1 0x0 PUSH1 0x1 PUSH1 0x1 PUSH1 0xE0 SHL SUB NOT DUP3 AND PUSH4 0xF23A6E61 PUSH1 0xE0 SHL EQ DUP1 PUSH2 0x3F7 JUMPI POP PUSH4 0x1FFC9A7 PUSH1 0xE0 SHL PUSH1 0x1 PUSH1 0x1 PUSH1 0xE0 SHL SUB NOT DUP4 AND EQ PUSH2 0x3F7 JUMP JUMPDEST PUSH1 0x9D SLOAD PUSH1 0x40 MLOAD PUSH4 0x1EC81AA1 PUSH1 0xE3 SHL DUP2 MSTORE ADDRESS PUSH1 0x4 DUP3 ADD MSTORE PUSH1 0x24 DUP2 ADD DUP5 SWAP1 MSTORE PUSH1 0x1 PUSH1 0x1 PUSH1 0xA0 SHL SUB DUP4 DUP2 AND PUSH1 0x44 DUP4 ADD MSTORE SWAP1 SWAP2 AND SWAP1 PUSH4 0xF640D508 SWAP1 PUSH1 0x64 ADD PUSH1 0x0 PUSH1 0x40 MLOAD DUP1 DUP4 SUB DUP2 PUSH1 0x0 DUP8 DUP1 EXTCODESIZE ISZERO DUP1 ISZERO PUSH2 0x486 JUMPI PUSH1 0x0 DUP1 REVERT JUMPDEST POP GAS CALL ISZERO DUP1 ISZERO PUSH2 0x49A JUMPI RETURNDATASIZE PUSH1 0x0 DUP1 RETURNDATACOPY RETURNDATASIZE PUSH1 0x0 REVERT JUMPDEST POP POP POP POP POP POP JUMP JUMPDEST PUSH1 0x9B SLOAD PUSH1 0x40 MLOAD PUSH3 0x7EEAC7 PUSH1 0xE1 SHL DUP2 MSTORE ADDRESS PUSH1 0x4 DUP3 ADD MSTORE PUSH1 0x24 DUP2 ADD DUP4 SWAP1 MSTORE PUSH1 0x0 SWAP2 PUSH1 0x1 PUSH1 0x1 PUSH1 0xA0 SHL SUB AND SWAP1 PUSH3 0xFDD58E SWAP1 PUSH1 0x44 ADD PUSH2 0x3A7 JUMP JUMPDEST PUSH1 0x0 JUMPDEST PUSH1 0x33 SLOAD DUP2 LT ISZERO PUSH2 0x54A JUMPI CALLER PUSH1 0x1 PUSH1 0x1 PUSH1 0xA0 SHL SUB AND PUSH1 0x35 DUP3 DUP2 SLOAD DUP2 LT PUSH2 0x502 JUMPI PUSH2 0x502 PUSH2 0x19DD JUMP JUMPDEST PUSH1 0x0 SWAP2 DUP3 MSTORE PUSH1 0x20 SWAP1 SWAP2 KECCAK256 ADD SLOAD PUSH1 0x1 PUSH1 0x1 PUSH1 0xA0 SHL SUB AND EQ ISZERO PUSH2 0x538 JUMPI CALLER PUSH1 0x0 SWAP1 DUP2 MSTORE PUSH1 0x36 PUSH1 0x20 MSTORE PUSH1 0x40 SWAP1 KECCAK256 DUP1 SLOAD PUSH1 0xFF NOT AND PUSH1 0x1 OR SWAP1 SSTORE JUMPDEST DUP1 PUSH2 0x542 DUP2 PUSH2 0x1996 JUMP JUMPDEST SWAP2 POP POP PUSH2 0x4DB JUMP JUMPDEST POP CALLER PUSH1 0x0 SWAP1 DUP2 MSTORE PUSH1 0x36 PUSH1 0x20 MSTORE PUSH1 0x40 SWAP1 KECCAK256 SLOAD PUSH1 0xFF AND ISZERO ISZERO PUSH1 0x1 EQ PUSH2 0x588 JUMPI PUSH1 0x40 MLOAD PUSH3 0x461BCD PUSH1 0xE5 SHL DUP2 MSTORE PUSH1 0x4 ADD PUSH2 0x57F SWAP1 PUSH2 0x18BF JUMP JUMPDEST PUSH1 0x40 MLOAD DUP1 SWAP2 SUB SWAP1 REVERT JUMPDEST PUSH1 0x1 PUSH1 0x1 PUSH1 0xA0 SHL SUB DUP3 AND PUSH1 0x0 SWAP1 DUP2 MSTORE PUSH1 0x36 PUSH1 0x20 MSTORE PUSH1 0x40 SWAP1 KECCAK256 SLOAD PUSH1 0xFF AND ISZERO DUP1 ISZERO PUSH2 0x5B9 JUMPI POP PUSH1 0x1 PUSH1 0x1 PUSH1 0xA0 SHL SUB DUP3 AND ISZERO ISZERO JUMPDEST PUSH2 0x611 JUMPI PUSH1 0x40 MLOAD PUSH3 0x461BCD PUSH1 0xE5 SHL DUP2 MSTORE PUSH1 0x20 PUSH1 0x4 DUP3 ADD MSTORE PUSH1 0x24 DUP1 DUP3 ADD MSTORE PUSH32 0x4F776E6572733A206F776E657220657869737473206F72207A65726F20616464 PUSH1 0x44 DUP3 ADD MSTORE PUSH4 0x72657373 PUSH1 0xE0 SHL PUSH1 0x64 DUP3 ADD MSTORE PUSH1 0x84 ADD PUSH2 0x57F JUMP JUMPDEST PUSH1 0x35 DUP1 SLOAD PUSH1 0x1 DUP2 ADD DUP3 SSTORE PUSH1 0x0 SWAP2 DUP3 MSTORE PUSH32 0xCFA4BEC1D3298408BB5AFCFCD9C430549C5B31F8AA5C5848151C0A55F473C34D ADD DUP1 SLOAD PUSH1 0x1 PUSH1 0x1 PUSH1 0xA0 SHL SUB NOT AND PUSH1 0x1 PUSH1 0x1 PUSH1 0xA0 SHL SUB DUP6 AND OR SWAP1 SSTORE PUSH1 0x33 DUP1 SLOAD SWAP2 PUSH2 0x669 DUP4 PUSH2 0x1996 JUMP JUMPDEST SWAP1 SWAP2 SSTORE POP POP PUSH1 0x1 PUSH1 0x1 PUSH1 0xA0 SHL SUB DUP3 AND PUSH1 0x0 SWAP1 DUP2 MSTORE PUSH1 0x36 PUSH1 0x20 MSTORE PUSH1 0x40 SWAP1 KECCAK256 DUP1 SLOAD PUSH1 0xFF NOT AND PUSH1 0x1 OR SWAP1 SSTORE PUSH1 0x34 SLOAD DUP2 EQ PUSH2 0x6A3 JUMPI PUSH2 0x6A3 DUP2 PUSH2 0x10B6 JUMP JUMPDEST PUSH1 0x40 MLOAD PUSH1 0x1 PUSH1 0x1 PUSH1 0xA0 SHL SUB DUP4 AND DUP2 MSTORE PUSH32 0x994A936646FE87FFE4F1E469D3D6AA417D6B855598397F323DE5B449F765F0C3 SWAP1 PUSH1 0x20 ADD PUSH1 0x40 MLOAD DUP1 SWAP2 SUB SWAP1 LOG1 POP POP JUMP JUMPDEST PUSH1 0x0 PUSH2 0x6EF PUSH1 0x1 PUSH2 0x1176 JUMP JUMPDEST SWAP1 POP DUP1 ISZERO PUSH2 0x707 JUMPI PUSH1 0x0 DUP1 SLOAD PUSH2 0xFF00 NOT AND PUSH2 0x100 OR SWAP1 SSTORE JUMPDEST PUSH2 0x711 DUP4 DUP4 PUSH2 0x11FE JUMP JUMPDEST PUSH2 0x719 PUSH2 0x146A JUMP JUMPDEST PUSH1 0x9B DUP1 SLOAD PUSH1 0x1 PUSH1 0x1 PUSH1 0xA0 SHL SUB NOT SWAP1 DUP2 AND PUSH20 0xC12780426024405E90B9B40DEE4B8F99B2E3DA5 OR SWAP1 SWAP2 SSTORE PUSH1 0x9C DUP1 SLOAD DUP3 AND PUSH20 0x50DD14AA06F0032993E6A96FB314596BECCD25C4 OR SWAP1 SSTORE PUSH1 0x9D DUP1 SLOAD SWAP1 SWAP2 AND PUSH20 0xBF54796C09ED3F0F9A816BF61F19620ECC99FBC4 OR SWAP1 SSTORE DUP1 ISZERO PUSH2 0x7C6 JUMPI PUSH1 0x0 DUP1 SLOAD PUSH2 0xFF00 NOT AND SWAP1 SSTORE PUSH1 0x40 MLOAD PUSH1 0x1 DUP2 MSTORE PUSH32 0x7F26B83FF96E1F2B6A682F133852F6798A09C465DA95921460CEFB3847402498 SWAP1 PUSH1 0x20 ADD JUMPDEST PUSH1 0x40 MLOAD DUP1 SWAP2 SUB SWAP1 LOG1 JUMPDEST POP POP POP JUMP JUMPDEST PUSH1 0x60 PUSH1 0x35 DUP1 SLOAD DUP1 PUSH1 0x20 MUL PUSH1 0x20 ADD PUSH1 0x40 MLOAD SWAP1 DUP2 ADD PUSH1 0x40 MSTORE DUP1 SWAP3 SWAP2 SWAP1 DUP2 DUP2 MSTORE PUSH1 0x20 ADD DUP3 DUP1 SLOAD DUP1 ISZERO PUSH2 0x823 JUMPI PUSH1 0x20 MUL DUP3 ADD SWAP2 SWAP1 PUSH1 0x0 MSTORE PUSH1 0x20 PUSH1 0x0 KECCAK256 SWAP1 JUMPDEST DUP2 SLOAD PUSH1 0x1 PUSH1 0x1 PUSH1 0xA0 SHL SUB AND DUP2 MSTORE PUSH1 0x1 SWAP1 SWAP2 ADD SWAP1 PUSH1 0x20 ADD DUP1 DUP4 GT PUSH2 0x805 JUMPI JUMPDEST POP POP POP POP POP SWAP1 POP SWAP1 JUMP JUMPDEST PUSH1 0x0 JUMPDEST PUSH1 0x33 SLOAD DUP2 LT ISZERO PUSH2 0x89F JUMPI CALLER PUSH1 0x1 PUSH1 0x1 PUSH1 0xA0 SHL SUB AND PUSH1 0x35 DUP3 DUP2 SLOAD DUP2 LT PUSH2 0x857 JUMPI PUSH2 0x857 PUSH2 0x19DD JUMP JUMPDEST PUSH1 0x0 SWAP2 DUP3 MSTORE PUSH1 0x20 SWAP1 SWAP2 KECCAK256 ADD SLOAD PUSH1 0x1 PUSH1 0x1 PUSH1 0xA0 SHL SUB AND EQ ISZERO PUSH2 0x88D JUMPI CALLER PUSH1 0x0 SWAP1 DUP2 MSTORE PUSH1 0x36 PUSH1 0x20 MSTORE PUSH1 0x40 SWAP1 KECCAK256 DUP1 SLOAD PUSH1 0xFF NOT AND PUSH1 0x1 OR SWAP1 SSTORE JUMPDEST DUP1 PUSH2 0x897 DUP2 PUSH2 0x1996 JUMP JUMPDEST SWAP2 POP POP PUSH2 0x830 JUMP JUMPDEST POP CALLER PUSH1 0x0 SWAP1 DUP2 MSTORE PUSH1 0x36 PUSH1 0x20 MSTORE PUSH1 0x40 SWAP1 KECCAK256 SLOAD PUSH1 0xFF AND ISZERO ISZERO PUSH1 0x1 EQ PUSH2 0x8D4 JUMPI PUSH1 0x40 MLOAD PUSH3 0x461BCD PUSH1 0xE5 SHL DUP2 MSTORE PUSH1 0x4 ADD PUSH2 0x57F SWAP1 PUSH2 0x18BF JUMP JUMPDEST PUSH1 0x1 PUSH1 0x1 PUSH1 0xA0 SHL SUB DUP3 AND PUSH1 0x0 SWAP1 DUP2 MSTORE PUSH1 0x36 PUSH1 0x20 MSTORE PUSH1 0x40 SWAP1 KECCAK256 SLOAD PUSH1 0xFF AND ISZERO ISZERO PUSH1 0x1 EQ DUP1 ISZERO PUSH2 0x909 JUMPI POP PUSH1 0x1 PUSH1 0x1 PUSH1 0xA0 SHL SUB DUP3 AND ISZERO ISZERO JUMPDEST PUSH2 0x96B JUMPI PUSH1 0x40 MLOAD PUSH3 0x461BCD PUSH1 0xE5 SHL DUP2 MSTORE PUSH1 0x20 PUSH1 0x4 DUP3 ADD MSTORE PUSH1 0x2D PUSH1 0x24 DUP3 ADD MSTORE PUSH32 0x4F776E6572733A206F776E65722020646F6573206E6F74206578697374206F72 PUSH1 0x44 DUP3 ADD MSTORE PUSH13 0x207A65726F2061646472657373 PUSH1 0x98 SHL PUSH1 0x64 DUP3 ADD MSTORE PUSH1 0x84 ADD PUSH2 0x57F JUMP JUMPDEST PUSH1 0x0 PUSH1 0x1 PUSH1 0x33 SLOAD PUSH2 0x97C SWAP2 SWAP1 PUSH2 0x1968 JUMP JUMPDEST SWAP1 POP DUP1 DUP3 GT PUSH2 0xA63 JUMPI PUSH1 0x35 DUP2 DUP2 SLOAD DUP2 LT PUSH2 0x998 JUMPI PUSH2 0x998 PUSH2 0x19DD JUMP JUMPDEST PUSH1 0x0 SWAP2 DUP3 MSTORE PUSH1 0x20 SWAP1 SWAP2 KECCAK256 ADD SLOAD PUSH1 0x35 DUP1 SLOAD PUSH1 0x1 PUSH1 0x1 PUSH1 0xA0 SHL SUB SWAP1 SWAP3 AND SWAP5 POP SWAP1 DUP1 PUSH2 0x9C3 JUMPI PUSH2 0x9C3 PUSH2 0x19C7 JUMP JUMPDEST PUSH1 0x0 DUP3 DUP2 MSTORE PUSH1 0x20 DUP1 DUP3 KECCAK256 DUP4 ADD PUSH1 0x0 NOT SWAP1 DUP2 ADD DUP1 SLOAD PUSH1 0x1 PUSH1 0x1 PUSH1 0xA0 SHL SUB NOT AND SWAP1 SSTORE SWAP1 SWAP3 ADD SWAP1 SWAP3 SSTORE PUSH1 0x1 PUSH1 0x1 PUSH1 0xA0 SHL SUB DUP6 AND DUP3 MSTORE PUSH1 0x36 SWAP1 MSTORE PUSH1 0x40 DUP2 KECCAK256 DUP1 SLOAD PUSH1 0xFF NOT AND SWAP1 SSTORE PUSH1 0x33 DUP1 SLOAD SWAP2 PUSH2 0xA13 DUP4 PUSH2 0x197F JUMP JUMPDEST SWAP2 SWAP1 POP SSTORE POP DUP2 PUSH1 0x34 SLOAD EQ PUSH2 0xA2A JUMPI PUSH2 0xA2A DUP3 PUSH2 0x10B6 JUMP JUMPDEST PUSH1 0x40 MLOAD PUSH1 0x1 PUSH1 0x1 PUSH1 0xA0 SHL SUB DUP5 AND DUP2 MSTORE PUSH32 0x58619076ADF5BB0943D100EF88D52D7C3FD691B19D3A9071B555B651FBF418DA SWAP1 PUSH1 0x20 ADD PUSH2 0x7BD JUMP JUMPDEST PUSH1 0x40 MLOAD PUSH3 0x461BCD PUSH1 0xE5 SHL DUP2 MSTORE PUSH1 0x20 PUSH1 0x4 DUP3 ADD MSTORE PUSH1 0x42 PUSH1 0x24 DUP3 ADD MSTORE PUSH32 0x4F776E6572733A206D696E20617070726F76616C2068617320746F2062652065 PUSH1 0x44 DUP3 ADD MSTORE PUSH32 0x7175616C206F72206C657373207468616E206E6577206F776E65727320636F75 PUSH1 0x64 DUP3 ADD MSTORE PUSH2 0x1B9D PUSH1 0xF2 SHL PUSH1 0x84 DUP3 ADD MSTORE PUSH1 0xA4 ADD PUSH2 0x57F JUMP JUMPDEST PUSH1 0x0 JUMPDEST PUSH1 0x33 SLOAD DUP2 LT ISZERO PUSH2 0xB4E JUMPI CALLER PUSH1 0x1 PUSH1 0x1 PUSH1 0xA0 SHL SUB AND PUSH1 0x35 DUP3 DUP2 SLOAD DUP2 LT PUSH2 0xB06 JUMPI PUSH2 0xB06 PUSH2 0x19DD JUMP JUMPDEST PUSH1 0x0 SWAP2 DUP3 MSTORE PUSH1 0x20 SWAP1 SWAP2 KECCAK256 ADD SLOAD PUSH1 0x1 PUSH1 0x1 PUSH1 0xA0 SHL SUB AND EQ ISZERO PUSH2 0xB3C JUMPI CALLER PUSH1 0x0 SWAP1 DUP2 MSTORE PUSH1 0x36 PUSH1 0x20 MSTORE PUSH1 0x40 SWAP1 KECCAK256 DUP1 SLOAD PUSH1 0xFF NOT AND PUSH1 0x1 OR SWAP1 SSTORE JUMPDEST DUP1 PUSH2 0xB46 DUP2 PUSH2 0x1996 JUMP JUMPDEST SWAP2 POP POP PUSH2 0xADF JUMP JUMPDEST POP CALLER PUSH1 0x0 SWAP1 DUP2 MSTORE PUSH1 0x36 PUSH1 0x20 MSTORE PUSH1 0x40 SWAP1 KECCAK256 SLOAD PUSH1 0xFF AND ISZERO ISZERO PUSH1 0x1 EQ PUSH2 0xB83 JUMPI PUSH1 0x40 MLOAD PUSH3 0x461BCD PUSH1 0xE5 SHL DUP2 MSTORE PUSH1 0x4 ADD PUSH2 0x57F SWAP1 PUSH2 0x18BF JUMP JUMPDEST PUSH1 0x1 PUSH1 0x1 PUSH1 0xA0 SHL SUB DUP6 AND ISZERO DUP1 ISZERO SWAP1 PUSH2 0xBA4 JUMPI POP PUSH1 0x1 PUSH1 0x1 PUSH1 0xA0 SHL SUB DUP6 AND ADDRESS EQ ISZERO JUMPDEST PUSH2 0xC06 JUMPI PUSH1 0x40 MLOAD PUSH3 0x461BCD PUSH1 0xE5 SHL DUP2 MSTORE PUSH1 0x20 PUSH1 0x4 DUP3 ADD MSTORE PUSH1 0x2D PUSH1 0x24 DUP3 ADD MSTORE PUSH32 0x736166653A206E6F6E207A65726F20616464726573732026206F7574206F6620 PUSH1 0x44 DUP3 ADD MSTORE PUSH13 0x7468652073616665206F6E6C79 PUSH1 0x98 SHL PUSH1 0x64 DUP3 ADD MSTORE PUSH1 0x84 ADD PUSH2 0x57F JUMP JUMPDEST PUSH1 0x40 DUP1 MLOAD DUP1 DUP3 ADD DUP3 MSTORE PUSH1 0x4 DUP2 MSTORE PUSH4 0x4252434B PUSH1 0xE0 SHL PUSH1 0x20 SWAP1 SWAP2 ADD MSTORE MLOAD PUSH32 0xDBC2612804E5DF54A662169E29F93BEAF7FE79A23031577517A5660E86A7CB94 SWAP1 PUSH2 0xC51 SWAP1 DUP7 SWAP1 DUP7 SWAP1 PUSH2 0x1814 JUMP JUMPDEST PUSH1 0x40 MLOAD DUP1 SWAP2 SUB SWAP1 KECCAK256 EQ ISZERO PUSH2 0xD68 JUMPI DUP1 SELFBALANCE LT ISZERO PUSH2 0xCBF JUMPI PUSH1 0x40 MLOAD PUSH3 0x461BCD PUSH1 0xE5 SHL DUP2 MSTORE PUSH1 0x20 PUSH1 0x4 DUP3 ADD MSTORE PUSH1 0x27 PUSH1 0x24 DUP3 ADD MSTORE PUSH32 0x536166653A206578636565647320617661696C61626C6520427269636B277320 PUSH1 0x44 DUP3 ADD MSTORE PUSH7 0x62616C616E6365 PUSH1 0xC8 SHL PUSH1 0x64 DUP3 ADD MSTORE PUSH1 0x84 ADD PUSH2 0x57F JUMP JUMPDEST PUSH1 0x0 DUP6 PUSH1 0x1 PUSH1 0x1 PUSH1 0xA0 SHL SUB AND DUP3 PUSH1 0x40 MLOAD PUSH1 0x0 PUSH1 0x40 MLOAD DUP1 DUP4 SUB DUP2 DUP6 DUP8 GAS CALL SWAP3 POP POP POP RETURNDATASIZE DUP1 PUSH1 0x0 DUP2 EQ PUSH2 0xD0C JUMPI PUSH1 0x40 MLOAD SWAP2 POP PUSH1 0x1F NOT PUSH1 0x3F RETURNDATASIZE ADD AND DUP3 ADD PUSH1 0x40 MSTORE RETURNDATASIZE DUP3 MSTORE RETURNDATASIZE PUSH1 0x0 PUSH1 0x20 DUP5 ADD RETURNDATACOPY PUSH2 0xD11 JUMP JUMPDEST PUSH1 0x60 SWAP2 POP JUMPDEST POP POP SWAP1 POP DUP1 PUSH2 0xD62 JUMPI PUSH1 0x40 MLOAD PUSH3 0x461BCD PUSH1 0xE5 SHL DUP2 MSTORE PUSH1 0x20 PUSH1 0x4 DUP3 ADD MSTORE PUSH1 0x1B PUSH1 0x24 DUP3 ADD MSTORE PUSH32 0x536166653A207472616E7366657220627269636B206661696C65640000000000 PUSH1 0x44 DUP3 ADD MSTORE PUSH1 0x64 ADD PUSH2 0x57F JUMP JUMPDEST POP PUSH2 0x10AF JUMP JUMPDEST PUSH1 0x40 DUP1 MLOAD DUP1 DUP3 ADD DUP3 MSTORE PUSH1 0x3 DUP2 MSTORE PUSH3 0x105391 PUSH1 0xEA SHL PUSH1 0x20 SWAP1 SWAP2 ADD MSTORE MLOAD PUSH32 0x2FEB63C2C262895AB5F671B924F903B32E1FE8C0F0F62CCAB07F3905D3B00A32 SWAP1 PUSH2 0xDB2 SWAP1 DUP7 SWAP1 DUP7 SWAP1 PUSH2 0x1814 JUMP JUMPDEST PUSH1 0x40 MLOAD DUP1 SWAP2 SUB SWAP1 KECCAK256 EQ ISZERO PUSH2 0xE9C JUMPI PUSH1 0x9C SLOAD PUSH1 0x40 MLOAD PUSH4 0x70A08231 PUSH1 0xE0 SHL DUP2 MSTORE ADDRESS PUSH1 0x4 DUP3 ADD MSTORE DUP3 SWAP2 PUSH1 0x1 PUSH1 0x1 PUSH1 0xA0 SHL SUB AND SWAP1 PUSH4 0x70A08231 SWAP1 PUSH1 0x24 ADD PUSH1 0x20 PUSH1 0x40 MLOAD DUP1 DUP4 SUB DUP2 DUP7 DUP1 EXTCODESIZE ISZERO DUP1 ISZERO PUSH2 0xE03 JUMPI PUSH1 0x0 DUP1 REVERT JUMPDEST POP GAS STATICCALL ISZERO DUP1 ISZERO PUSH2 0xE17 JUMPI RETURNDATASIZE PUSH1 0x0 DUP1 RETURNDATACOPY RETURNDATASIZE PUSH1 0x0 REVERT JUMPDEST POP POP POP POP PUSH1 0x40 MLOAD RETURNDATASIZE PUSH1 0x1F NOT PUSH1 0x1F DUP3 ADD AND DUP3 ADD DUP1 PUSH1 0x40 MSTORE POP DUP2 ADD SWAP1 PUSH2 0xE3B SWAP2 SWAP1 PUSH2 0x17CB JUMP JUMPDEST LT ISZERO PUSH2 0xE97 JUMPI PUSH1 0x40 MLOAD PUSH3 0x461BCD PUSH1 0xE5 SHL DUP2 MSTORE PUSH1 0x20 PUSH1 0x4 DUP3 ADD MSTORE PUSH1 0x25 PUSH1 0x24 DUP3 ADD MSTORE PUSH32 0x536166653A206578636565647320617661696C61626C6520414E442773206261 PUSH1 0x44 DUP3 ADD MSTORE PUSH5 0x6C616E6365 PUSH1 0xD8 SHL PUSH1 0x64 DUP3 ADD MSTORE PUSH1 0x84 ADD PUSH2 0x57F JUMP JUMPDEST PUSH2 0x10AF JUMP JUMPDEST PUSH1 0x40 DUP1 MLOAD DUP1 DUP3 ADD DUP3 MSTORE PUSH1 0x3 DUP2 MSTORE PUSH3 0x1590D5 PUSH1 0xEA SHL PUSH1 0x20 SWAP1 SWAP2 ADD MSTORE MLOAD PUSH32 0x6225ED549502C0A5A145D9AECB911929318E1091BA351460C7E539FF7487D8AF SWAP1 PUSH2 0xEE6 SWAP1 DUP7 SWAP1 DUP7 SWAP1 PUSH2 0x1814 JUMP JUMPDEST PUSH1 0x40 MLOAD DUP1 SWAP2 SUB SWAP1 KECCAK256 EQ ISZERO PUSH2 0x1056 JUMPI PUSH1 0x9B SLOAD PUSH1 0x40 MLOAD PUSH3 0x7EEAC7 PUSH1 0xE1 SHL DUP2 MSTORE ADDRESS PUSH1 0x4 DUP3 ADD MSTORE PUSH1 0x24 DUP2 ADD DUP5 SWAP1 MSTORE DUP3 SWAP2 PUSH1 0x1 PUSH1 0x1 PUSH1 0xA0 SHL SUB AND SWAP1 PUSH3 0xFDD58E SWAP1 PUSH1 0x44 ADD PUSH1 0x20 PUSH1 0x40 MLOAD DUP1 DUP4 SUB DUP2 DUP7 DUP1 EXTCODESIZE ISZERO DUP1 ISZERO PUSH2 0xF3C JUMPI PUSH1 0x0 DUP1 REVERT JUMPDEST POP GAS STATICCALL ISZERO DUP1 ISZERO PUSH2 0xF50 JUMPI RETURNDATASIZE PUSH1 0x0 DUP1 RETURNDATACOPY RETURNDATASIZE PUSH1 0x0 REVERT JUMPDEST POP POP POP POP PUSH1 0x40 MLOAD RETURNDATASIZE PUSH1 0x1F NOT PUSH1 0x1F DUP3 ADD AND DUP3 ADD DUP1 PUSH1 0x40 MSTORE POP DUP2 ADD SWAP1 PUSH2 0xF74 SWAP2 SWAP1 PUSH2 0x17CB JUMP JUMPDEST LT ISZERO PUSH2 0xFD0 JUMPI PUSH1 0x40 MLOAD PUSH3 0x461BCD PUSH1 0xE5 SHL DUP2 MSTORE PUSH1 0x20 PUSH1 0x4 DUP3 ADD MSTORE PUSH1 0x25 PUSH1 0x24 DUP3 ADD MSTORE PUSH32 0x536166653A206578636565647320617661696C61626C65205643542773206261 PUSH1 0x44 DUP3 ADD MSTORE PUSH5 0x6C616E6365 PUSH1 0xD8 SHL PUSH1 0x64 DUP3 ADD MSTORE PUSH1 0x84 ADD PUSH2 0x57F JUMP JUMPDEST PUSH1 0x9B SLOAD PUSH1 0x40 MLOAD PUSH4 0x79212195 PUSH1 0xE1 SHL DUP2 MSTORE ADDRESS PUSH1 0x4 DUP3 ADD MSTORE PUSH1 0x1 PUSH1 0x1 PUSH1 0xA0 SHL SUB DUP8 DUP2 AND PUSH1 0x24 DUP4 ADD MSTORE PUSH1 0x44 DUP3 ADD DUP6 SWAP1 MSTORE PUSH1 0x64 DUP3 ADD DUP5 SWAP1 MSTORE PUSH1 0xA0 PUSH1 0x84 DUP4 ADD MSTORE PUSH1 0x0 PUSH1 0xA4 DUP4 ADD MSTORE SWAP1 SWAP2 AND SWAP1 PUSH4 0xF242432A SWAP1 PUSH1 0xC4 ADD PUSH1 0x0 PUSH1 0x40 MLOAD DUP1 DUP4 SUB DUP2 PUSH1 0x0 DUP8 DUP1 EXTCODESIZE ISZERO DUP1 ISZERO PUSH2 0x1039 JUMPI PUSH1 0x0 DUP1 REVERT JUMPDEST POP GAS CALL ISZERO DUP1 ISZERO PUSH2 0x104D JUMPI RETURNDATASIZE PUSH1 0x0 DUP1 RETURNDATACOPY RETURNDATASIZE PUSH1 0x0 REVERT JUMPDEST POP POP POP POP PUSH2 0x10AF JUMP JUMPDEST PUSH1 0x40 MLOAD PUSH3 0x461BCD PUSH1 0xE5 SHL DUP2 MSTORE PUSH1 0x20 PUSH1 0x4 DUP3 ADD MSTORE PUSH1 0x28 PUSH1 0x24 DUP3 ADD MSTORE PUSH32 0x536166653A20746F6B656E20646F206E6F74206578697374206F722065737461 PUSH1 0x44 DUP3 ADD MSTORE PUSH8 0x3A32903A37B5B2B7 PUSH1 0xC1 SHL PUSH1 0x64 DUP3 ADD MSTORE PUSH1 0x84 ADD PUSH2 0x57F JUMP JUMPDEST POP POP POP POP POP JUMP JUMPDEST PUSH1 0x1 DUP2 LT ISZERO DUP1 ISZERO PUSH2 0x10C9 JUMPI POP PUSH1 0x33 SLOAD DUP2 GT ISZERO JUMPDEST PUSH2 0x113B JUMPI PUSH1 0x40 MLOAD PUSH3 0x461BCD PUSH1 0xE5 SHL DUP2 MSTORE PUSH1 0x20 PUSH1 0x4 DUP3 ADD MSTORE PUSH1 0x3E PUSH1 0x24 DUP3 ADD MSTORE PUSH32 0x4F776E6572733A20617070726F76616C732067726561746572207468616E206F PUSH1 0x44 DUP3 ADD MSTORE PUSH32 0x6E65202620657175616C206F72206C657373207468616E206F776E6572730000 PUSH1 0x64 DUP3 ADD MSTORE PUSH1 0x84 ADD PUSH2 0x57F JUMP JUMPDEST PUSH1 0x34 DUP2 SWAP1 SSTORE PUSH1 0x40 MLOAD DUP2 DUP2 MSTORE PUSH32 0x8B2F7E347EBED013F88116CA40FB660C59FBB84ED5FB90B8BB3BDF214B4AB8B8 SWAP1 PUSH1 0x20 ADD PUSH1 0x40 MLOAD DUP1 SWAP2 SUB SWAP1 LOG1 POP JUMP JUMPDEST PUSH1 0x0 DUP1 SLOAD PUSH2 0x100 SWAP1 DIV PUSH1 0xFF AND ISZERO PUSH2 0x11BD JUMPI DUP2 PUSH1 0xFF AND PUSH1 0x1 EQ DUP1 ISZERO PUSH2 0x1199 JUMPI POP ADDRESS EXTCODESIZE ISZERO JUMPDEST PUSH2 0x11B5 JUMPI PUSH1 0x40 MLOAD PUSH3 0x461BCD PUSH1 0xE5 SHL DUP2 MSTORE PUSH1 0x4 ADD PUSH2 0x57F SWAP1 PUSH2 0x1871 JUMP JUMPDEST POP PUSH1 0x0 SWAP2 SWAP1 POP JUMP JUMPDEST PUSH1 0x0 SLOAD PUSH1 0xFF DUP1 DUP5 AND SWAP2 AND LT PUSH2 0x11E4 JUMPI PUSH1 0x40 MLOAD PUSH3 0x461BCD PUSH1 0xE5 SHL DUP2 MSTORE PUSH1 0x4 ADD PUSH2 0x57F SWAP1 PUSH2 0x1871 JUMP JUMPDEST POP PUSH1 0x0 DUP1 SLOAD PUSH1 0xFF NOT AND PUSH1 0xFF SWAP3 SWAP1 SWAP3 AND SWAP2 SWAP1 SWAP2 OR SWAP1 SSTORE PUSH1 0x1 SWAP1 JUMP JUMPDEST PUSH1 0x0 SLOAD PUSH2 0x100 SWAP1 DIV PUSH1 0xFF AND PUSH2 0x1225 JUMPI PUSH1 0x40 MLOAD PUSH3 0x461BCD PUSH1 0xE5 SHL DUP2 MSTORE PUSH1 0x4 ADD PUSH2 0x57F SWAP1 PUSH2 0x18EC JUMP JUMPDEST PUSH1 0x0 JUMPDEST DUP3 MLOAD DUP2 LT ISZERO PUSH2 0x1392 JUMPI PUSH1 0x0 DUP4 DUP3 DUP2 MLOAD DUP2 LT PUSH2 0x1245 JUMPI PUSH2 0x1245 PUSH2 0x19DD JUMP JUMPDEST PUSH1 0x20 MUL PUSH1 0x20 ADD ADD MLOAD SWAP1 POP PUSH1 0x0 PUSH1 0x1 PUSH1 0x1 PUSH1 0xA0 SHL SUB AND DUP2 PUSH1 0x1 PUSH1 0x1 PUSH1 0xA0 SHL SUB AND EQ ISZERO PUSH2 0x12B2 JUMPI PUSH1 0x40 MLOAD PUSH3 0x461BCD PUSH1 0xE5 SHL DUP2 MSTORE PUSH1 0x20 PUSH1 0x4 DUP3 ADD MSTORE PUSH1 0x1F PUSH1 0x24 DUP3 ADD MSTORE PUSH32 0x4F776E6572733A206E6F207A65726F206164647265737320616C6C6F77656400 PUSH1 0x44 DUP3 ADD MSTORE PUSH1 0x64 ADD PUSH2 0x57F JUMP JUMPDEST PUSH1 0x1 PUSH1 0x1 PUSH1 0xA0 SHL SUB DUP2 AND PUSH1 0x0 SWAP1 DUP2 MSTORE PUSH1 0x36 PUSH1 0x20 MSTORE PUSH1 0x40 SWAP1 KECCAK256 SLOAD PUSH1 0xFF AND ISZERO PUSH2 0x131B JUMPI PUSH1 0x40 MLOAD PUSH3 0x461BCD PUSH1 0xE5 SHL DUP2 MSTORE PUSH1 0x20 PUSH1 0x4 DUP3 ADD MSTORE PUSH1 0x19 PUSH1 0x24 DUP3 ADD MSTORE PUSH32 0x4F776E6572733A2061646472657373206475706C696361746500000000000000 PUSH1 0x44 DUP3 ADD MSTORE PUSH1 0x64 ADD PUSH2 0x57F JUMP JUMPDEST PUSH1 0x35 DUP1 SLOAD PUSH1 0x1 DUP2 DUP2 ADD SWAP1 SWAP3 SSTORE PUSH32 0xCFA4BEC1D3298408BB5AFCFCD9C430549C5B31F8AA5C5848151C0A55F473C34D ADD DUP1 SLOAD PUSH1 0x1 PUSH1 0x1 PUSH1 0xA0 SHL SUB SWAP1 SWAP4 AND PUSH1 0x1 PUSH1 0x1 PUSH1 0xA0 SHL SUB NOT SWAP1 SWAP4 AND DUP4 OR SWAP1 SSTORE PUSH1 0x0 SWAP2 DUP3 MSTORE PUSH1 0x36 PUSH1 0x20 MSTORE PUSH1 0x40 SWAP1 SWAP2 KECCAK256 DUP1 SLOAD PUSH1 0xFF NOT AND SWAP1 SWAP2 OR SWAP1 SSTORE DUP1 PUSH2 0x138A DUP2 PUSH2 0x1996 JUMP JUMPDEST SWAP2 POP POP PUSH2 0x1228 JUMP JUMPDEST POP PUSH1 0x0 DUP3 MLOAD GT PUSH2 0x13DB JUMPI PUSH1 0x40 MLOAD PUSH3 0x461BCD PUSH1 0xE5 SHL DUP2 MSTORE PUSH1 0x20 PUSH1 0x4 DUP3 ADD MSTORE PUSH1 0x14 PUSH1 0x24 DUP3 ADD MSTORE PUSH20 0x13DDDB995C9CCE881B9BC81BDDDB995C881E595D PUSH1 0x62 SHL PUSH1 0x44 DUP3 ADD MSTORE PUSH1 0x64 ADD PUSH2 0x57F JUMP JUMPDEST PUSH1 0x0 DUP2 GT DUP1 ISZERO PUSH2 0x13EC JUMPI POP DUP2 MLOAD DUP2 GT ISZERO JUMPDEST PUSH2 0x145E JUMPI PUSH1 0x40 MLOAD PUSH3 0x461BCD PUSH1 0xE5 SHL DUP2 MSTORE PUSH1 0x20 PUSH1 0x4 DUP3 ADD MSTORE PUSH1 0x3F PUSH1 0x24 DUP3 ADD MSTORE PUSH32 0x4F776E6572733A20617070726F76616C732067726561746572207468616E207A PUSH1 0x44 DUP3 ADD MSTORE PUSH32 0x65726F202620657175616C206F72206C657373207468616E206F776E65727300 PUSH1 0x64 DUP3 ADD MSTORE PUSH1 0x84 ADD PUSH2 0x57F JUMP JUMPDEST PUSH1 0x34 SSTORE POP PUSH1 0x35 SLOAD PUSH1 0x33 SSTORE JUMP JUMPDEST PUSH1 0x0 SLOAD PUSH2 0x100 SWAP1 DIV PUSH1 0xFF AND PUSH2 0x1491 JUMPI PUSH1 0x40 MLOAD PUSH3 0x461BCD PUSH1 0xE5 SHL DUP2 MSTORE PUSH1 0x4 ADD PUSH2 0x57F SWAP1 PUSH2 0x18EC JUMP JUMPDEST JUMP JUMPDEST PUSH1 0x0 DUP3 PUSH1 0x1F DUP4 ADD SLT PUSH2 0x14A4 JUMPI PUSH1 0x0 DUP1 REVERT JUMPDEST DUP2 CALLDATALOAD PUSH8 0xFFFFFFFFFFFFFFFF DUP2 GT ISZERO PUSH2 0x14BE JUMPI PUSH2 0x14BE PUSH2 0x19F3 JUMP JUMPDEST PUSH2 0x14D1 PUSH1 0x1F DUP3 ADD PUSH1 0x1F NOT AND PUSH1 0x20 ADD PUSH2 0x1937 JUMP JUMPDEST DUP2 DUP2 MSTORE DUP5 PUSH1 0x20 DUP4 DUP7 ADD ADD GT ISZERO PUSH2 0x14E6 JUMPI PUSH1 0x0 DUP1 REVERT JUMPDEST DUP2 PUSH1 0x20 DUP6 ADD PUSH1 0x20 DUP4 ADD CALLDATACOPY PUSH1 0x0 SWAP2 DUP2 ADD PUSH1 0x20 ADD SWAP2 SWAP1 SWAP2 MSTORE SWAP4 SWAP3 POP POP POP JUMP JUMPDEST PUSH1 0x0 PUSH1 0x20 DUP3 DUP5 SUB SLT ISZERO PUSH2 0x1515 JUMPI PUSH1 0x0 DUP1 REVERT JUMPDEST DUP2 CALLDATALOAD PUSH2 0x1520 DUP2 PUSH2 0x1A09 JUMP JUMPDEST SWAP4 SWAP3 POP POP POP JUMP JUMPDEST PUSH1 0x0 DUP1 PUSH1 0x0 DUP1 PUSH1 0x0 PUSH1 0x80 DUP7 DUP9 SUB SLT ISZERO PUSH2 0x153F JUMPI PUSH1 0x0 DUP1 REVERT JUMPDEST DUP6 CALLDATALOAD PUSH2 0x154A DUP2 PUSH2 0x1A09 JUMP JUMPDEST SWAP5 POP PUSH1 0x20 DUP7 ADD CALLDATALOAD PUSH8 0xFFFFFFFFFFFFFFFF DUP1 DUP3 GT ISZERO PUSH2 0x1567 JUMPI PUSH1 0x0 DUP1 REVERT JUMPDEST DUP2 DUP9 ADD SWAP2 POP DUP9 PUSH1 0x1F DUP4 ADD SLT PUSH2 0x157B JUMPI PUSH1 0x0 DUP1 REVERT JUMPDEST DUP2 CALLDATALOAD DUP2 DUP2 GT ISZERO PUSH2 0x158A JUMPI PUSH1 0x0 DUP1 REVERT JUMPDEST DUP10 PUSH1 0x20 DUP3 DUP6 ADD ADD GT ISZERO PUSH2 0x159C JUMPI PUSH1 0x0 DUP1 REVERT JUMPDEST SWAP7 SWAP10 PUSH1 0x20 SWAP3 SWAP1 SWAP3 ADD SWAP9 POP SWAP6 SWAP7 PUSH1 0x40 DUP2 ADD CALLDATALOAD SWAP7 POP PUSH1 0x60 ADD CALLDATALOAD SWAP5 POP SWAP3 POP POP POP JUMP JUMPDEST PUSH1 0x0 DUP1 PUSH1 0x0 DUP1 PUSH1 0x80 DUP6 DUP8 SUB SLT ISZERO PUSH2 0x15D1 JUMPI PUSH1 0x0 DUP1 REVERT JUMPDEST DUP5 CALLDATALOAD PUSH2 0x15DC DUP2 PUSH2 0x1A09 JUMP JUMPDEST SWAP4 POP PUSH1 0x20 DUP6 ADD CALLDATALOAD PUSH2 0x15EC DUP2 PUSH2 0x1A09 JUMP JUMPDEST SWAP3 POP PUSH1 0x40 DUP6 ADD CALLDATALOAD SWAP2 POP PUSH1 0x60 DUP6 ADD CALLDATALOAD PUSH8 0xFFFFFFFFFFFFFFFF DUP2 GT ISZERO PUSH2 0x160F JUMPI PUSH1 0x0 DUP1 REVERT JUMPDEST PUSH2 0x161B DUP8 DUP3 DUP9 ADD PUSH2 0x1493 JUMP JUMPDEST SWAP2 POP POP SWAP3 SWAP6 SWAP2 SWAP5 POP SWAP3 POP JUMP JUMPDEST PUSH1 0x0 DUP1 PUSH1 0x0 DUP1 PUSH1 0x0 PUSH1 0xA0 DUP7 DUP9 SUB SLT ISZERO PUSH2 0x163F JUMPI PUSH1 0x0 DUP1 REVERT JUMPDEST DUP6 CALLDATALOAD PUSH2 0x164A DUP2 PUSH2 0x1A09 JUMP JUMPDEST SWAP5 POP PUSH1 0x20 DUP7 ADD CALLDATALOAD PUSH2 0x165A DUP2 PUSH2 0x1A09 JUMP JUMPDEST SWAP4 POP PUSH1 0x40 DUP7 ADD CALLDATALOAD SWAP3 POP PUSH1 0x60 DUP7 ADD CALLDATALOAD SWAP2 POP PUSH1 0x80 DUP7 ADD CALLDATALOAD PUSH8 0xFFFFFFFFFFFFFFFF DUP2 GT ISZERO PUSH2 0x1684 JUMPI PUSH1 0x0 DUP1 REVERT JUMPDEST PUSH2 0x1690 DUP9 DUP3 DUP10 ADD PUSH2 0x1493 JUMP JUMPDEST SWAP2 POP POP SWAP3 SWAP6 POP SWAP3 SWAP6 SWAP1 SWAP4 POP JUMP JUMPDEST PUSH1 0x0 DUP1 PUSH1 0x40 DUP4 DUP6 SUB SLT ISZERO PUSH2 0x16B0 JUMPI PUSH1 0x0 DUP1 REVERT JUMPDEST DUP3 CALLDATALOAD PUSH2 0x16BB DUP2 PUSH2 0x1A09 JUMP JUMPDEST SWAP5 PUSH1 0x20 SWAP4 SWAP1 SWAP4 ADD CALLDATALOAD SWAP4 POP POP POP JUMP JUMPDEST PUSH1 0x0 DUP1 PUSH1 0x40 DUP4 DUP6 SUB SLT ISZERO PUSH2 0x16DC JUMPI PUSH1 0x0 DUP1 REVERT JUMPDEST DUP3 CALLDATALOAD PUSH8 0xFFFFFFFFFFFFFFFF DUP1 DUP3 GT ISZERO PUSH2 0x16F4 JUMPI PUSH1 0x0 DUP1 REVERT JUMPDEST DUP2 DUP6 ADD SWAP2 POP DUP6 PUSH1 0x1F DUP4 ADD SLT PUSH2 0x1708 JUMPI PUSH1 0x0 DUP1 REVERT JUMPDEST DUP2 CALLDATALOAD PUSH1 0x20 DUP3 DUP3 GT ISZERO PUSH2 0x171C JUMPI PUSH2 0x171C PUSH2 0x19F3 JUMP JUMPDEST DUP2 PUSH1 0x5 SHL SWAP3 POP PUSH2 0x172D DUP2 DUP5 ADD PUSH2 0x1937 JUMP JUMPDEST DUP3 DUP2 MSTORE DUP2 DUP2 ADD SWAP1 DUP6 DUP4 ADD DUP6 DUP8 ADD DUP5 ADD DUP12 LT ISZERO PUSH2 0x1748 JUMPI PUSH1 0x0 DUP1 REVERT JUMPDEST PUSH1 0x0 SWAP7 POP JUMPDEST DUP5 DUP8 LT ISZERO PUSH2 0x1777 JUMPI DUP1 CALLDATALOAD SWAP6 POP PUSH2 0x1762 DUP7 PUSH2 0x1A09 JUMP JUMPDEST DUP6 DUP4 MSTORE PUSH1 0x1 SWAP7 SWAP1 SWAP7 ADD SWAP6 SWAP2 DUP4 ADD SWAP2 DUP4 ADD PUSH2 0x174D JUMP JUMPDEST POP SWAP10 SWAP8 SWAP1 SWAP2 ADD CALLDATALOAD SWAP8 POP POP POP POP POP POP POP JUMP JUMPDEST PUSH1 0x0 PUSH1 0x20 DUP3 DUP5 SUB SLT ISZERO PUSH2 0x179A JUMPI PUSH1 0x0 DUP1 REVERT JUMPDEST DUP2 CALLDATALOAD PUSH1 0x1 PUSH1 0x1 PUSH1 0xE0 SHL SUB NOT DUP2 AND DUP2 EQ PUSH2 0x1520 JUMPI PUSH1 0x0 DUP1 REVERT JUMPDEST PUSH1 0x0 PUSH1 0x20 DUP3 DUP5 SUB SLT ISZERO PUSH2 0x17C4 JUMPI PUSH1 0x0 DUP1 REVERT JUMPDEST POP CALLDATALOAD SWAP2 SWAP1 POP JUMP JUMPDEST PUSH1 0x0 PUSH1 0x20 DUP3 DUP5 SUB SLT ISZERO PUSH2 0x17DD JUMPI PUSH1 0x0 DUP1 REVERT JUMPDEST POP MLOAD SWAP2 SWAP1 POP JUMP JUMPDEST PUSH1 0x0 DUP1 PUSH1 0x40 DUP4 DUP6 SUB SLT ISZERO PUSH2 0x17F7 JUMPI PUSH1 0x0 DUP1 REVERT JUMPDEST DUP3 CALLDATALOAD SWAP2 POP PUSH1 0x20 DUP4 ADD CALLDATALOAD PUSH2 0x1809 DUP2 PUSH2 0x1A09 JUMP JUMPDEST DUP1 SWAP2 POP POP SWAP3 POP SWAP3 SWAP1 POP JUMP JUMPDEST DUP2 DUP4 DUP3 CALLDATACOPY PUSH1 0x0 SWAP2 ADD SWAP1 DUP2 MSTORE SWAP2 SWAP1 POP JUMP JUMPDEST PUSH1 0x20 DUP1 DUP3 MSTORE DUP3 MLOAD DUP3 DUP3 ADD DUP2 SWAP1 MSTORE PUSH1 0x0 SWAP2 SWAP1 DUP5 DUP3 ADD SWAP1 PUSH1 0x40 DUP6 ADD SWAP1 DUP5 JUMPDEST DUP2 DUP2 LT ISZERO PUSH2 0x1865 JUMPI DUP4 MLOAD PUSH1 0x1 PUSH1 0x1 PUSH1 0xA0 SHL SUB AND DUP4 MSTORE SWAP3 DUP5 ADD SWAP3 SWAP2 DUP5 ADD SWAP2 PUSH1 0x1 ADD PUSH2 0x1840 JUMP JUMPDEST POP SWAP1 SWAP7 SWAP6 POP POP POP POP POP POP JUMP JUMPDEST PUSH1 0x20 DUP1 DUP3 MSTORE PUSH1 0x2E SWAP1 DUP3 ADD MSTORE PUSH32 0x496E697469616C697A61626C653A20636F6E747261637420697320616C726561 PUSH1 0x40 DUP3 ADD MSTORE PUSH14 0x191E481A5B9A5D1A585B1A5E9959 PUSH1 0x92 SHL PUSH1 0x60 DUP3 ADD MSTORE PUSH1 0x80 ADD SWAP1 JUMP JUMPDEST PUSH1 0x20 DUP1 DUP3 MSTORE PUSH1 0x13 SWAP1 DUP3 ADD MSTORE PUSH19 0x4F776E6572733A206F776E657273206F6E6C79 PUSH1 0x68 SHL PUSH1 0x40 DUP3 ADD MSTORE PUSH1 0x60 ADD SWAP1 JUMP JUMPDEST PUSH1 0x20 DUP1 DUP3 MSTORE PUSH1 0x2B SWAP1 DUP3 ADD MSTORE PUSH32 0x496E697469616C697A61626C653A20636F6E7472616374206973206E6F742069 PUSH1 0x40 DUP3 ADD MSTORE PUSH11 0x6E697469616C697A696E67 PUSH1 0xA8 SHL PUSH1 0x60 DUP3 ADD MSTORE PUSH1 0x80 ADD SWAP1 JUMP JUMPDEST PUSH1 0x40 MLOAD PUSH1 0x1F DUP3 ADD PUSH1 0x1F NOT AND DUP2 ADD PUSH8 0xFFFFFFFFFFFFFFFF DUP2 GT DUP3 DUP3 LT OR ISZERO PUSH2 0x1960 JUMPI PUSH2 0x1960 PUSH2 0x19F3 JUMP JUMPDEST PUSH1 0x40 MSTORE SWAP2 SWAP1 POP JUMP JUMPDEST PUSH1 0x0 DUP3 DUP3 LT ISZERO PUSH2 0x197A JUMPI PUSH2 0x197A PUSH2 0x19B1 JUMP JUMPDEST POP SUB SWAP1 JUMP JUMPDEST PUSH1 0x0 DUP2 PUSH2 0x198E JUMPI PUSH2 0x198E PUSH2 0x19B1 JUMP JUMPDEST POP PUSH1 0x0 NOT ADD SWAP1 JUMP JUMPDEST PUSH1 0x0 PUSH1 0x0 NOT DUP3 EQ ISZERO PUSH2 0x19AA JUMPI PUSH2 0x19AA PUSH2 0x19B1 JUMP JUMPDEST POP PUSH1 0x1 ADD SWAP1 JUMP JUMPDEST PUSH4 0x4E487B71 PUSH1 0xE0 SHL PUSH1 0x0 MSTORE PUSH1 0x11 PUSH1 0x4 MSTORE PUSH1 0x24 PUSH1 0x0 REVERT JUMPDEST PUSH4 0x4E487B71 PUSH1 0xE0 SHL PUSH1 0x0 MSTORE PUSH1 0x31 PUSH1 0x4 MSTORE PUSH1 0x24 PUSH1 0x0 REVERT JUMPDEST PUSH4 0x4E487B71 PUSH1 0xE0 SHL PUSH1 0x0 MSTORE PUSH1 0x32 PUSH1 0x4 MSTORE PUSH1 0x24 PUSH1 0x0 REVERT JUMPDEST PUSH4 0x4E487B71 PUSH1 0xE0 SHL PUSH1 0x0 MSTORE PUSH1 0x41 PUSH1 0x4 MSTORE PUSH1 0x24 PUSH1 0x0 REVERT JUMPDEST PUSH1 0x1 PUSH1 0x1 PUSH1 0xA0 SHL SUB DUP2 AND DUP2 EQ PUSH2 0x1A1E JUMPI PUSH1 0x0 DUP1 REVERT JUMPDEST POP JUMP INVALID LOG2 PUSH5 0x6970667358 0x22 SLT KECCAK256 0xCD 0x26 PUSH25 0x9C16C90F19589EF627161B8D6D86208290EC1ED4F1F74DD5A8 LT PUSH19 0xC1C564736F6C63430008070033000000000000 "
        },
        "methodIdentifiers": {
          "BRCKBalance()": "838fb01d",
          "EstateTokenBalance(address)": "0109e2b9",
          "VCTExist(uint256)": "16812c3e",
          "__MrtrSafe_init(address[],uint256)": "815d7bec",
          "addOwner(address,uint256)": "3cc38f5c",
          "getMinApproval()": "987cac33",
          "getOwners()": "a0e67e2b",
          "getOwnersCount()": "73ff81cc",
          "onERC1155Received(address,address,uint256,uint256,bytes)": "f23a6e61",
          "onERC721Received(address,address,uint256,bytes)": "150b7a02",
          "ownerExists(address)": "59dbfde8",
          "removeOwner(address,uint256)": "bfd2b3a3",
          "supportsInterface(bytes4)": "01ffc9a7",
          "transfer(address,string,uint256,uint256)": "ff6aa4ea",
          "transferEstateToken(uint256,address)": "083fbd00",
          "walletAddress()": "6ad5b3ea"
        }
      },
      "storageLayout": {
        "storage": [
          {
            "astId": 1837,
            "contract": "contracts/MrtrSafe.sol:MrtrSafe",
            "label": "_initialized",
            "offset": 0,
            "slot": "0",
            "type": "t_uint8"
          },
          {
            "astId": 1840,
            "contract": "contracts/MrtrSafe.sol:MrtrSafe",
            "label": "_initializing",
            "offset": 1,
            "slot": "0",
            "type": "t_bool"
          },
          {
            "astId": 2555,
            "contract": "contracts/MrtrSafe.sol:MrtrSafe",
            "label": "__gap",
            "offset": 0,
            "slot": "1",
            "type": "t_array(t_uint256)50_storage"
          },
          {
            "astId": 1486,
            "contract": "contracts/MrtrSafe.sol:MrtrSafe",
            "label": "ownersCount",
            "offset": 0,
            "slot": "51",
            "type": "t_uint256"
          },
          {
            "astId": 1488,
            "contract": "contracts/MrtrSafe.sol:MrtrSafe",
            "label": "minApproval",
            "offset": 0,
            "slot": "52",
            "type": "t_uint256"
          },
          {
            "astId": 1491,
            "contract": "contracts/MrtrSafe.sol:MrtrSafe",
            "label": "owners",
            "offset": 0,
            "slot": "53",
            "type": "t_array(t_address)dyn_storage"
          },
          {
            "astId": 1495,
            "contract": "contracts/MrtrSafe.sol:MrtrSafe",
            "label": "isOwner",
            "offset": 0,
            "slot": "54",
            "type": "t_mapping(t_address,t_bool)"
          },
          {
            "astId": 2596,
            "contract": "contracts/MrtrSafe.sol:MrtrSafe",
            "label": "__gap",
            "offset": 0,
            "slot": "55",
            "type": "t_array(t_uint256)50_storage"
          },
          {
            "astId": 785,
            "contract": "contracts/MrtrSafe.sol:MrtrSafe",
            "label": "__gap",
            "offset": 0,
            "slot": "105",
            "type": "t_array(t_uint256)50_storage"
          },
          {
            "astId": 1202,
            "contract": "contracts/MrtrSafe.sol:MrtrSafe",
            "label": "VCT",
            "offset": 0,
            "slot": "155",
            "type": "t_contract(IERC1155Modified)883"
          },
          {
            "astId": 1205,
            "contract": "contracts/MrtrSafe.sol:MrtrSafe",
            "label": "AND",
            "offset": 0,
            "slot": "156",
            "type": "t_contract(IERC20Upgradeable)1004"
          },
          {
            "astId": 1208,
            "contract": "contracts/MrtrSafe.sol:MrtrSafe",
            "label": "EstateToken",
            "offset": 0,
            "slot": "157",
            "type": "t_contract(IERC721Upgradeable)1179"
          },
          {
            "astId": 1210,
            "contract": "contracts/MrtrSafe.sol:MrtrSafe",
            "label": "nonce",
            "offset": 0,
            "slot": "158",
            "type": "t_uint256"
          },
          {
            "astId": 1214,
            "contract": "contracts/MrtrSafe.sol:MrtrSafe",
            "label": "executed",
            "offset": 0,
            "slot": "159",
            "type": "t_mapping(t_bytes32,t_bool)"
          },
          {
            "astId": 1219,
            "contract": "contracts/MrtrSafe.sol:MrtrSafe",
            "label": "ownerWallets",
            "offset": 0,
            "slot": "160",
            "type": "t_mapping(t_address,t_array(t_address)dyn_storage)"
          }
        ],
        "types": {
          "t_address": {
            "encoding": "inplace",
            "label": "address",
            "numberOfBytes": "20"
          },
          "t_array(t_address)dyn_storage": {
            "base": "t_address",
            "encoding": "dynamic_array",
            "label": "address[]",
            "numberOfBytes": "32"
          },
          "t_array(t_uint256)50_storage": {
            "base": "t_uint256",
            "encoding": "inplace",
            "label": "uint256[50]",
            "numberOfBytes": "1600"
          },
          "t_bool": {
            "encoding": "inplace",
            "label": "bool",
            "numberOfBytes": "1"
          },
          "t_bytes32": {
            "encoding": "inplace",
            "label": "bytes32",
            "numberOfBytes": "32"
          },
          "t_contract(IERC1155Modified)883": {
            "encoding": "inplace",
            "label": "contract IERC1155Modified",
            "numberOfBytes": "20"
          },
          "t_contract(IERC20Upgradeable)1004": {
            "encoding": "inplace",
            "label": "contract IERC20Upgradeable",
            "numberOfBytes": "20"
          },
          "t_contract(IERC721Upgradeable)1179": {
            "encoding": "inplace",
            "label": "contract IERC721Upgradeable",
            "numberOfBytes": "20"
          },
          "t_mapping(t_address,t_array(t_address)dyn_storage)": {
            "encoding": "mapping",
            "key": "t_address",
            "label": "mapping(address => address[])",
            "numberOfBytes": "32",
            "value": "t_array(t_address)dyn_storage"
          },
          "t_mapping(t_address,t_bool)": {
            "encoding": "mapping",
            "key": "t_address",
            "label": "mapping(address => bool)",
            "numberOfBytes": "32",
            "value": "t_bool"
          },
          "t_mapping(t_bytes32,t_bool)": {
            "encoding": "mapping",
            "key": "t_bytes32",
            "label": "mapping(bytes32 => bool)",
            "numberOfBytes": "32",
            "value": "t_bool"
          },
          "t_uint256": {
            "encoding": "inplace",
            "label": "uint256",
            "numberOfBytes": "32"
          },
          "t_uint8": {
            "encoding": "inplace",
            "label": "uint8",
            "numberOfBytes": "1"
          }
        }
      }
    }
  }
}