{
  "_format": "hh-sol-artifact-1",
  "contractName": "Factory",
  "sourceName": "contracts/Factory.sol",
  "abi": [
    {
      "anonymous": false,
      "inputs": [
        {
          "indexed": true,
          "internalType": "address",
          "name": "safeBeacon",
          "type": "address"
        },
        {
          "indexed": true,
          "internalType": "address",
          "name": "upgrader",
          "type": "address"
        }
      ],
      "name": "FactoryInit",
      "type": "event"
    },
    {
      "anonymous": false,
      "inputs": [
        {
          "indexed": false,
          "internalType": "uint8",
          "name": "version",
          "type": "uint8"
        }
      ],
      "name": "Initialized",
      "type": "event"
    },
    {
      "anonymous": false,
      "inputs": [
        {
          "indexed": true,
          "internalType": "address",
          "name": "previousOwner",
          "type": "address"
        },
        {
          "indexed": true,
          "internalType": "address",
          "name": "newOwner",
          "type": "address"
        }
      ],
      "name": "OwnershipTransferred",
      "type": "event"
    },
    {
      "anonymous": false,
      "inputs": [
        {
          "indexed": false,
          "internalType": "address",
          "name": "account",
          "type": "address"
        }
      ],
      "name": "Paused",
      "type": "event"
    },
    {
      "anonymous": false,
      "inputs": [
        {
          "indexed": true,
          "internalType": "address",
          "name": "safeProxy",
          "type": "address"
        },
        {
          "indexed": false,
          "internalType": "uint256",
          "name": "count",
          "type": "uint256"
        }
      ],
      "name": "ProxyDeployed",
      "type": "event"
    },
    {
      "anonymous": false,
      "inputs": [
        {
          "indexed": false,
          "internalType": "address[]",
          "name": "owners",
          "type": "address[]"
        },
        {
          "indexed": false,
          "internalType": "uint256",
          "name": "minApproval",
          "type": "uint256"
        },
        {
          "indexed": true,
          "internalType": "address",
          "name": "creator",
          "type": "address"
        }
      ],
      "name": "SafeInit",
      "type": "event"
    },
    {
      "anonymous": false,
      "inputs": [
        {
          "indexed": false,
          "internalType": "address",
          "name": "account",
          "type": "address"
        }
      ],
      "name": "Unpaused",
      "type": "event"
    },
    {
      "inputs": [],
      "name": "__Factory_init",
      "outputs": [],
      "stateMutability": "nonpayable",
      "type": "function"
    },
    {
      "inputs": [],
      "name": "allSafes",
      "outputs": [
        {
          "internalType": "address[]",
          "name": "",
          "type": "address[]"
        }
      ],
      "stateMutability": "view",
      "type": "function"
    },
    {
      "inputs": [
        {
          "internalType": "address[]",
          "name": "_owners",
          "type": "address[]"
        },
        {
          "internalType": "uint256",
          "name": "_minApprovals",
          "type": "uint256"
        }
      ],
      "name": "createSafe",
      "outputs": [
        {
          "internalType": "address",
          "name": "",
          "type": "address"
        }
      ],
      "stateMutability": "nonpayable",
      "type": "function"
    },
    {
      "inputs": [
        {
          "internalType": "address",
          "name": "owner",
          "type": "address"
        }
      ],
      "name": "getOwnerSafes",
      "outputs": [
        {
          "internalType": "address[]",
          "name": "",
          "type": "address[]"
        }
      ],
      "stateMutability": "view",
      "type": "function"
    },
    {
      "inputs": [],
      "name": "getSafeBeacon",
      "outputs": [
        {
          "internalType": "address",
          "name": "",
          "type": "address"
        }
      ],
      "stateMutability": "view",
      "type": "function"
    },
    {
      "inputs": [],
      "name": "isPaused",
      "outputs": [
        {
          "internalType": "bool",
          "name": "",
          "type": "bool"
        }
      ],
      "stateMutability": "view",
      "type": "function"
    },
    {
      "inputs": [
        {
          "internalType": "address",
          "name": "manager",
          "type": "address"
        },
        {
          "internalType": "uint256",
          "name": "id",
          "type": "uint256"
        }
      ],
      "name": "managerSafeId",
      "outputs": [
        {
          "internalType": "address",
          "name": "",
          "type": "address"
        }
      ],
      "stateMutability": "view",
      "type": "function"
    },
    {
      "inputs": [
        {
          "internalType": "address",
          "name": "manager",
          "type": "address"
        }
      ],
      "name": "managerSafes",
      "outputs": [
        {
          "internalType": "address[]",
          "name": "",
          "type": "address[]"
        }
      ],
      "stateMutability": "view",
      "type": "function"
    },
    {
      "inputs": [
        {
          "internalType": "address",
          "name": "manager",
          "type": "address"
        }
      ],
      "name": "managerSafesCount",
      "outputs": [
        {
          "internalType": "uint256",
          "name": "",
          "type": "uint256"
        }
      ],
      "stateMutability": "view",
      "type": "function"
    },
    {
      "inputs": [],
      "name": "owner",
      "outputs": [
        {
          "internalType": "address",
          "name": "",
          "type": "address"
        }
      ],
      "stateMutability": "view",
      "type": "function"
    },
    {
      "inputs": [
        {
          "internalType": "address",
          "name": "owner",
          "type": "address"
        },
        {
          "internalType": "uint256",
          "name": "id",
          "type": "uint256"
        }
      ],
      "name": "ownerSafeId",
      "outputs": [
        {
          "internalType": "address",
          "name": "",
          "type": "address"
        }
      ],
      "stateMutability": "view",
      "type": "function"
    },
    {
      "inputs": [
        {
          "internalType": "address",
          "name": "owner",
          "type": "address"
        }
      ],
      "name": "ownerSafesCount",
      "outputs": [
        {
          "internalType": "uint256",
          "name": "",
          "type": "uint256"
        }
      ],
      "stateMutability": "view",
      "type": "function"
    },
    {
      "inputs": [],
      "name": "pause",
      "outputs": [],
      "stateMutability": "nonpayable",
      "type": "function"
    },
    {
      "inputs": [],
      "name": "renounceOwnership",
      "outputs": [],
      "stateMutability": "nonpayable",
      "type": "function"
    },
    {
      "inputs": [
        {
          "internalType": "uint256",
          "name": "id",
          "type": "uint256"
        }
      ],
      "name": "safeAddress",
      "outputs": [
        {
          "internalType": "address",
          "name": "",
          "type": "address"
        }
      ],
      "stateMutability": "view",
      "type": "function"
    },
    {
      "inputs": [],
      "name": "safesCount",
      "outputs": [
        {
          "internalType": "uint256",
          "name": "",
          "type": "uint256"
        }
      ],
      "stateMutability": "view",
      "type": "function"
    },
    {
      "inputs": [
        {
          "internalType": "address",
          "name": "safe",
          "type": "address"
        },
        {
          "internalType": "address",
          "name": "manager",
          "type": "address"
        }
      ],
      "name": "setManager",
      "outputs": [
        {
          "internalType": "bool",
          "name": "",
          "type": "bool"
        }
      ],
      "stateMutability": "nonpayable",
      "type": "function"
    },
    {
      "inputs": [
        {
          "internalType": "address",
          "name": "newOwner",
          "type": "address"
        }
      ],
      "name": "transferOwnership",
      "outputs": [],
      "stateMutability": "nonpayable",
      "type": "function"
    },
    {
      "inputs": [],
      "name": "unpause",
      "outputs": [],
      "stateMutability": "nonpayable",
      "type": "function"
    }
  ],
  "bytecode": "0x608060405234801561001057600080fd5b5061461d806100206000396000f3fe60806040523480156200001157600080fd5b5060043610620001395760003560e01c80638e7ffc6511620000bb578063b187bd26116200007a578063b187bd2614620002be578063dd4265fc14620002c8578063decb267c14620002d2578063f2fde38b14620002e4578063f9aa35d714620002fb57600080fd5b80638e7ffc65146200023557806392421980146200023e57806392763234146200026a578063a7391fbb1462000290578063b014371814620002a757600080fd5b80635fd075ff11620001085780635fd075ff14620001bd5780636cf9562914620001d4578063715018a6146200020f5780638456cb5914620002195780638da5cb5b146200022357600080fd5b806328c47c6d146200013e5780633115e00914620001725780633f4ba83a14620001895780635df8122f1462000195575b600080fd5b620001556200014f36600462000f8e565b62000305565b6040516001600160a01b0390911681526020015b60405180910390f35b62000155620001833660046200100e565b6200054a565b620001936200057d565b005b620001ac620001a636600462000f29565b620005b6565b604051901515815260200162000169565b62000155620001ce36600462000f61565b62000793565b62000200620001e536600462000f04565b6001600160a01b03166000908152609a602052604090205490565b60405190815260200162000169565b62000193620007dc565b6200019362000815565b6033546001600160a01b031662000155565b60985462000200565b620002006200024f36600462000f04565b6001600160a01b031660009081526099602052604090205490565b620002816200027b36600462000f04565b6200084c565b604051620001699190620010e2565b62000155620002a136600462000f61565b620008c4565b62000281620002b836600462000f04565b620008f1565b620001ac62000967565b620001936200097b565b6097546001600160a01b031662000155565b62000193620002f536600462000f04565b62000b14565b6200028162000bb3565b60006200031460655460ff1690565b156200033d5760405162461bcd60e51b8152600401620003349062001131565b60405180910390fd5b6097546040516000916001600160a01b0316906320575efb60e21b906200036d908890889088906024016200108a565b60408051601f198184030181529181526020820180516001600160e01b03166001600160e01b0319909416939093179092529051620003ac9062000ec2565b620003b992919062001046565b604051809103906000f080158015620003d6573d6000803e3d6000fd5b506098805460018101825560009182527f2237a976fa961f5921fd19f2b03c925c725d77b20ce8f790c19709c03de4d814810180546001600160a01b0319166001600160a01b0385161790559192508291905b86811015620004b457600088888381811062000449576200044962001286565b905060200201602081019062000460919062000f04565b6001600160a01b0390811660009081526099602090815260408220805460018101825590835291200180546001600160a01b0319169186169190911790555080620004ab816200125c565b91505062000429565b50816001600160a01b03167f63ba13e1272ed358e7de868cdda239ae197d3b2c38cf2034db1b0619eabef47582604051620004f191815260200190565b60405180910390a2336001600160a01b03167f0f2dba6a414ef4b7366389fe94cb230a54c4de90d36039d15c81bd77855e1a7688888860405162000538939291906200108a565b60405180910390a25095945050505050565b60006098828154811062000562576200056262001286565b6000918252602090912001546001600160a01b031692915050565b6033546001600160a01b03163314620005aa5760405162461bcd60e51b81526004016200033490620011a9565b620005b462000c17565b565b6033546000906001600160a01b03163314620005e65760405162461bcd60e51b81526004016200033490620011a9565b60655460ff16156200060c5760405162461bcd60e51b8152600401620003349062001131565b6001600160a01b038216620006645760405162461bcd60e51b815260206004820152601e60248201527f466163746f72793a206e6f6e207a65726f2061646472657373206f6e6c790000604482015260640162000334565b6040516001600160a01b0383811660248301526000919085169060440160408051601f198184030181529181526020820180516001600160e01b031663d0ebdbe760e01b17905251620006b8919062001028565b6000604051808303816000865af19150503d8060008114620006f7576040519150601f19603f3d011682016040523d82523d6000602084013e620006fc565b606091505b50509050806200074f5760405162461bcd60e51b815260206004820152601e60248201527f466163746f72793a2061737369676e206d616e61676572206661696c65640000604482015260640162000334565b6001600160a01b039283166000908152609a602090815260408220805460018101825590835291200180546001600160a01b03191694909316939093179091555090565b6001600160a01b0382166000908152609960205260408120805483908110620007c057620007c062001286565b6000918252602090912001546001600160a01b03169392505050565b6033546001600160a01b03163314620008095760405162461bcd60e51b81526004016200033490620011a9565b620005b4600062000cac565b6033546001600160a01b03163314620008425760405162461bcd60e51b81526004016200033490620011a9565b620005b462000cfe565b6001600160a01b038116600090815260996020908152604091829020805483518184028101840190945280845260609392830182828015620008b857602002820191906000526020600020905b81546001600160a01b0316815260019091019060200180831162000899575b50505050509050919050565b6001600160a01b0382166000908152609a60205260408120805483908110620007c057620007c062001286565b6001600160a01b0381166000908152609a6020908152604091829020805483518184028101840190945280845260609392830182828015620008b8576020028201919060005260206000209081546001600160a01b03168152600190910190602001808311620008995750505050509050919050565b60006200097660655460ff1690565b905090565b600062000989600162000d5a565b90508015620009a2576000805461ff0019166101001790555b620009ac62000def565b620009b662000e23565b6000604051620009c69062000ed0565b604051809103906000f080158015620009e3573d6000803e3d6000fd5b50604051620009f29062000ede565b6001600160a01b039091168152602001604051809103906000f08015801562000a1f573d6000803e3d6000fd5b5060405163f2fde38b60e01b81523360048201529091506001600160a01b0382169063f2fde38b90602401600060405180830381600087803b15801562000a6557600080fd5b505af115801562000a7a573d6000803e3d6000fd5b5050609780546001600160a01b0319166001600160a01b0385169081179091556040513393509091507fcb03dfd8c0374fe2246b0a7d3ed8a07dbbef2c07c428612c20563f297546115e90600090a350801562000b11576000805461ff0019169055604051600181527f7f26b83ff96e1f2b6a682f133852f6798a09c465da95921460cefb38474024989060200160405180910390a15b50565b6033546001600160a01b0316331462000b415760405162461bcd60e51b81526004016200033490620011a9565b6001600160a01b03811662000ba85760405162461bcd60e51b815260206004820152602660248201527f4f776e61626c653a206e6577206f776e657220697320746865207a65726f206160448201526564647265737360d01b606482015260840162000334565b62000b118162000cac565b6060609880548060200260200160405190810160405280929190818152602001828054801562000c0d57602002820191906000526020600020905b81546001600160a01b0316815260019091019060200180831162000bee575b5050505050905090565b60655460ff1662000c625760405162461bcd60e51b815260206004820152601460248201527314185d5cd8589b194e881b9bdd081c185d5cd95960621b604482015260640162000334565b6065805460ff191690557f5db9ee0a495bf2e6ff9c91a7834c1ba4fdd244a5e8aa4e537bd38aeae4b073aa335b6040516001600160a01b03909116815260200160405180910390a1565b603380546001600160a01b038381166001600160a01b0319831681179093556040519116919082907f8be0079c531659141344cd1fd0a4f28419497f9722a3daafe3b4186f6b6457e090600090a35050565b60655460ff161562000d245760405162461bcd60e51b8152600401620003349062001131565b6065805460ff191660011790557f62e78cea01bee320cd4e420270b5ea74000d11b0c9f74754ebdbfc544b05a25862000c8f3390565b60008054610100900460ff161562000da6578160ff16600114801562000d7f5750303b155b62000d9e5760405162461bcd60e51b815260040162000334906200115b565b506000919050565b60005460ff80841691161062000dd05760405162461bcd60e51b815260040162000334906200115b565b506000805460ff191660ff92909216919091179055600190565b919050565b600054610100900460ff1662000e195760405162461bcd60e51b81526004016200033490620011de565b620005b462000e57565b600054610100900460ff1662000e4d5760405162461bcd60e51b81526004016200033490620011de565b620005b462000e8c565b600054610100900460ff1662000e815760405162461bcd60e51b81526004016200033490620011de565b620005b43362000cac565b600054610100900460ff1662000eb65760405162461bcd60e51b81526004016200033490620011de565b6065805460ff19169055565b610a22806200129d83390190565b6124458062001cbf83390190565b6104e4806200410483390190565b80356001600160a01b038116811462000dea57600080fd5b60006020828403121562000f1757600080fd5b62000f228262000eec565b9392505050565b6000806040838503121562000f3d57600080fd5b62000f488362000eec565b915062000f586020840162000eec565b90509250929050565b6000806040838503121562000f7557600080fd5b62000f808362000eec565b946020939093013593505050565b60008060006040848603121562000fa457600080fd5b833567ffffffffffffffff8082111562000fbd57600080fd5b818601915086601f83011262000fd257600080fd5b81358181111562000fe257600080fd5b8760208260051b850101111562000ff857600080fd5b6020928301989097509590910135949350505050565b6000602082840312156200102157600080fd5b5035919050565b600082516200103c81846020870162001229565b9190910192915050565b60018060a01b038316815260406020820152600082518060408401526200107581606085016020870162001229565b601f01601f1916919091016060019392505050565b6040808252810183905260008460608301825b86811015620010cf576001600160a01b03620010b98462000eec565b168252602092830192909101906001016200109d565b5060209390930193909352509392505050565b6020808252825182820181905260009190848201906040850190845b81811015620011255783516001600160a01b031683529284019291840191600101620010fe565b50909695505050505050565b60208082526010908201526f14185d5cd8589b194e881c185d5cd95960821b604082015260600190565b6020808252602e908201527f496e697469616c697a61626c653a20636f6e747261637420697320616c72656160408201526d191e481a5b9a5d1a585b1a5e995960921b606082015260800190565b6020808252818101527f4f776e61626c653a2063616c6c6572206973206e6f7420746865206f776e6572604082015260600190565b6020808252602b908201527f496e697469616c697a61626c653a20636f6e7472616374206973206e6f74206960408201526a6e697469616c697a696e6760a81b606082015260800190565b60005b83811015620012465781810151838201526020016200122c565b8381111562001256576000848401525b50505050565b60006000198214156200127f57634e487b7160e01b600052601160045260246000fd5b5060010190565b634e487b7160e01b600052603260045260246000fdfe608060405260405162000a2238038062000a228339810160408190526200002691620004cc565b6200005360017fa3f0ad74e5423aebfd80d3ef4346578335a9a72aeaee59ff6cb3582b35133d51620005ed565b600080516020620009db8339815191521462000073576200007362000642565b620000818282600062000089565b50506200066e565b62000094836200016e565b6040516001600160a01b038416907f1cf3b03a6cf19fa2baba4df148e9dcabedea7f8a5c07840e207e5c089be95d3e90600090a2600082511180620000d65750805b15620001695762000167836001600160a01b0316635c60da1b6040518163ffffffff1660e01b815260040160206040518083038186803b1580156200011a57600080fd5b505afa1580156200012f573d6000803e3d6000fd5b505050506040513d601f19601f82011682018060405250810190620001559190620004ae565b836200031f60201b620000291760201c565b505b505050565b62000184816200034e60201b620000551760201c565b620001e45760405162461bcd60e51b815260206004820152602560248201527f455243313936373a206e657720626561636f6e206973206e6f74206120636f6e6044820152641d1c9858dd60da1b60648201526084015b60405180910390fd5b6200026e816001600160a01b0316635c60da1b6040518163ffffffff1660e01b815260040160206040518083038186803b1580156200022257600080fd5b505afa15801562000237573d6000803e3d6000fd5b505050506040513d601f19601f820116820180604052508101906200025d9190620004ae565b6200034e60201b620000551760201c565b620002d55760405162461bcd60e51b815260206004820152603060248201527f455243313936373a20626561636f6e20696d706c656d656e746174696f6e206960448201526f1cc81b9bdd08184818dbdb9d1c9858dd60821b6064820152608401620001db565b80620002fe600080516020620009db83398151915260001b6200035d60201b620000641760201c565b80546001600160a01b0319166001600160a01b039290921691909117905550565b6060620003478383604051806060016040528060278152602001620009fb6027913962000360565b9392505050565b6001600160a01b03163b151590565b90565b6060600080856001600160a01b0316856040516200037f91906200059a565b600060405180830381855af49150503d8060008114620003bc576040519150601f19603f3d011682016040523d82523d6000602084013e620003c1565b606091505b509092509050620003d586838387620003df565b9695505050505050565b606083156200045057825162000448576001600160a01b0385163b620004485760405162461bcd60e51b815260206004820152601d60248201527f416464726573733a2063616c6c20746f206e6f6e2d636f6e74726163740000006044820152606401620001db565b50816200045c565b6200045c838362000464565b949350505050565b815115620004755781518083602001fd5b8060405162461bcd60e51b8152600401620001db9190620005b8565b80516001600160a01b0381168114620004a957600080fd5b919050565b600060208284031215620004c157600080fd5b620003478262000491565b60008060408385031215620004e057600080fd5b620004eb8362000491565b60208401519092506001600160401b03808211156200050957600080fd5b818501915085601f8301126200051e57600080fd5b81518181111562000533576200053362000658565b604051601f8201601f19908116603f011681019083821181831017156200055e576200055e62000658565b816040528281528860208487010111156200057857600080fd5b6200058b83602083016020880162000613565b80955050505050509250929050565b60008251620005ae81846020870162000613565b9190910192915050565b6020815260008251806020840152620005d981604085016020870162000613565b601f01601f19169190910160400192915050565b6000828210156200060e57634e487b7160e01b600052601160045260246000fd5b500390565b60005b838110156200063057818101518382015260200162000616565b83811115620001675750506000910152565b634e487b7160e01b600052600160045260246000fd5b634e487b7160e01b600052604160045260246000fd5b61035d806200067e6000396000f3fe60806040523661001357610011610017565b005b6100115b610027610022610067565b61010f565b565b606061004e838360405180606001604052806027815260200161030160279139610133565b9392505050565b6001600160a01b03163b151590565b90565b600061009a7fa3f0ad74e5423aebfd80d3ef4346578335a9a72aeaee59ff6cb3582b35133d50546001600160a01b031690565b6001600160a01b0316635c60da1b6040518163ffffffff1660e01b815260040160206040518083038186803b1580156100d257600080fd5b505afa1580156100e6573d6000803e3d6000fd5b505050506040513d601f19601f8201168201806040525081019061010a9190610258565b905090565b3660008037600080366000845af43d6000803e80801561012e573d6000f35b3d6000fd5b6060600080856001600160a01b0316856040516101509190610281565b600060405180830381855af49150503d806000811461018b576040519150601f19603f3d011682016040523d82523d6000602084013e610190565b606091505b50915091506101a1868383876101ab565b9695505050505050565b6060831561021c578251610215576001600160a01b0385163b6102155760405162461bcd60e51b815260206004820152601d60248201527f416464726573733a2063616c6c20746f206e6f6e2d636f6e747261637400000060448201526064015b60405180910390fd5b5081610226565b610226838361022e565b949350505050565b81511561023e5781518083602001fd5b8060405162461bcd60e51b815260040161020c919061029d565b60006020828403121561026a57600080fd5b81516001600160a01b038116811461004e57600080fd5b600082516102938184602087016102d0565b9190910192915050565b60208152600082518060208401526102bc8160408501602087016102d0565b601f01601f19169190910160400192915050565b60005b838110156102eb5781810151838201526020016102d3565b838111156102fa576000848401525b5050505056fe416464726573733a206c6f772d6c6576656c2064656c65676174652063616c6c206661696c6564a2646970667358221220936823849e6313d7527f7eb0455e14016d78397fd4966a5d2eb358706d66eab664736f6c63430008070033a3f0ad74e5423aebfd80d3ef4346578335a9a72aeaee59ff6cb3582b35133d50416464726573733a206c6f772d6c6576656c2064656c65676174652063616c6c206661696c6564608060405234801561001057600080fd5b50612425806100206000396000f3fe60806040526004361061012e5760003560e01c806396e58bd4116100ab578063b9209e331161006f578063b9209e33146103a0578063bfd2b3a3146103c0578063d0ebdbe7146103e0578063d9b376e914610400578063f23a6e6114610420578063fff3a01b1461044c57600080fd5b806396e58bd414610309578063987cac3314610329578063a0e67e2b1461033e578063abff168514610360578063b20573b41461038057600080fd5b8063481c6a75116100f2578063481c6a751461025d57806359dbfde81461029557806373ff81cc146102ce578063815d7bec146102e3578063838fb01d146102f657600080fd5b806301ffc9a7146101745780630c513541146101a9578063150b7a02146101d757806333189d8f1461021b5780633cc38f5c1461023d57600080fd5b3661016f576040805134815247602082015233917f363f315f930a17d1266b86a20d6dd34b1cfbc5a9db9f13a65d06a689c3a2af8a910160405180910390a2005b600080fd5b34801561018057600080fd5b5061019461018f36600461207d565b61046c565b60405190151581526020015b60405180910390f35b3480156101b557600080fd5b506101c96101c4366004611cee565b6104a3565b6040519081526020016101a0565b3480156101e357600080fd5b506102026101f2366004611e10565b630a85bd0160e11b949350505050565b6040516001600160e01b031990911681526020016101a0565b34801561022757600080fd5b5061023b610236366004611cee565b610531565b005b34801561024957600080fd5b5061023b610258366004611f70565b61069a565b34801561026957600080fd5b50609f5461027d906001600160a01b031681565b6040516001600160a01b0390911681526020016101a0565b3480156102a157600080fd5b506101946102b0366004611cee565b6001600160a01b031660009081526036602052604090205460ff1690565b3480156102da57600080fd5b506033546101c9565b61023b6102f1366004611f9c565b61089c565b34801561030257600080fd5b50476101c9565b34801561031557600080fd5b5061023b610324366004611dcf565b6109c3565b34801561033557600080fd5b506034546101c9565b34801561034a57600080fd5b50610353610a39565b6040516101a09190612163565b34801561036c57600080fd5b5061023b61037b366004611dcf565b610a9b565b34801561038c57600080fd5b5061023b61039b366004611ef2565b610b7b565b3480156103ac57600080fd5b506101946103bb366004611cee565b610f41565b3480156103cc57600080fd5b5061023b6103db366004611f70565b610fcf565b3480156103ec57600080fd5b5061023b6103fb366004611cee565b61127e565b34801561040c57600080fd5b506101c961041b366004611d96565b6112fa565b34801561042c57600080fd5b5061020261043b366004611e7c565b63f23a6e6160e01b95945050505050565b34801561045857600080fd5b5061023b610467366004611d0b565b61137e565b60006001600160e01b0319821663f23a6e6160e01b148061049d57506301ffc9a760e01b6001600160e01b03198316145b92915050565b6040516357b29b1b60e11b81526001600160a01b0382166004820152600090735e17b14add6c386305a32928f985b29bba34eff59063af6536369060240160206040518083038186803b1580156104f957600080fd5b505afa15801561050d573d6000803e3d6000fd5b505050506040513d601f19601f8201168201806040525081019061049d919061211e565b609f546001600160a01b031633146105855760405162461bcd60e51b815260206004820152601260248201527129b0b3329d1037b7363c9036b0b730b3b2b960711b60448201526064015b60405180910390fd5b6001600160a01b0381163b151580156105a657506001600160a01b03811615155b6106085760405162461bcd60e51b815260206004820152602d60248201527f536166653a207472616e7366657220746f20636f6e74726163742026206e6f6e60448201526c207a65726f206164647265737360981b606482015260840161057c565b604051637921219560e11b81523060048201526001600160a01b0382166024820152600160448201819052606482015260a06084820152600060a4820152735e17b14add6c386305a32928f985b29bba34eff59063f242432a9060c401600060405180830381600087803b15801561067f57600080fd5b505af1158015610693573d6000803e3d6000fd5b5050505050565b60005b60335481101561070c57336001600160a01b0316603582815481106106c4576106c46123ab565b6000918252602090912001546001600160a01b031614156106fa57336000908152603660205260409020805460ff191660011790555b8061070481612364565b91505061069d565b503360009081526036602052604090205460ff1615156001146107415760405162461bcd60e51b815260040161057c906121fe565b6001600160a01b03821660009081526036602052604090205460ff1615801561077257506001600160a01b03821615155b6107ca5760405162461bcd60e51b8152602060048201526024808201527f4f776e6572733a206f776e657220657869737473206f72207a65726f206164646044820152637265737360e01b606482015260840161057c565b6035805460018101825560009182527fcfa4bec1d3298408bb5afcfcd9c430549c5b31f8aa5c5848151c0a55f473c34d0180546001600160a01b0319166001600160a01b038516179055603380549161082283612364565b90915550506001600160a01b0382166000908152603660205260409020805460ff19166001179055603454811461085c5761085c8161165f565b6040516001600160a01b03831681527f994a936646fe87ffe4f1e469d3d6aa417d6b855598397f323de5b449f765f0c39060200160405180910390a15050565b60006108a8600161171f565b905080156108c0576000805461ff0019166101001790555b6108ca83836117a7565b610911604051806040016040528060088152602001674d7274725361666560c01b815250604051806040016040528060058152602001640312e302e360dc1b815250611a13565b610919611a48565b610921611a48565b609e80546001600160a01b031916339081179091556109775760405162461bcd60e51b8152602060048201526012602482015271536166653a2061646472657373207a65726f60701b604482015260640161057c565b80156109be576000805461ff0019169055604051600181527f7f26b83ff96e1f2b6a682f133852f6798a09c465da95921460cefb3847402498906020015b60405180910390a15b505050565b6109cb611a71565b50604051632142170760e11b81523060048201526001600160a01b038381166024830152604482018390528416906342842e0e90606401600060405180830381600087803b158015610a1c57600080fd5b505af1158015610a30573d6000803e3d6000fd5b50505050505050565b60606035805480602002602001604051908101604052809291908181526020018280548015610a9157602002820191906000526020600020905b81546001600160a01b03168152600190910190602001808311610a73575b5050505050905090565b610aa3611a71565b50609f546001600160a01b03163314610af35760405162461bcd60e51b815260206004820152601260248201527129b0b3329d1037b7363c9036b0b730b3b2b960711b604482015260640161057c565b60405163a9059cbb60e01b81526001600160a01b0383811660048301526024820183905284169063a9059cbb90604401602060405180830381600087803b158015610b3d57600080fd5b505af1158015610b51573d6000803e3d6000fd5b505050506040513d601f19601f82011682018060405250810190610b75919061205b565b50505050565b610b83611a71565b50609f546001600160a01b0316331480610bac57503360009081526036602052604090205460ff165b610bf85760405162461bcd60e51b815260206004820152601760248201527f536166653a20756e617574686f72697a65642075736572000000000000000000604482015260640161057c565b6001600160a01b0384163b610c4f5760405162461bcd60e51b815260206004820181905260248201527f536166653a2061737365742061646472657373206e6f7420636f6e7472616374604482015260640161057c565b6001600160a01b038416735e17b14add6c386305a32928f985b29bba34eff514801590610c9957506001600160a01b03841673d9145cce52d386f254917e481eb44e9943f3913814155b610ce55760405162461bcd60e51b815260206004820152601a60248201527f536166653a20564354202620414e4420617265206c6973746564000000000000604482015260640161057c565b8015610b755781604051602001610cfc9190612147565b60408051601f19818403018152908290528051602090910120622b600360e21b825260048201839052906001600160a01b0386169062ad800c9060240160006040518083038186803b158015610d5157600080fd5b505afa158015610d65573d6000803e3d6000fd5b505050506040513d6000823e601f3d908101601f19168201604052610d8d91908101906120a7565b604051602001610d9d9190612147565b6040516020818303038152906040528051906020012014610dbd57600080fd5b82604051602001610dce9190612147565b60408051601f19818403018152908290528051602090910120634e41a1fb60e01b825260048201839052906001600160a01b03861690634e41a1fb9060240160006040518083038186803b158015610e2557600080fd5b505afa158015610e39573d6000803e3d6000fd5b505050506040513d6000823e601f3d908101601f19168201604052610e6191908101906120a7565b604051602001610e719190612147565b6040516020818303038152906040528051906020012014610e9157600080fd5b6040518060800160405280856001600160a01b031681526020018481526020018381526020018281525060a284604051610ecb9190612147565b90815260405160209181900382019020825181546001600160a01b0319166001600160a01b039091161781558282015180519192610f1192600185019290910190611bff565b5060408201518051610f2d916002840191602090910190611bff565b506060820151816003015590505050505050565b60405163b9209e3360e01b81526001600160a01b0382166004820152600090735e17b14add6c386305a32928f985b29bba34eff59063b9209e339060240160206040518083038186803b158015610f9757600080fd5b505afa158015610fab573d6000803e3d6000fd5b505050506040513d601f19601f8201168201806040525081019061049d919061205b565b60005b60335481101561104157336001600160a01b031660358281548110610ff957610ff96123ab565b6000918252602090912001546001600160a01b0316141561102f57336000908152603660205260409020805460ff191660011790555b8061103981612364565b915050610fd2565b503360009081526036602052604090205460ff1615156001146110765760405162461bcd60e51b815260040161057c906121fe565b6001600160a01b03821660009081526036602052604090205460ff16151560011480156110ab57506001600160a01b03821615155b61110d5760405162461bcd60e51b815260206004820152602d60248201527f4f776e6572733a206f776e65722020646f6573206e6f74206578697374206f7260448201526c207a65726f206164647265737360981b606482015260840161057c565b6000600160335461111e91906122cf565b9050808211611205576035818154811061113a5761113a6123ab565b600091825260209091200154603580546001600160a01b039092169450908061116557611165612395565b60008281526020808220830160001990810180546001600160a01b03191690559092019092556001600160a01b03851682526036905260408120805460ff1916905560338054916111b583612312565b919050555081603454146111cc576111cc8261165f565b6040516001600160a01b03841681527f58619076adf5bb0943d100ef88d52d7c3fd691b19d3a9071b555b651fbf418da906020016109b5565b60405162461bcd60e51b815260206004820152604260248201527f4f776e6572733a206d696e20617070726f76616c2068617320746f206265206560448201527f7175616c206f72206c657373207468616e206e6577206f776e65727320636f756064820152611b9d60f21b608482015260a40161057c565b609e546001600160a01b031633146112d85760405162461bcd60e51b815260206004820152601960248201527f536166653a20756e617574686f72697a65642073656e64657200000000000000604482015260640161057c565b609f80546001600160a01b0319166001600160a01b0392909216919091179055565b6040516370a0823160e01b81526001600160a01b038281166004830152600091908416906370a082319060240160206040518083038186803b15801561133f57600080fd5b505afa158015611353573d6000803e3d6000fd5b505050506040513d601f19601f82011682018060405250810190611377919061211e565b9392505050565b60005b6033548110156113f057336001600160a01b0316603582815481106113a8576113a86123ab565b6000918252602090912001546001600160a01b031614156113de57336000908152603660205260409020805460ff191660011790555b806113e881612364565b915050611381565b503360009081526036602052604090205460ff1615156001146114255760405162461bcd60e51b815260040161057c906121fe565b61142d611a71565b506001600160a01b0384161580159061144f57506001600160a01b0384163014155b6114b15760405162461bcd60e51b815260206004820152602d60248201527f736166653a206e6f6e207a65726f20616464726573732026206f7574206f662060448201526c7468652073616665206f6e6c7960981b606482015260840161057c565b60408051808201825260048152634252434b60e01b602090910152517fdbc2612804e5df54a662169e29f93beaf7fe79a23031577517a5660e86a7cb94906114fc9085908590612137565b6040518091039020141561156f578047101561156a5760405162461bcd60e51b815260206004820152602760248201527f536166653a206578636565647320617661696c61626c6520427269636b27732060448201526662616c616e636560c81b606482015260840161057c565b6115bc565b604080518082018252600381526210539160ea1b602090910152517f2feb63c2c262895ab5f671b924f903b32e1fe8c0f0f62ccab07f3905d3b00a32906115b99085908590612137565b50505b6000846001600160a01b03168260405160006040518083038185875af1925050503d8060008114611609576040519150601f19603f3d011682016040523d82523d6000602084013e61160e565b606091505b50509050806106935760405162461bcd60e51b815260206004820152601b60248201527f536166653a207472616e7366657220627269636b206661696c65640000000000604482015260640161057c565b6001811015801561167257506033548111155b6116e45760405162461bcd60e51b815260206004820152603e60248201527f4f776e6572733a20617070726f76616c732067726561746572207468616e206f60448201527f6e65202620657175616c206f72206c657373207468616e206f776e6572730000606482015260840161057c565b60348190556040518181527f8b2f7e347ebed013f88116ca40fb660c59fbb84ed5fb90b8bb3bdf214b4ab8b89060200160405180910390a150565b60008054610100900460ff1615611766578160ff1660011480156117425750303b155b61175e5760405162461bcd60e51b815260040161057c906121b0565b506000919050565b60005460ff80841691161061178d5760405162461bcd60e51b815260040161057c906121b0565b506000805460ff191660ff92909216919091179055600190565b600054610100900460ff166117ce5760405162461bcd60e51b815260040161057c9061222b565b60005b825181101561193b5760008382815181106117ee576117ee6123ab565b6020026020010151905060006001600160a01b0316816001600160a01b0316141561185b5760405162461bcd60e51b815260206004820152601f60248201527f4f776e6572733a206e6f207a65726f206164647265737320616c6c6f77656400604482015260640161057c565b6001600160a01b03811660009081526036602052604090205460ff16156118c45760405162461bcd60e51b815260206004820152601960248201527f4f776e6572733a2061646472657373206475706c696361746500000000000000604482015260640161057c565b6035805460018181019092557fcfa4bec1d3298408bb5afcfcd9c430549c5b31f8aa5c5848151c0a55f473c34d0180546001600160a01b039093166001600160a01b031990931683179055600091825260366020526040909120805460ff191690911790558061193381612364565b9150506117d1565b5060008251116119845760405162461bcd60e51b815260206004820152601460248201527313dddb995c9cce881b9bc81bdddb995c881e595d60621b604482015260640161057c565b600081118015611995575081518111155b611a075760405162461bcd60e51b815260206004820152603f60248201527f4f776e6572733a20617070726f76616c732067726561746572207468616e207a60448201527f65726f202620657175616c206f72206c657373207468616e206f776e65727300606482015260840161057c565b60345550603554603355565b600054610100900460ff16611a3a5760405162461bcd60e51b815260040161057c9061222b565b611a448282611bbe565b5050565b600054610100900460ff16611a6f5760405162461bcd60e51b815260040161057c9061222b565b565b609e54604080516358c3de9360e11b815290516000926001600160a01b03169163b187bd26916004808301926020929190829003018186803b158015611ab657600080fd5b505afa158015611aca573d6000803e3d6000fd5b505050506040513d601f19601f82011682018060405250810190611aee919061205b565b15611b335760405162461bcd60e51b815260206004820152601560248201527414d859994e8818dbdb9d1c9858dd081c185d5cd959605a1b604482015260640161057c565b609e60009054906101000a90046001600160a01b03166001600160a01b031663b187bd266040518163ffffffff1660e01b815260040160206040518083038186803b158015611b8157600080fd5b505afa158015611b95573d6000803e3d6000fd5b505050506040513d601f19601f82011682018060405250810190611bb9919061205b565b905090565b600054610100900460ff16611be55760405162461bcd60e51b815260040161057c9061222b565b815160209283012081519190920120603791909155603855565b828054611c0b90612329565b90600052602060002090601f016020900481019282611c2d5760008555611c73565b82601f10611c4657805160ff1916838001178555611c73565b82800160010185558215611c73579182015b82811115611c73578251825591602001919060010190611c58565b50611c7f929150611c83565b5090565b5b80821115611c7f5760008155600101611c84565b600082601f830112611ca957600080fd5b8135611cbc611cb7826122a7565b612276565b818152846020838601011115611cd157600080fd5b816020850160208301376000918101602001919091529392505050565b600060208284031215611d0057600080fd5b8135611377816123d7565b60008060008060608587031215611d2157600080fd5b8435611d2c816123d7565b9350602085013567ffffffffffffffff80821115611d4957600080fd5b818701915087601f830112611d5d57600080fd5b813581811115611d6c57600080fd5b886020828501011115611d7e57600080fd5b95986020929092019750949560400135945092505050565b60008060408385031215611da957600080fd5b8235611db4816123d7565b91506020830135611dc4816123d7565b809150509250929050565b600080600060608486031215611de457600080fd5b8335611def816123d7565b92506020840135611dff816123d7565b929592945050506040919091013590565b60008060008060808587031215611e2657600080fd5b8435611e31816123d7565b93506020850135611e41816123d7565b925060408501359150606085013567ffffffffffffffff811115611e6457600080fd5b611e7087828801611c98565b91505092959194509250565b600080600080600060a08688031215611e9457600080fd5b8535611e9f816123d7565b94506020860135611eaf816123d7565b93506040860135925060608601359150608086013567ffffffffffffffff811115611ed957600080fd5b611ee588828901611c98565b9150509295509295909350565b60008060008060808587031215611f0857600080fd5b8435611f13816123d7565b9350602085013567ffffffffffffffff80821115611f3057600080fd5b611f3c88838901611c98565b94506040870135915080821115611f5257600080fd5b50611f5f87828801611c98565b949793965093946060013593505050565b60008060408385031215611f8357600080fd5b8235611f8e816123d7565b946020939093013593505050565b60008060408385031215611faf57600080fd5b823567ffffffffffffffff80821115611fc757600080fd5b818501915085601f830112611fdb57600080fd5b8135602082821115611fef57611fef6123c1565b8160051b9250612000818401612276565b8281528181019085830185870184018b101561201b57600080fd5b600096505b8487101561204a5780359550612035866123d7565b85835260019690960195918301918301612020565b509997909101359750505050505050565b60006020828403121561206d57600080fd5b8151801515811461137757600080fd5b60006020828403121561208f57600080fd5b81356001600160e01b03198116811461137757600080fd5b6000602082840312156120b957600080fd5b815167ffffffffffffffff8111156120d057600080fd5b8201601f810184136120e157600080fd5b80516120ef611cb7826122a7565b81815285602083850101111561210457600080fd5b6121158260208301602086016122e6565b95945050505050565b60006020828403121561213057600080fd5b5051919050565b8183823760009101908152919050565b600082516121598184602087016122e6565b9190910192915050565b6020808252825182820181905260009190848201906040850190845b818110156121a45783516001600160a01b03168352928401929184019160010161217f565b50909695505050505050565b6020808252602e908201527f496e697469616c697a61626c653a20636f6e747261637420697320616c72656160408201526d191e481a5b9a5d1a585b1a5e995960921b606082015260800190565b6020808252601390820152724f776e6572733a206f776e657273206f6e6c7960681b604082015260600190565b6020808252602b908201527f496e697469616c697a61626c653a20636f6e7472616374206973206e6f74206960408201526a6e697469616c697a696e6760a81b606082015260800190565b604051601f8201601f1916810167ffffffffffffffff8111828210171561229f5761229f6123c1565b604052919050565b600067ffffffffffffffff8211156122c1576122c16123c1565b50601f01601f191660200190565b6000828210156122e1576122e161237f565b500390565b60005b838110156123015781810151838201526020016122e9565b83811115610b755750506000910152565b6000816123215761232161237f565b506000190190565b600181811c9082168061233d57607f821691505b6020821081141561235e57634e487b7160e01b600052602260045260246000fd5b50919050565b60006000198214156123785761237861237f565b5060010190565b634e487b7160e01b600052601160045260246000fd5b634e487b7160e01b600052603160045260246000fd5b634e487b7160e01b600052603260045260246000fd5b634e487b7160e01b600052604160045260246000fd5b6001600160a01b03811681146123ec57600080fd5b5056fea2646970667358221220d123aa30d81f41da81db7ec70656ecffa2df8b6bef395bc7690c2629525371a464736f6c63430008070033608060405234801561001057600080fd5b506040516104e43803806104e483398101604081905261002f91610151565b61003833610047565b61004181610097565b50610181565b600080546001600160a01b038381166001600160a01b0319831681178455604051919092169283917f8be0079c531659141344cd1fd0a4f28419497f9722a3daafe3b4186f6b6457e09190a35050565b6100aa8161014260201b6101a01760201c565b6101205760405162461bcd60e51b815260206004820152603360248201527f5570677261646561626c65426561636f6e3a20696d706c656d656e746174696f60448201527f6e206973206e6f74206120636f6e747261637400000000000000000000000000606482015260840160405180910390fd5b600180546001600160a01b0319166001600160a01b0392909216919091179055565b6001600160a01b03163b151590565b60006020828403121561016357600080fd5b81516001600160a01b038116811461017a57600080fd5b9392505050565b610354806101906000396000f3fe608060405234801561001057600080fd5b50600436106100575760003560e01c80633659cfe61461005c5780635c60da1b14610071578063715018a61461009a5780638da5cb5b146100a2578063f2fde38b146100b3575b600080fd5b61006f61006a3660046102ee565b6100c6565b005b6001546001600160a01b03165b6040516001600160a01b03909116815260200160405180910390f35b61006f61010e565b6000546001600160a01b031661007e565b61006f6100c13660046102ee565b610122565b6100ce6101af565b6100d781610209565b6040516001600160a01b038216907fbc7cd75a20ee27fd9adebab32041f755214dbc6bffa90cc0225b39da2e5c2d3b90600090a250565b6101166101af565b610120600061029e565b565b61012a6101af565b6001600160a01b0381166101945760405162461bcd60e51b815260206004820152602660248201527f4f776e61626c653a206e6577206f776e657220697320746865207a65726f206160448201526564647265737360d01b60648201526084015b60405180910390fd5b61019d8161029e565b50565b6001600160a01b03163b151590565b6000546001600160a01b031633146101205760405162461bcd60e51b815260206004820181905260248201527f4f776e61626c653a2063616c6c6572206973206e6f7420746865206f776e6572604482015260640161018b565b6001600160a01b0381163b61027c5760405162461bcd60e51b815260206004820152603360248201527f5570677261646561626c65426561636f6e3a20696d706c656d656e746174696f6044820152721b881a5cc81b9bdd08184818dbdb9d1c9858dd606a1b606482015260840161018b565b600180546001600160a01b0319166001600160a01b0392909216919091179055565b600080546001600160a01b038381166001600160a01b0319831681178455604051919092169283917f8be0079c531659141344cd1fd0a4f28419497f9722a3daafe3b4186f6b6457e09190a35050565b60006020828403121561030057600080fd5b81356001600160a01b038116811461031757600080fd5b939250505056fea26469706673582212205b6340f7df24548117dd8a7fd624fd1ddc1a42b52f5c5374992bd371090dcf3664736f6c63430008070033a264697066735822122033687952dd93fa26bd911dd7adde57c580727b7334ee94322645cb0add87f21464736f6c63430008070033",
  "linkReferences": {},
  "deployedLinkReferences": {}
}