{
  "_format": "hh-sol-artifact-1",
  "contractName": "Factory",
  "sourceName": "contracts/Factory.sol",
  "abi": [
    {
      "anonymous": false,
      "inputs": [
        {
          "indexed": true,
          "internalType": "address",
          "name": "safeBeacon",
          "type": "address"
        },
        {
          "indexed": true,
          "internalType": "address",
          "name": "upgrader",
          "type": "address"
        }
      ],
      "name": "FactoryInit",
      "type": "event"
    },
    {
      "anonymous": false,
      "inputs": [
        {
          "indexed": false,
          "internalType": "uint8",
          "name": "version",
          "type": "uint8"
        }
      ],
      "name": "Initialized",
      "type": "event"
    },
    {
      "anonymous": false,
      "inputs": [
        {
          "indexed": true,
          "internalType": "address",
          "name": "previousOwner",
          "type": "address"
        },
        {
          "indexed": true,
          "internalType": "address",
          "name": "newOwner",
          "type": "address"
        }
      ],
      "name": "OwnershipTransferred",
      "type": "event"
    },
    {
      "anonymous": false,
      "inputs": [
        {
          "indexed": false,
          "internalType": "address",
          "name": "account",
          "type": "address"
        }
      ],
      "name": "Paused",
      "type": "event"
    },
    {
      "anonymous": false,
      "inputs": [
        {
          "indexed": true,
          "internalType": "address",
          "name": "safeProxy",
          "type": "address"
        },
        {
          "indexed": false,
          "internalType": "uint256",
          "name": "count",
          "type": "uint256"
        }
      ],
      "name": "ProxyDeployed",
      "type": "event"
    },
    {
      "anonymous": false,
      "inputs": [
        {
          "indexed": false,
          "internalType": "address[]",
          "name": "owners",
          "type": "address[]"
        },
        {
          "indexed": false,
          "internalType": "uint256",
          "name": "minApproval",
          "type": "uint256"
        },
        {
          "indexed": true,
          "internalType": "address",
          "name": "creator",
          "type": "address"
        }
      ],
      "name": "SafeInit",
      "type": "event"
    },
    {
      "anonymous": false,
      "inputs": [
        {
          "indexed": false,
          "internalType": "address",
          "name": "account",
          "type": "address"
        }
      ],
      "name": "Unpaused",
      "type": "event"
    },
    {
      "inputs": [],
      "name": "__Factory_init",
      "outputs": [],
      "stateMutability": "nonpayable",
      "type": "function"
    },
    {
      "inputs": [],
      "name": "allSafes",
      "outputs": [
        {
          "internalType": "address[]",
          "name": "",
          "type": "address[]"
        }
      ],
      "stateMutability": "view",
      "type": "function"
    },
    {
      "inputs": [
        {
          "internalType": "address[]",
          "name": "_owners",
          "type": "address[]"
        },
        {
          "internalType": "uint256",
          "name": "_minApprovals",
          "type": "uint256"
        }
      ],
      "name": "createSafe",
      "outputs": [
        {
          "internalType": "address",
          "name": "",
          "type": "address"
        }
      ],
      "stateMutability": "nonpayable",
      "type": "function"
    },
    {
      "inputs": [
        {
          "internalType": "address",
          "name": "owner",
          "type": "address"
        }
      ],
      "name": "getOwnerSafes",
      "outputs": [
        {
          "internalType": "address[]",
          "name": "",
          "type": "address[]"
        }
      ],
      "stateMutability": "view",
      "type": "function"
    },
    {
      "inputs": [],
      "name": "getSafeBeacon",
      "outputs": [
        {
          "internalType": "address",
          "name": "",
          "type": "address"
        }
      ],
      "stateMutability": "view",
      "type": "function"
    },
    {
      "inputs": [],
      "name": "isPaused",
      "outputs": [
        {
          "internalType": "bool",
          "name": "",
          "type": "bool"
        }
      ],
      "stateMutability": "view",
      "type": "function"
    },
    {
      "inputs": [
        {
          "internalType": "address",
          "name": "manager",
          "type": "address"
        },
        {
          "internalType": "uint256",
          "name": "id",
          "type": "uint256"
        }
      ],
      "name": "managerSafeId",
      "outputs": [
        {
          "internalType": "address",
          "name": "",
          "type": "address"
        }
      ],
      "stateMutability": "view",
      "type": "function"
    },
    {
      "inputs": [
        {
          "internalType": "address",
          "name": "manager",
          "type": "address"
        }
      ],
      "name": "managerSafes",
      "outputs": [
        {
          "internalType": "address[]",
          "name": "",
          "type": "address[]"
        }
      ],
      "stateMutability": "view",
      "type": "function"
    },
    {
      "inputs": [
        {
          "internalType": "address",
          "name": "manager",
          "type": "address"
        }
      ],
      "name": "managerSafesCount",
      "outputs": [
        {
          "internalType": "uint256",
          "name": "",
          "type": "uint256"
        }
      ],
      "stateMutability": "view",
      "type": "function"
    },
    {
      "inputs": [],
      "name": "owner",
      "outputs": [
        {
          "internalType": "address",
          "name": "",
          "type": "address"
        }
      ],
      "stateMutability": "view",
      "type": "function"
    },
    {
      "inputs": [
        {
          "internalType": "address",
          "name": "owner",
          "type": "address"
        },
        {
          "internalType": "uint256",
          "name": "id",
          "type": "uint256"
        }
      ],
      "name": "ownerSafeId",
      "outputs": [
        {
          "internalType": "address",
          "name": "",
          "type": "address"
        }
      ],
      "stateMutability": "view",
      "type": "function"
    },
    {
      "inputs": [
        {
          "internalType": "address",
          "name": "owner",
          "type": "address"
        }
      ],
      "name": "ownerSafesCount",
      "outputs": [
        {
          "internalType": "uint256",
          "name": "",
          "type": "uint256"
        }
      ],
      "stateMutability": "view",
      "type": "function"
    },
    {
      "inputs": [],
      "name": "pause",
      "outputs": [],
      "stateMutability": "nonpayable",
      "type": "function"
    },
    {
      "inputs": [],
      "name": "renounceOwnership",
      "outputs": [],
      "stateMutability": "nonpayable",
      "type": "function"
    },
    {
      "inputs": [
        {
          "internalType": "uint256",
          "name": "id",
          "type": "uint256"
        }
      ],
      "name": "safeAddress",
      "outputs": [
        {
          "internalType": "address",
          "name": "",
          "type": "address"
        }
      ],
      "stateMutability": "view",
      "type": "function"
    },
    {
      "inputs": [],
      "name": "safesCount",
      "outputs": [
        {
          "internalType": "uint256",
          "name": "",
          "type": "uint256"
        }
      ],
      "stateMutability": "view",
      "type": "function"
    },
    {
      "inputs": [
        {
          "internalType": "address",
          "name": "safe",
          "type": "address"
        },
        {
          "internalType": "address",
          "name": "manager",
          "type": "address"
        }
      ],
      "name": "setManager",
      "outputs": [
        {
          "internalType": "bool",
          "name": "",
          "type": "bool"
        }
      ],
      "stateMutability": "nonpayable",
      "type": "function"
    },
    {
      "inputs": [
        {
          "internalType": "address",
          "name": "newOwner",
          "type": "address"
        }
      ],
      "name": "transferOwnership",
      "outputs": [],
      "stateMutability": "nonpayable",
      "type": "function"
    },
    {
      "inputs": [],
      "name": "unpause",
      "outputs": [],
      "stateMutability": "nonpayable",
      "type": "function"
    }
  ],
  "bytecode": "0x608060405234801561001057600080fd5b5061570b806100206000396000f3fe60806040523480156200001157600080fd5b5060043610620001395760003560e01c80638e7ffc6511620000bb578063b187bd26116200007a578063b187bd2614620002be578063dd4265fc14620002c8578063decb267c14620002d2578063f2fde38b14620002e4578063f9aa35d714620002fb57600080fd5b80638e7ffc65146200023557806392421980146200023e57806392763234146200026a578063a7391fbb1462000290578063b014371814620002a757600080fd5b80635fd075ff11620001085780635fd075ff14620001bd5780636cf9562914620001d4578063715018a6146200020f5780638456cb5914620002195780638da5cb5b146200022357600080fd5b806328c47c6d146200013e5780633115e00914620001725780633f4ba83a14620001895780635df8122f1462000195575b600080fd5b620001556200014f36600462000f8e565b62000305565b6040516001600160a01b0390911681526020015b60405180910390f35b62000155620001833660046200100e565b6200054a565b620001936200057d565b005b620001ac620001a636600462000f29565b620005b6565b604051901515815260200162000169565b62000155620001ce36600462000f61565b62000793565b62000200620001e536600462000f04565b6001600160a01b03166000908152609a602052604090205490565b60405190815260200162000169565b62000193620007dc565b6200019362000815565b6033546001600160a01b031662000155565b60985462000200565b620002006200024f36600462000f04565b6001600160a01b031660009081526099602052604090205490565b620002816200027b36600462000f04565b6200084c565b604051620001699190620010e2565b62000155620002a136600462000f61565b620008c4565b62000281620002b836600462000f04565b620008f1565b620001ac62000967565b620001936200097b565b6097546001600160a01b031662000155565b62000193620002f536600462000f04565b62000b14565b6200028162000bb3565b60006200031460655460ff1690565b156200033d5760405162461bcd60e51b8152600401620003349062001131565b60405180910390fd5b6097546040516000916001600160a01b0316906320575efb60e21b906200036d908890889088906024016200108a565b60408051601f198184030181529181526020820180516001600160e01b03166001600160e01b0319909416939093179092529051620003ac9062000ec2565b620003b992919062001046565b604051809103906000f080158015620003d6573d6000803e3d6000fd5b506098805460018101825560009182527f2237a976fa961f5921fd19f2b03c925c725d77b20ce8f790c19709c03de4d814810180546001600160a01b0319166001600160a01b0385161790559192508291905b86811015620004b457600088888381811062000449576200044962001286565b905060200201602081019062000460919062000f04565b6001600160a01b0390811660009081526099602090815260408220805460018101825590835291200180546001600160a01b0319169186169190911790555080620004ab816200125c565b91505062000429565b50816001600160a01b03167f63ba13e1272ed358e7de868cdda239ae197d3b2c38cf2034db1b0619eabef47582604051620004f191815260200190565b60405180910390a2336001600160a01b03167f0f2dba6a414ef4b7366389fe94cb230a54c4de90d36039d15c81bd77855e1a7688888860405162000538939291906200108a565b60405180910390a25095945050505050565b60006098828154811062000562576200056262001286565b6000918252602090912001546001600160a01b031692915050565b6033546001600160a01b03163314620005aa5760405162461bcd60e51b81526004016200033490620011a9565b620005b462000c17565b565b6033546000906001600160a01b03163314620005e65760405162461bcd60e51b81526004016200033490620011a9565b60655460ff16156200060c5760405162461bcd60e51b8152600401620003349062001131565b6001600160a01b038216620006645760405162461bcd60e51b815260206004820152601e60248201527f466163746f72793a206e6f6e207a65726f2061646472657373206f6e6c790000604482015260640162000334565b6040516001600160a01b0383811660248301526000919085169060440160408051601f198184030181529181526020820180516001600160e01b031663d0ebdbe760e01b17905251620006b8919062001028565b6000604051808303816000865af19150503d8060008114620006f7576040519150601f19603f3d011682016040523d82523d6000602084013e620006fc565b606091505b50509050806200074f5760405162461bcd60e51b815260206004820152601e60248201527f466163746f72793a2061737369676e206d616e61676572206661696c65640000604482015260640162000334565b6001600160a01b039283166000908152609a602090815260408220805460018101825590835291200180546001600160a01b03191694909316939093179091555090565b6001600160a01b0382166000908152609960205260408120805483908110620007c057620007c062001286565b6000918252602090912001546001600160a01b03169392505050565b6033546001600160a01b03163314620008095760405162461bcd60e51b81526004016200033490620011a9565b620005b4600062000cac565b6033546001600160a01b03163314620008425760405162461bcd60e51b81526004016200033490620011a9565b620005b462000cfe565b6001600160a01b038116600090815260996020908152604091829020805483518184028101840190945280845260609392830182828015620008b857602002820191906000526020600020905b81546001600160a01b0316815260019091019060200180831162000899575b50505050509050919050565b6001600160a01b0382166000908152609a60205260408120805483908110620007c057620007c062001286565b6001600160a01b0381166000908152609a6020908152604091829020805483518184028101840190945280845260609392830182828015620008b8576020028201919060005260206000209081546001600160a01b03168152600190910190602001808311620008995750505050509050919050565b60006200097660655460ff1690565b905090565b600062000989600162000d5a565b90508015620009a2576000805461ff0019166101001790555b620009ac62000def565b620009b662000e23565b6000604051620009c69062000ed0565b604051809103906000f080158015620009e3573d6000803e3d6000fd5b50604051620009f29062000ede565b6001600160a01b039091168152602001604051809103906000f08015801562000a1f573d6000803e3d6000fd5b5060405163f2fde38b60e01b81523360048201529091506001600160a01b0382169063f2fde38b90602401600060405180830381600087803b15801562000a6557600080fd5b505af115801562000a7a573d6000803e3d6000fd5b5050609780546001600160a01b0319166001600160a01b0385169081179091556040513393509091507fcb03dfd8c0374fe2246b0a7d3ed8a07dbbef2c07c428612c20563f297546115e90600090a350801562000b11576000805461ff0019169055604051600181527f7f26b83ff96e1f2b6a682f133852f6798a09c465da95921460cefb38474024989060200160405180910390a15b50565b6033546001600160a01b0316331462000b415760405162461bcd60e51b81526004016200033490620011a9565b6001600160a01b03811662000ba85760405162461bcd60e51b815260206004820152602660248201527f4f776e61626c653a206e6577206f776e657220697320746865207a65726f206160448201526564647265737360d01b606482015260840162000334565b62000b118162000cac565b6060609880548060200260200160405190810160405280929190818152602001828054801562000c0d57602002820191906000526020600020905b81546001600160a01b0316815260019091019060200180831162000bee575b5050505050905090565b60655460ff1662000c625760405162461bcd60e51b815260206004820152601460248201527314185d5cd8589b194e881b9bdd081c185d5cd95960621b604482015260640162000334565b6065805460ff191690557f5db9ee0a495bf2e6ff9c91a7834c1ba4fdd244a5e8aa4e537bd38aeae4b073aa335b6040516001600160a01b03909116815260200160405180910390a1565b603380546001600160a01b038381166001600160a01b0319831681179093556040519116919082907f8be0079c531659141344cd1fd0a4f28419497f9722a3daafe3b4186f6b6457e090600090a35050565b60655460ff161562000d245760405162461bcd60e51b8152600401620003349062001131565b6065805460ff191660011790557f62e78cea01bee320cd4e420270b5ea74000d11b0c9f74754ebdbfc544b05a25862000c8f3390565b60008054610100900460ff161562000da6578160ff16600114801562000d7f5750303b155b62000d9e5760405162461bcd60e51b815260040162000334906200115b565b506000919050565b60005460ff80841691161062000dd05760405162461bcd60e51b815260040162000334906200115b565b506000805460ff191660ff92909216919091179055600190565b919050565b600054610100900460ff1662000e195760405162461bcd60e51b81526004016200033490620011de565b620005b462000e57565b600054610100900460ff1662000e4d5760405162461bcd60e51b81526004016200033490620011de565b620005b462000e8c565b600054610100900460ff1662000e815760405162461bcd60e51b81526004016200033490620011de565b620005b43362000cac565b600054610100900460ff1662000eb65760405162461bcd60e51b81526004016200033490620011de565b6065805460ff19169055565b610a22806200129d83390190565b6135338062001cbf83390190565b6104e480620051f283390190565b80356001600160a01b038116811462000dea57600080fd5b60006020828403121562000f1757600080fd5b62000f228262000eec565b9392505050565b6000806040838503121562000f3d57600080fd5b62000f488362000eec565b915062000f586020840162000eec565b90509250929050565b6000806040838503121562000f7557600080fd5b62000f808362000eec565b946020939093013593505050565b60008060006040848603121562000fa457600080fd5b833567ffffffffffffffff8082111562000fbd57600080fd5b818601915086601f83011262000fd257600080fd5b81358181111562000fe257600080fd5b8760208260051b850101111562000ff857600080fd5b6020928301989097509590910135949350505050565b6000602082840312156200102157600080fd5b5035919050565b600082516200103c81846020870162001229565b9190910192915050565b60018060a01b038316815260406020820152600082518060408401526200107581606085016020870162001229565b601f01601f1916919091016060019392505050565b6040808252810183905260008460608301825b86811015620010cf576001600160a01b03620010b98462000eec565b168252602092830192909101906001016200109d565b5060209390930193909352509392505050565b6020808252825182820181905260009190848201906040850190845b81811015620011255783516001600160a01b031683529284019291840191600101620010fe565b50909695505050505050565b60208082526010908201526f14185d5cd8589b194e881c185d5cd95960821b604082015260600190565b6020808252602e908201527f496e697469616c697a61626c653a20636f6e747261637420697320616c72656160408201526d191e481a5b9a5d1a585b1a5e995960921b606082015260800190565b6020808252818101527f4f776e61626c653a2063616c6c6572206973206e6f7420746865206f776e6572604082015260600190565b6020808252602b908201527f496e697469616c697a61626c653a20636f6e7472616374206973206e6f74206960408201526a6e697469616c697a696e6760a81b606082015260800190565b60005b83811015620012465781810151838201526020016200122c565b8381111562001256576000848401525b50505050565b60006000198214156200127f57634e487b7160e01b600052601160045260246000fd5b5060010190565b634e487b7160e01b600052603260045260246000fdfe608060405260405162000a2238038062000a228339810160408190526200002691620004cc565b6200005360017fa3f0ad74e5423aebfd80d3ef4346578335a9a72aeaee59ff6cb3582b35133d51620005ed565b600080516020620009db8339815191521462000073576200007362000642565b620000818282600062000089565b50506200066e565b62000094836200016e565b6040516001600160a01b038416907f1cf3b03a6cf19fa2baba4df148e9dcabedea7f8a5c07840e207e5c089be95d3e90600090a2600082511180620000d65750805b15620001695762000167836001600160a01b0316635c60da1b6040518163ffffffff1660e01b815260040160206040518083038186803b1580156200011a57600080fd5b505afa1580156200012f573d6000803e3d6000fd5b505050506040513d601f19601f82011682018060405250810190620001559190620004ae565b836200031f60201b620000291760201c565b505b505050565b62000184816200034e60201b620000551760201c565b620001e45760405162461bcd60e51b815260206004820152602560248201527f455243313936373a206e657720626561636f6e206973206e6f74206120636f6e6044820152641d1c9858dd60da1b60648201526084015b60405180910390fd5b6200026e816001600160a01b0316635c60da1b6040518163ffffffff1660e01b815260040160206040518083038186803b1580156200022257600080fd5b505afa15801562000237573d6000803e3d6000fd5b505050506040513d601f19601f820116820180604052508101906200025d9190620004ae565b6200034e60201b620000551760201c565b620002d55760405162461bcd60e51b815260206004820152603060248201527f455243313936373a20626561636f6e20696d706c656d656e746174696f6e206960448201526f1cc81b9bdd08184818dbdb9d1c9858dd60821b6064820152608401620001db565b80620002fe600080516020620009db83398151915260001b6200035d60201b620000641760201c565b80546001600160a01b0319166001600160a01b039290921691909117905550565b6060620003478383604051806060016040528060278152602001620009fb6027913962000360565b9392505050565b6001600160a01b03163b151590565b90565b6060600080856001600160a01b0316856040516200037f91906200059a565b600060405180830381855af49150503d8060008114620003bc576040519150601f19603f3d011682016040523d82523d6000602084013e620003c1565b606091505b509092509050620003d586838387620003df565b9695505050505050565b606083156200045057825162000448576001600160a01b0385163b620004485760405162461bcd60e51b815260206004820152601d60248201527f416464726573733a2063616c6c20746f206e6f6e2d636f6e74726163740000006044820152606401620001db565b50816200045c565b6200045c838362000464565b949350505050565b815115620004755781518083602001fd5b8060405162461bcd60e51b8152600401620001db9190620005b8565b80516001600160a01b0381168114620004a957600080fd5b919050565b600060208284031215620004c157600080fd5b620003478262000491565b60008060408385031215620004e057600080fd5b620004eb8362000491565b60208401519092506001600160401b03808211156200050957600080fd5b818501915085601f8301126200051e57600080fd5b81518181111562000533576200053362000658565b604051601f8201601f19908116603f011681019083821181831017156200055e576200055e62000658565b816040528281528860208487010111156200057857600080fd5b6200058b83602083016020880162000613565b80955050505050509250929050565b60008251620005ae81846020870162000613565b9190910192915050565b6020815260008251806020840152620005d981604085016020870162000613565b601f01601f19169190910160400192915050565b6000828210156200060e57634e487b7160e01b600052601160045260246000fd5b500390565b60005b838110156200063057818101518382015260200162000616565b83811115620001675750506000910152565b634e487b7160e01b600052600160045260246000fd5b634e487b7160e01b600052604160045260246000fd5b61035d806200067e6000396000f3fe60806040523661001357610011610017565b005b6100115b610027610022610067565b61010f565b565b606061004e838360405180606001604052806027815260200161030160279139610133565b9392505050565b6001600160a01b03163b151590565b90565b600061009a7fa3f0ad74e5423aebfd80d3ef4346578335a9a72aeaee59ff6cb3582b35133d50546001600160a01b031690565b6001600160a01b0316635c60da1b6040518163ffffffff1660e01b815260040160206040518083038186803b1580156100d257600080fd5b505afa1580156100e6573d6000803e3d6000fd5b505050506040513d601f19601f8201168201806040525081019061010a9190610258565b905090565b3660008037600080366000845af43d6000803e80801561012e573d6000f35b3d6000fd5b6060600080856001600160a01b0316856040516101509190610281565b600060405180830381855af49150503d806000811461018b576040519150601f19603f3d011682016040523d82523d6000602084013e610190565b606091505b50915091506101a1868383876101ab565b9695505050505050565b6060831561021c578251610215576001600160a01b0385163b6102155760405162461bcd60e51b815260206004820152601d60248201527f416464726573733a2063616c6c20746f206e6f6e2d636f6e747261637400000060448201526064015b60405180910390fd5b5081610226565b610226838361022e565b949350505050565b81511561023e5781518083602001fd5b8060405162461bcd60e51b815260040161020c919061029d565b60006020828403121561026a57600080fd5b81516001600160a01b038116811461004e57600080fd5b600082516102938184602087016102d0565b9190910192915050565b60208152600082518060208401526102bc8160408501602087016102d0565b601f01601f19169190910160400192915050565b60005b838110156102eb5781810151838201526020016102d3565b838111156102fa576000848401525b5050505056fe416464726573733a206c6f772d6c6576656c2064656c65676174652063616c6c206661696c6564a2646970667358221220936823849e6313d7527f7eb0455e14016d78397fd4966a5d2eb358706d66eab664736f6c63430008070033a3f0ad74e5423aebfd80d3ef4346578335a9a72aeaee59ff6cb3582b35133d50416464726573733a206c6f772d6c6576656c2064656c65676174652063616c6c206661696c6564608060405234801561001057600080fd5b50613513806100206000396000f3fe6080604052600436106101c65760003560e01c806373ff81cc116100f7578063adb610a311610095578063e567e86911610064578063e567e86914610565578063f23a6e611461057a578063f698da25146105a6578063f837d423146105bb57600080fd5b8063adb610a3146104f0578063b20573b414610505578063bfd2b3a314610525578063d0ebdbe71461054557600080fd5b806385768a1d116100d157806385768a1d14610460578063987cac3314610480578063a0e67e2b14610495578063ad4d4c89146104b757600080fd5b806373ff81cc14610425578063815d7bec1461043a578063838fb01d1461044d57600080fd5b80633758b6ad11610164578063481c6a751161013e578063481c6a751461037257806354fd4d50146103aa57806359dbfde8146103cc5780635c17f9f41461040557600080fd5b80633758b6ad1461031d5780633cc38f5c1461033d57806342cb86471461035d57600080fd5b8063152b5c0f116101a0578063152b5c0f146102a55780631d4115a3146102c857806333189d8f146102e85780633408e4701461030a57600080fd5b8063017519981461020c57806301ffc9a714610241578063150b7a021461026157600080fd5b36610207576040805134815247602082015233917f363f315f930a17d1266b86a20d6dd34b1cfbc5a9db9f13a65d06a689c3a2af8a910160405180910390a2005b600080fd5b34801561021857600080fd5b5061022c610227366004612d5d565b6105db565b60405190151581526020015b60405180910390f35b34801561024d57600080fd5b5061022c61025c366004613038565b610613565b34801561026d57600080fd5b5061028c61027c366004612c7d565b630a85bd0160e11b949350505050565b6040516001600160e01b03199091168152602001610238565b3480156102b157600080fd5b506102ba61064a565b604051908152602001610238565b3480156102d457600080fd5b506102ba6102e3366004612f23565b61065a565b3480156102f457600080fd5b50610308610303366004612bd1565b6106c9565b005b34801561031657600080fd5b50466102ba565b34801561032957600080fd5b506102ba610338366004612e32565b61088f565b34801561034957600080fd5b50610308610358366004612e9c565b6108dc565b34801561036957600080fd5b506102ba610ade565b34801561037e57600080fd5b50609e54610392906001600160a01b031681565b6040516001600160a01b039091168152602001610238565b3480156103b657600080fd5b506103bf610ae9565b6040516102389190613248565b3480156103d857600080fd5b5061022c6103e7366004612bd1565b6001600160a01b031660009081526036602052604090205460ff1690565b34801561041157600080fd5b5061022c610420366004612ec8565b610b1a565b34801561043157600080fd5b506033546102ba565b610308610448366004612f58565b610caf565b34801561045957600080fd5b50476102ba565b34801561046c57600080fd5b5061030861047b3660046130e8565b610d9e565b34801561048c57600080fd5b506034546102ba565b3480156104a157600080fd5b506104aa610fd8565b604051610238919061319a565b3480156104c357600080fd5b5061022c6104d2366004612bd1565b6001600160a01b0316600090815260a0602052604090205460ff1690565b3480156104fc57600080fd5b50609f546102ba565b34801561051157600080fd5b50610308610520366004612db5565b61103a565b34801561053157600080fd5b50610308610540366004612e9c565b611634565b34801561055157600080fd5b50610308610560366004612bd1565b6118e3565b34801561057157600080fd5b506103bf61195f565b34801561058657600080fd5b5061028c610595366004612ce8565b63f23a6e6160e01b95945050505050565b3480156105b257600080fd5b506102ba61196a565b3480156105c757600080fd5b506103086105d6366004612bee565b611974565b6001600160a01b03831660009081526036602052604081205460ff16801561060957506106098484846120ab565b90505b9392505050565b60006001600160e01b0319821663f23a6e6160e01b148061064457506301ffc9a760e01b6001600160e01b03198316145b92915050565b600061065560385490565b905090565b604080517fcc14a4b433c79d829b71a51edd110b7d3541709fe9814a4aed7bc0febdb0353e60208201526001600160a01b0385169181019190915260608101839052608081018290526000906106099060a0015b604051602081830303815290604052805190602001206121f7565b609e546001600160a01b0316331461071d5760405162461bcd60e51b815260206004820152601260248201527129b0b3329d1037b7363c9036b0b730b3b2b960711b60448201526064015b60405180910390fd5b60405163b9209e3360e01b8152306004820152735e17b14add6c386305a32928f985b29bba34eff59063b9209e339060240160206040518083038186803b15801561076757600080fd5b505afa15801561077b573d6000803e3d6000fd5b505050506040513d601f19601f8201168201806040525081019061079f9190613016565b6107eb5760405162461bcd60e51b815260206004820152601a60248201527f536166653a2073616665206973206e6f742076657269666965640000000000006044820152606401610714565b6107f481612245565b6107fd8161229e565b604051637921219560e11b81523060048201526001600160a01b0382166024820152600160448201819052606482015260a06084820152600060a4820152735e17b14add6c386305a32928f985b29bba34eff59063f242432a9060c401600060405180830381600087803b15801561087457600080fd5b505af1158015610888573d6000803e3d6000fd5b5050505050565b60006108d27fb226c456cea1343f3e1288eb20976517dd4037eddc180f552a49dcf42a15d22960001b87878787876040516020016106ae969594939291906131e7565b9695505050505050565b60005b60335481101561094e57336001600160a01b03166035828154811061090657610906613486565b6000918252602090912001546001600160a01b0316141561093c57336000908152603660205260409020805460ff191660011790555b8061094681613429565b9150506108df565b503360009081526036602052604090205460ff1615156001146109835760405162461bcd60e51b8152600401610714906132a9565b6001600160a01b03821660009081526036602052604090205460ff161580156109b457506001600160a01b03821615155b610a0c5760405162461bcd60e51b8152602060048201526024808201527f4f776e6572733a206f776e657220657869737473206f72207a65726f206164646044820152637265737360e01b6064820152608401610714565b6035805460018101825560009182527fcfa4bec1d3298408bb5afcfcd9c430549c5b31f8aa5c5848151c0a55f473c34d0180546001600160a01b0319166001600160a01b0385161790556033805491610a6483613429565b90915550506001600160a01b0382166000908152603660205260409020805460ff191660011790556034548114610a9e57610a9e816122f5565b6040516001600160a01b03831681527f994a936646fe87ffe4f1e469d3d6aa417d6b855598397f323de5b449f765f0c39060200160405180910390a15050565b600061065560375490565b6060610af460385490565b604051602001610b0691815260200190565b604051602081830303815290604052905090565b600080610b2a8686609f5461065a565b603454909150831015610b7f5760405162461bcd60e51b815260206004820152601c60248201527f536166653a206d696e207369676e617475726573206e6f74206d6574000000006044820152606401610714565b610bc0338286868080601f0160208091040260200160405190810160405280939291908181526020018383808284376000920191909152506105db92505050565b610c065760405162461bcd60e51b8152602060048201526017602482015276536166653a20696e76616c6964207369676e617475726560481b6044820152606401610714565b609f8054906000610c1683613429565b909155505060405163095ea7b360e01b81526001600160a01b03871660048201526024810186905273d9145cce52d386f254917e481eb44e9943f391389063095ea7b390604401602060405180830381600087803b158015610c7757600080fd5b505af1158015610c8b573d6000803e3d6000fd5b505050506040513d601f19601f820116820180604052508101906108d29190613016565b6000610cbb60016123b5565b90508015610cd3576000805461ff0019166101001790555b610cdd838361243d565b610d24604051806040016040528060088152602001674d7274725361666560c01b815250604051806040016040528060058152602001640312e302e360dc1b8152506126a9565b610d2c6126de565b610d346126de565b609d80546001600160a01b03191633908117909155610d5290612245565b8015610d99576000805461ff0019169055604051600181527f7f26b83ff96e1f2b6a682f133852f6798a09c465da95921460cefb3847402498906020015b60405180910390a15b505050565b610da6612707565b50610db081612245565b610db98161229e565b609e546001600160a01b03163314610e085760405162461bcd60e51b815260206004820152601260248201527129b0b3329d1037b7363c9036b0b730b3b2b960711b6044820152606401610714565b610e5260a183604051610e1b919061317e565b908152604051908190036020019020546001600160a01b03166001600160a01b0316600090815260a0602052604090205460ff1690565b610e975760405162461bcd60e51b815260206004820152601660248201527514d859994e88185cdcd95d081b9bdd081b1a5cdd195960521b6044820152606401610714565b60a182604051610ea7919061317e565b908152604051908190036020018120546001600160a01b03169063a9059cbb90839060a190610ed790879061317e565b908152604051908190036020018120546370a0823160e01b82523060048301526001600160a01b0316906370a082319060240160206040518083038186803b158015610f2257600080fd5b505afa158015610f36573d6000803e3d6000fd5b505050506040513d601f19601f82011682018060405250810190610f5a9190613139565b6040516001600160e01b031960e085901b1681526001600160a01b0390921660048301526024820152604401602060405180830381600087803b158015610fa057600080fd5b505af1158015610fb4573d6000803e3d6000fd5b505050506040513d601f19601f82011682018060405250810190610d999190613016565b6060603580548060200260200160405190810160405280929190818152602001828054801561103057602002820191906000526020600020905b81546001600160a01b03168152600190910190602001808311611012575b5050505050905090565b611042612707565b5061104c84612245565b6110558461229e565b6001600160a01b038416600090815260a0602052604090205460ff16156110b65760405162461bcd60e51b815260206004820152601560248201527414d859994e88191d5c1b1a58d85d1948185cdcd95d605a1b6044820152606401610714565b609e546001600160a01b03163314806110de57503360009081526036602052604090205460ff165b61112a5760405162461bcd60e51b815260206004820152601760248201527f536166653a20756e617574686f72697a656420757365720000000000000000006044820152606401610714565b6001600160a01b038416735e17b14add6c386305a32928f985b29bba34eff51480159061117457506001600160a01b03841673d9145cce52d386f254917e481eb44e9943f3913814155b6111c05760405162461bcd60e51b815260206004820152601a60248201527f536166653a20564354202620414e4420617265206c69737465640000000000006044820152606401610714565b801561139d5781516020830120604051622b600360e21b8152600481018390526001600160a01b0386169062ad800c9060240160006040518083038186803b15801561120b57600080fd5b505afa15801561121f573d6000803e3d6000fd5b505050506040513d6000823e601f3d908101601f191682016040526112479190810190613072565b80519060200120146112ad5760405162461bcd60e51b815260206004820152602960248201527f536166653a206e616d65206f6620457374617465206d69736d6174636820696e60448201526870757420656e74727960b81b6064820152608401610714565b82516020840120604051634e41a1fb60e01b8152600481018390526001600160a01b03861690634e41a1fb9060240160006040518083038186803b1580156112f457600080fd5b505afa158015611308573d6000803e3d6000fd5b505050506040513d6000823e601f3d908101601f191682016040526113309190810190613072565b80519060200120146113985760405162461bcd60e51b815260206004820152602b60248201527f536166653a2073796d626f6c206f6620457374617465206d69736d617463682060448201526a696e70757420656e74727960a81b6064820152608401610714565b611563565b8180519060200120846001600160a01b03166306fdde036040518163ffffffff1660e01b815260040160006040518083038186803b1580156113de57600080fd5b505afa1580156113f2573d6000803e3d6000fd5b505050506040513d6000823e601f3d908101601f1916820160405261141a9190810190613072565b805190602001201461147e5760405162461bcd60e51b815260206004820152602760248201527f536166653a206e616d65206f66207661756c74206d69736d6174636820696e706044820152667574206e616d6560c81b6064820152608401610714565b8280519060200120846001600160a01b03166395d89b416040518163ffffffff1660e01b815260040160006040518083038186803b1580156114bf57600080fd5b505afa1580156114d3573d6000803e3d6000fd5b505050506040513d6000823e601f3d908101601f191682016040526114fb9190810190613072565b80519060200120146115635760405162461bcd60e51b815260206004820152602b60248201527f536166653a2073796d626f6c206f66207661756c74206d69736d61746368206960448201526a1b9c1d5d081cde5b589bdb60aa1b6064820152608401610714565b6040518060800160405280856001600160a01b031681526020018481526020018381526020018281525060a18460405161159d919061317e565b90815260405160209181900382019020825181546001600160a01b0319166001600160a01b0390911617815582820151805191926115e392600185019290910190612aa1565b50604082015180516115ff916002840191602090910190612aa1565b50606091909101516003909101555050506001600160a01b0316600090815260a060205260409020805460ff19166001179055565b60005b6033548110156116a657336001600160a01b03166035828154811061165e5761165e613486565b6000918252602090912001546001600160a01b0316141561169457336000908152603660205260409020805460ff191660011790555b8061169e81613429565b915050611637565b503360009081526036602052604090205460ff1615156001146116db5760405162461bcd60e51b8152600401610714906132a9565b6001600160a01b03821660009081526036602052604090205460ff161515600114801561171057506001600160a01b03821615155b6117725760405162461bcd60e51b815260206004820152602d60248201527f4f776e6572733a206f776e65722020646f6573206e6f74206578697374206f7260448201526c207a65726f206164647265737360981b6064820152608401610714565b600060016033546117839190613390565b905080821161186a576035818154811061179f5761179f613486565b600091825260209091200154603580546001600160a01b03909216945090806117ca576117ca613470565b60008281526020808220830160001990810180546001600160a01b03191690559092019092556001600160a01b03851682526036905260408120805460ff19169055603380549161181a836133d7565b9190505550816034541461183157611831826122f5565b6040516001600160a01b03841681527f58619076adf5bb0943d100ef88d52d7c3fd691b19d3a9071b555b651fbf418da90602001610d90565b60405162461bcd60e51b815260206004820152604260248201527f4f776e6572733a206d696e20617070726f76616c2068617320746f206265206560448201527f7175616c206f72206c657373207468616e206e6577206f776e65727320636f756064820152611b9d60f21b608482015260a401610714565b609d546001600160a01b0316331461193d5760405162461bcd60e51b815260206004820152601960248201527f536166653a20756e617574686f72697a65642073656e646572000000000000006044820152606401610714565b609e80546001600160a01b0319166001600160a01b0392909216919091179055565b6060610af460375490565b600061065561284f565b60005b6033548110156119e657336001600160a01b03166035828154811061199e5761199e613486565b6000918252602090912001546001600160a01b031614156119d457336000908152603660205260409020805460ff191660011790555b806119de81613429565b915050611977565b503360009081526036602052604090205460ff161515600114611a1b5760405162461bcd60e51b8152600401610714906132a9565b611a23612707565b50611a2d86612245565b6001600160a01b038616301415611a865760405162461bcd60e51b815260206004820152601b60248201527f736166653a207472616e7366657220746f2074686973207361666500000000006044820152606401610714565b6000611a9787878787609f5461088f565b9050611ada338285858080601f0160208091040260200160405190810160405280939291908181526020018383808284376000920191909152506105db92505050565b611b205760405162461bcd60e51b8152602060048201526017602482015276536166653a20696e76616c6964207369676e617475726560481b6044820152606401610714565b603454821015611b725760405162461bcd60e51b815260206004820152601c60248201527f536166653a206d696e207369676e617475726573206e6f74206d6574000000006044820152606401610714565b8315611d2957611b818761229e565b60a186604051611b91919061317e565b90815260405190819003602001812054634e41a1fb60e01b82526001600160a01b031690634e41a1fb90611bcd90879060040190815260200190565b60006040518083038186803b158015611be557600080fd5b505afa158015611bf9573d6000803e3d6000fd5b505050506040513d6000823e601f3d908101601f19168201604052611c219190810190613072565b80519060200120868051906020012014611c3a57600080fd5b611c4d60a187604051610e1b919061317e565b611c925760405162461bcd60e51b815260206004820152601660248201527514d859994e88185cdcd95d081b9bdd081b1a5cdd195960521b6044820152606401610714565b60a186604051611ca2919061317e565b90815260405190819003602001812054635c46a7ef60e11b82523060048301526001600160a01b038981166024840152604483018790526080606484015260006084840152169063b88d4fde9060a401600060405180830381600087803b158015611d0c57600080fd5b505af1158015611d20573d6000803e3d6000fd5b5050505061208d565b6040805180820190915260048152634252434b60e01b6020918201528651908701207fdbc2612804e5df54a662169e29f93beaf7fe79a23031577517a5660e86a7cb941415611e7b5784471015611dd25760405162461bcd60e51b815260206004820152602760248201527f536166653a206578636565647320617661696c61626c6520427269636b27732060448201526662616c616e636560c81b6064820152608401610714565b6000876001600160a01b03168660405160006040518083038185875af1925050503d8060008114611e1f576040519150601f19603f3d011682016040523d82523d6000602084013e611e24565b606091505b5050905080611e755760405162461bcd60e51b815260206004820152601b60248201527f536166653a207472616e7366657220627269636b206661696c656400000000006044820152606401610714565b5061208d565b60408051808201909152600381526210539160ea1b6020918201528651908701207f2feb63c2c262895ab5f671b924f903b32e1fe8c0f0f62ccab07f3905d3b00a321415612037576040516370a0823160e01b8152306004820152859073d9145cce52d386f254917e481eb44e9943f39138906370a082319060240160206040518083038186803b158015611f0f57600080fd5b505afa158015611f23573d6000803e3d6000fd5b505050506040513d601f19601f82011682018060405250810190611f479190613139565b1015611fa35760405162461bcd60e51b815260206004820152602560248201527f536166653a206578636565647320617661696c61626c6520414e4427732062616044820152646c616e636560d81b6064820152608401610714565b60405163a9059cbb60e01b81526001600160a01b03881660048201526024810186905273d9145cce52d386f254917e481eb44e9943f391389063a9059cbb90604401602060405180830381600087803b158015611fff57600080fd5b505af1158015612013573d6000803e3d6000fd5b505050506040513d601f19601f82011682018060405250810190611e759190613016565b60405162461bcd60e51b815260206004820152602560248201527f536166653a2077726f6e6720656e747279206f72206d616e61676572207265716044820152641d5a5c995960da1b6064820152608401610714565b609f805490600061209d83613429565b919050555050505050505050565b60008060006120ba85856128ca565b909250905060008160048111156120d3576120d361345a565b1480156120f15750856001600160a01b0316826001600160a01b0316145b156121015760019250505061060c565b600080876001600160a01b0316631626ba7e60e01b888860405160240161212992919061322f565b60408051601f198184030181529181526020820180516001600160e01b03166001600160e01b0319909416939093179092529051612167919061317e565b600060405180830381855afa9150503d80600081146121a2576040519150601f19603f3d011682016040523d82523d6000602084013e6121a7565b606091505b50915091508180156121ba575080516020145b80156121eb57508051630b135d3f60e11b906121df9083016020908101908401613055565b6001600160e01b031916145b98975050505050505050565b600061064461220461284f565b8360405161190160f01b6020820152602281018390526042810182905260009060620160405160208183030381529060405280519060200120905092915050565b6001600160a01b03811661229b5760405162461bcd60e51b815260206004820152601b60248201527f536166653a206e6f6e207a65726f2061646472657373206f6e6c7900000000006044820152606401610714565b50565b6001600160a01b0381163b61229b5760405162461bcd60e51b815260206004820152601d60248201527f536166653a2061646472657373206973206e6f7420636f6e74726163740000006044820152606401610714565b6001811015801561230857506033548111155b61237a5760405162461bcd60e51b815260206004820152603e60248201527f4f776e6572733a20617070726f76616c732067726561746572207468616e206f60448201527f6e65202620657175616c206f72206c657373207468616e206f776e65727300006064820152608401610714565b60348190556040518181527f8b2f7e347ebed013f88116ca40fb660c59fbb84ed5fb90b8bb3bdf214b4ab8b89060200160405180910390a150565b60008054610100900460ff16156123fc578160ff1660011480156123d85750303b155b6123f45760405162461bcd60e51b81526004016107149061325b565b506000919050565b60005460ff8084169116106124235760405162461bcd60e51b81526004016107149061325b565b506000805460ff191660ff92909216919091179055600190565b600054610100900460ff166124645760405162461bcd60e51b8152600401610714906132d6565b60005b82518110156125d157600083828151811061248457612484613486565b6020026020010151905060006001600160a01b0316816001600160a01b031614156124f15760405162461bcd60e51b815260206004820152601f60248201527f4f776e6572733a206e6f207a65726f206164647265737320616c6c6f776564006044820152606401610714565b6001600160a01b03811660009081526036602052604090205460ff161561255a5760405162461bcd60e51b815260206004820152601960248201527f4f776e6572733a2061646472657373206475706c6963617465000000000000006044820152606401610714565b6035805460018181019092557fcfa4bec1d3298408bb5afcfcd9c430549c5b31f8aa5c5848151c0a55f473c34d0180546001600160a01b039093166001600160a01b031990931683179055600091825260366020526040909120805460ff19169091179055806125c981613429565b915050612467565b50600082511161261a5760405162461bcd60e51b815260206004820152601460248201527313dddb995c9cce881b9bc81bdddb995c881e595d60621b6044820152606401610714565b60008111801561262b575081518111155b61269d5760405162461bcd60e51b815260206004820152603f60248201527f4f776e6572733a20617070726f76616c732067726561746572207468616e207a60448201527f65726f202620657175616c206f72206c657373207468616e206f776e657273006064820152608401610714565b60345550603554603355565b600054610100900460ff166126d05760405162461bcd60e51b8152600401610714906132d6565b6126da828261293a565b5050565b600054610100900460ff166127055760405162461bcd60e51b8152600401610714906132d6565b565b609d54604080516358c3de9360e11b815290516000926001600160a01b03169163b187bd26916004808301926020929190829003018186803b15801561274c57600080fd5b505afa158015612760573d6000803e3d6000fd5b505050506040513d601f19601f820116820180604052508101906127849190613016565b156127c95760405162461bcd60e51b815260206004820152601560248201527414d859994e8818dbdb9d1c9858dd081c185d5cd959605a1b6044820152606401610714565b609d60009054906101000a90046001600160a01b03166001600160a01b031663b187bd266040518163ffffffff1660e01b815260040160206040518083038186803b15801561281757600080fd5b505afa15801561282b573d6000803e3d6000fd5b505050506040513d601f19601f820116820180604052508101906106559190613016565b60006106557f8b73c3c69bb8fe3d512ecc4cf759cc79239f7b179b0ffacaa9a75d522b39400f61287e60375490565b6038546040805160208101859052908101839052606081018290524660808201523060a082015260009060c0016040516020818303038152906040528051906020012090509392505050565b6000808251604114156129015760208301516040840151606085015160001a6128f58782858561297b565b94509450505050612933565b82516040141561292b5760208301516040840151612920868383612a68565b935093505050612933565b506000905060025b9250929050565b600054610100900460ff166129615760405162461bcd60e51b8152600401610714906132d6565b815160209283012081519190920120603791909155603855565b6000807f7fffffffffffffffffffffffffffffff5d576e7357a4501ddfe92f46681b20a08311156129b25750600090506003612a5f565b8460ff16601b141580156129ca57508460ff16601c14155b156129db5750600090506004612a5f565b6040805160008082526020820180845289905260ff881692820192909252606081018690526080810185905260019060a0016020604051602081039080840390855afa158015612a2f573d6000803e3d6000fd5b5050604051601f1901519150506001600160a01b038116612a5857600060019250925050612a5f565b9150600090505b94509492505050565b6000806001600160ff1b03831681612a8560ff86901c601b613378565b9050612a938782888561297b565b935093505050935093915050565b828054612aad906133ee565b90600052602060002090601f016020900481019282612acf5760008555612b15565b82601f10612ae857805160ff1916838001178555612b15565b82800160010185558215612b15579182015b82811115612b15578251825591602001919060010190612afa565b50612b21929150612b25565b5090565b5b80821115612b215760008155600101612b26565b60008083601f840112612b4c57600080fd5b5081356001600160401b03811115612b6357600080fd5b60208301915083602082850101111561293357600080fd5b600082601f830112612b8c57600080fd5b8135612b9f612b9a82613351565b613321565b818152846020838601011115612bb457600080fd5b816020850160208301376000918101602001919091529392505050565b600060208284031215612be357600080fd5b813561060c816134b2565b60008060008060008060a08789031215612c0757600080fd5b8635612c12816134b2565b955060208701356001600160401b0380821115612c2e57600080fd5b612c3a8a838b01612b7b565b965060408901359550606089013594506080890135915080821115612c5e57600080fd5b50612c6b89828a01612b3a565b979a9699509497509295939492505050565b60008060008060808587031215612c9357600080fd5b8435612c9e816134b2565b93506020850135612cae816134b2565b92506040850135915060608501356001600160401b03811115612cd057600080fd5b612cdc87828801612b7b565b91505092959194509250565b600080600080600060a08688031215612d0057600080fd5b8535612d0b816134b2565b94506020860135612d1b816134b2565b9350604086013592506060860135915060808601356001600160401b03811115612d4457600080fd5b612d5088828901612b7b565b9150509295509295909350565b600080600060608486031215612d7257600080fd5b8335612d7d816134b2565b92506020840135915060408401356001600160401b03811115612d9f57600080fd5b612dab86828701612b7b565b9150509250925092565b60008060008060808587031215612dcb57600080fd5b8435612dd6816134b2565b935060208501356001600160401b0380821115612df257600080fd5b612dfe88838901612b7b565b94506040870135915080821115612e1457600080fd5b50612e2187828801612b7b565b949793965093946060013593505050565b600080600080600060a08688031215612e4a57600080fd5b8535612e55816134b2565b945060208601356001600160401b03811115612e7057600080fd5b612e7c88828901612b7b565b959895975050505060408401359360608101359360809091013592509050565b60008060408385031215612eaf57600080fd5b8235612eba816134b2565b946020939093013593505050565b60008060008060608587031215612ede57600080fd5b8435612ee9816134b2565b93506020850135925060408501356001600160401b03811115612f0b57600080fd5b612f1787828801612b3a565b95989497509550505050565b600080600060608486031215612f3857600080fd5b8335612f43816134b2565b95602085013595506040909401359392505050565b60008060408385031215612f6b57600080fd5b82356001600160401b0380821115612f8257600080fd5b818501915085601f830112612f9657600080fd5b8135602082821115612faa57612faa61349c565b8160051b9250612fbb818401613321565b8281528181019085830185870184018b1015612fd657600080fd5b600096505b848710156130055780359550612ff0866134b2565b85835260019690960195918301918301612fdb565b509997909101359750505050505050565b60006020828403121561302857600080fd5b8151801515811461060c57600080fd5b60006020828403121561304a57600080fd5b813561060c816134c7565b60006020828403121561306757600080fd5b815161060c816134c7565b60006020828403121561308457600080fd5b81516001600160401b0381111561309a57600080fd5b8201601f810184136130ab57600080fd5b80516130b9612b9a82613351565b8181528560208385010111156130ce57600080fd5b6130df8260208301602086016133a7565b95945050505050565b600080604083850312156130fb57600080fd5b82356001600160401b0381111561311157600080fd5b61311d85828601612b7b565b925050602083013561312e816134b2565b809150509250929050565b60006020828403121561314b57600080fd5b5051919050565b6000815180845261316a8160208601602086016133a7565b601f01601f19169290920160200192915050565b600082516131908184602087016133a7565b9190910192915050565b6020808252825182820181905260009190848201906040850190845b818110156131db5783516001600160a01b0316835292840192918401916001016131b6565b50909695505050505050565b8681526001600160a01b038616602082015260c06040820181905260009061321190830187613152565b606083019590955250608081019290925260a0909101529392505050565b8281526040602082015260006106096040830184613152565b60208152600061060c6020830184613152565b6020808252602e908201527f496e697469616c697a61626c653a20636f6e747261637420697320616c72656160408201526d191e481a5b9a5d1a585b1a5e995960921b606082015260800190565b6020808252601390820152724f776e6572733a206f776e657273206f6e6c7960681b604082015260600190565b6020808252602b908201527f496e697469616c697a61626c653a20636f6e7472616374206973206e6f74206960408201526a6e697469616c697a696e6760a81b606082015260800190565b604051601f8201601f191681016001600160401b03811182821017156133495761334961349c565b604052919050565b60006001600160401b0382111561336a5761336a61349c565b50601f01601f191660200190565b6000821982111561338b5761338b613444565b500190565b6000828210156133a2576133a2613444565b500390565b60005b838110156133c25781810151838201526020016133aa565b838111156133d1576000848401525b50505050565b6000816133e6576133e6613444565b506000190190565b600181811c9082168061340257607f821691505b6020821081141561342357634e487b7160e01b600052602260045260246000fd5b50919050565b600060001982141561343d5761343d613444565b5060010190565b634e487b7160e01b600052601160045260246000fd5b634e487b7160e01b600052602160045260246000fd5b634e487b7160e01b600052603160045260246000fd5b634e487b7160e01b600052603260045260246000fd5b634e487b7160e01b600052604160045260246000fd5b6001600160a01b038116811461229b57600080fd5b6001600160e01b03198116811461229b57600080fdfea26469706673582212203028e7ac07d5a95079c2eac27fec373c2acebac763eb987eb3da63c801dda29e64736f6c63430008070033608060405234801561001057600080fd5b506040516104e43803806104e483398101604081905261002f91610151565b61003833610047565b61004181610097565b50610181565b600080546001600160a01b038381166001600160a01b0319831681178455604051919092169283917f8be0079c531659141344cd1fd0a4f28419497f9722a3daafe3b4186f6b6457e09190a35050565b6100aa8161014260201b6101a01760201c565b6101205760405162461bcd60e51b815260206004820152603360248201527f5570677261646561626c65426561636f6e3a20696d706c656d656e746174696f60448201527f6e206973206e6f74206120636f6e747261637400000000000000000000000000606482015260840160405180910390fd5b600180546001600160a01b0319166001600160a01b0392909216919091179055565b6001600160a01b03163b151590565b60006020828403121561016357600080fd5b81516001600160a01b038116811461017a57600080fd5b9392505050565b610354806101906000396000f3fe608060405234801561001057600080fd5b50600436106100575760003560e01c80633659cfe61461005c5780635c60da1b14610071578063715018a61461009a5780638da5cb5b146100a2578063f2fde38b146100b3575b600080fd5b61006f61006a3660046102ee565b6100c6565b005b6001546001600160a01b03165b6040516001600160a01b03909116815260200160405180910390f35b61006f61010e565b6000546001600160a01b031661007e565b61006f6100c13660046102ee565b610122565b6100ce6101af565b6100d781610209565b6040516001600160a01b038216907fbc7cd75a20ee27fd9adebab32041f755214dbc6bffa90cc0225b39da2e5c2d3b90600090a250565b6101166101af565b610120600061029e565b565b61012a6101af565b6001600160a01b0381166101945760405162461bcd60e51b815260206004820152602660248201527f4f776e61626c653a206e6577206f776e657220697320746865207a65726f206160448201526564647265737360d01b60648201526084015b60405180910390fd5b61019d8161029e565b50565b6001600160a01b03163b151590565b6000546001600160a01b031633146101205760405162461bcd60e51b815260206004820181905260248201527f4f776e61626c653a2063616c6c6572206973206e6f7420746865206f776e6572604482015260640161018b565b6001600160a01b0381163b61027c5760405162461bcd60e51b815260206004820152603360248201527f5570677261646561626c65426561636f6e3a20696d706c656d656e746174696f6044820152721b881a5cc81b9bdd08184818dbdb9d1c9858dd606a1b606482015260840161018b565b600180546001600160a01b0319166001600160a01b0392909216919091179055565b600080546001600160a01b038381166001600160a01b0319831681178455604051919092169283917f8be0079c531659141344cd1fd0a4f28419497f9722a3daafe3b4186f6b6457e09190a35050565b60006020828403121561030057600080fd5b81356001600160a01b038116811461031757600080fd5b939250505056fea26469706673582212205b6340f7df24548117dd8a7fd624fd1ddc1a42b52f5c5374992bd371090dcf3664736f6c63430008070033a2646970667358221220bdef63fb9a64fed8c8b83a8d62e1ce00494c94692afa145a64cb5080b9267ac964736f6c63430008070033",
  "linkReferences": {},
  "deployedLinkReferences": {}
}