{
  "_format": "hh-sol-artifact-1",
  "contractName": "MrtrSafe",
  "sourceName": "contracts/MrtrSafe.sol",
  "abi": [
    {
      "anonymous": false,
      "inputs": [
        {
          "indexed": false,
          "internalType": "uint256",
          "name": "minApproval",
          "type": "uint256"
        }
      ],
      "name": "ApprovalsChanged",
      "type": "event"
    },
    {
      "anonymous": false,
      "inputs": [
        {
          "indexed": true,
          "internalType": "address",
          "name": "sender",
          "type": "address"
        },
        {
          "indexed": false,
          "internalType": "uint256",
          "name": "amount",
          "type": "uint256"
        },
        {
          "indexed": false,
          "internalType": "uint256",
          "name": "balance",
          "type": "uint256"
        }
      ],
      "name": "FundsReceived",
      "type": "event"
    },
    {
      "anonymous": false,
      "inputs": [
        {
          "indexed": false,
          "internalType": "uint8",
          "name": "version",
          "type": "uint8"
        }
      ],
      "name": "Initialized",
      "type": "event"
    },
    {
      "anonymous": false,
      "inputs": [
        {
          "indexed": false,
          "internalType": "address",
          "name": "newOwner",
          "type": "address"
        }
      ],
      "name": "OwnerAdded",
      "type": "event"
    },
    {
      "anonymous": false,
      "inputs": [
        {
          "indexed": false,
          "internalType": "address",
          "name": "removedOwner",
          "type": "address"
        }
      ],
      "name": "OwnerRemoved",
      "type": "event"
    },
    {
      "inputs": [],
      "name": "BRCKBalance",
      "outputs": [
        {
          "internalType": "uint256",
          "name": "",
          "type": "uint256"
        }
      ],
      "stateMutability": "view",
      "type": "function"
    },
    {
      "inputs": [
        {
          "internalType": "address",
          "name": "contractAddress",
          "type": "address"
        },
        {
          "internalType": "address",
          "name": "holder",
          "type": "address"
        }
      ],
      "name": "EstateTokenBalance",
      "outputs": [
        {
          "internalType": "uint256",
          "name": "",
          "type": "uint256"
        }
      ],
      "stateMutability": "view",
      "type": "function"
    },
    {
      "inputs": [
        {
          "internalType": "address",
          "name": "vault",
          "type": "address"
        },
        {
          "internalType": "address",
          "name": "to",
          "type": "address"
        },
        {
          "internalType": "uint256",
          "name": "amount",
          "type": "uint256"
        }
      ],
      "name": "Transferfractions",
      "outputs": [],
      "stateMutability": "nonpayable",
      "type": "function"
    },
    {
      "inputs": [
        {
          "internalType": "address",
          "name": "holder",
          "type": "address"
        }
      ],
      "name": "VctId",
      "outputs": [
        {
          "internalType": "uint256",
          "name": "",
          "type": "uint256"
        }
      ],
      "stateMutability": "view",
      "type": "function"
    },
    {
      "inputs": [
        {
          "internalType": "address[]",
          "name": "_owners",
          "type": "address[]"
        },
        {
          "internalType": "uint256",
          "name": "_minApprovals",
          "type": "uint256"
        }
      ],
      "name": "__MrtrSafe_init",
      "outputs": [],
      "stateMutability": "payable",
      "type": "function"
    },
    {
      "inputs": [
        {
          "internalType": "address",
          "name": "newOwner",
          "type": "address"
        },
        {
          "internalType": "uint256",
          "name": "_minApproval",
          "type": "uint256"
        }
      ],
      "name": "addOwner",
      "outputs": [],
      "stateMutability": "nonpayable",
      "type": "function"
    },
    {
      "inputs": [],
      "name": "getMinApproval",
      "outputs": [
        {
          "internalType": "uint256",
          "name": "",
          "type": "uint256"
        }
      ],
      "stateMutability": "view",
      "type": "function"
    },
    {
      "inputs": [],
      "name": "getOwners",
      "outputs": [
        {
          "internalType": "address[]",
          "name": "",
          "type": "address[]"
        }
      ],
      "stateMutability": "view",
      "type": "function"
    },
    {
      "inputs": [],
      "name": "getOwnersCount",
      "outputs": [
        {
          "internalType": "uint256",
          "name": "",
          "type": "uint256"
        }
      ],
      "stateMutability": "view",
      "type": "function"
    },
    {
      "inputs": [
        {
          "internalType": "address",
          "name": "holder",
          "type": "address"
        }
      ],
      "name": "isVerified",
      "outputs": [
        {
          "internalType": "bool",
          "name": "",
          "type": "bool"
        }
      ],
      "stateMutability": "view",
      "type": "function"
    },
    {
      "inputs": [
        {
          "internalType": "address",
          "name": "assetAddress",
          "type": "address"
        },
        {
          "internalType": "string",
          "name": "symbol",
          "type": "string"
        },
        {
          "internalType": "string",
          "name": "name",
          "type": "string"
        },
        {
          "internalType": "uint256",
          "name": "id",
          "type": "uint256"
        }
      ],
      "name": "listAsset",
      "outputs": [],
      "stateMutability": "nonpayable",
      "type": "function"
    },
    {
      "inputs": [],
      "name": "manager",
      "outputs": [
        {
          "internalType": "address",
          "name": "",
          "type": "address"
        }
      ],
      "stateMutability": "view",
      "type": "function"
    },
    {
      "inputs": [
        {
          "internalType": "address",
          "name": "",
          "type": "address"
        },
        {
          "internalType": "address",
          "name": "",
          "type": "address"
        },
        {
          "internalType": "uint256",
          "name": "",
          "type": "uint256"
        },
        {
          "internalType": "uint256",
          "name": "",
          "type": "uint256"
        },
        {
          "internalType": "bytes",
          "name": "",
          "type": "bytes"
        }
      ],
      "name": "onERC1155Received",
      "outputs": [
        {
          "internalType": "bytes4",
          "name": "",
          "type": "bytes4"
        }
      ],
      "stateMutability": "nonpayable",
      "type": "function"
    },
    {
      "inputs": [
        {
          "internalType": "address",
          "name": "",
          "type": "address"
        },
        {
          "internalType": "address",
          "name": "",
          "type": "address"
        },
        {
          "internalType": "uint256",
          "name": "",
          "type": "uint256"
        },
        {
          "internalType": "bytes",
          "name": "",
          "type": "bytes"
        }
      ],
      "name": "onERC721Received",
      "outputs": [
        {
          "internalType": "bytes4",
          "name": "",
          "type": "bytes4"
        }
      ],
      "stateMutability": "nonpayable",
      "type": "function"
    },
    {
      "inputs": [
        {
          "internalType": "address",
          "name": "owner",
          "type": "address"
        }
      ],
      "name": "ownerExists",
      "outputs": [
        {
          "internalType": "bool",
          "name": "",
          "type": "bool"
        }
      ],
      "stateMutability": "view",
      "type": "function"
    },
    {
      "inputs": [
        {
          "internalType": "address",
          "name": "owner",
          "type": "address"
        },
        {
          "internalType": "uint256",
          "name": "_minApproval",
          "type": "uint256"
        }
      ],
      "name": "removeOwner",
      "outputs": [],
      "stateMutability": "nonpayable",
      "type": "function"
    },
    {
      "inputs": [
        {
          "internalType": "address",
          "name": "_manager",
          "type": "address"
        }
      ],
      "name": "setManager",
      "outputs": [],
      "stateMutability": "nonpayable",
      "type": "function"
    },
    {
      "inputs": [
        {
          "internalType": "bytes4",
          "name": "interfaceId",
          "type": "bytes4"
        }
      ],
      "name": "supportsInterface",
      "outputs": [
        {
          "internalType": "bool",
          "name": "",
          "type": "bool"
        }
      ],
      "stateMutability": "view",
      "type": "function"
    },
    {
      "inputs": [
        {
          "internalType": "address payable",
          "name": "receiver",
          "type": "address"
        },
        {
          "internalType": "string",
          "name": "symbol",
          "type": "string"
        },
        {
          "internalType": "uint256",
          "name": "amount",
          "type": "uint256"
        }
      ],
      "name": "transfer",
      "outputs": [],
      "stateMutability": "nonpayable",
      "type": "function"
    },
    {
      "inputs": [
        {
          "internalType": "address",
          "name": "to",
          "type": "address"
        }
      ],
      "name": "transferBusiness",
      "outputs": [],
      "stateMutability": "nonpayable",
      "type": "function"
    },
    {
      "inputs": [
        {
          "internalType": "address",
          "name": "contractAddress",
          "type": "address"
        },
        {
          "internalType": "address",
          "name": "to",
          "type": "address"
        },
        {
          "internalType": "uint256",
          "name": "tokenId",
          "type": "uint256"
        }
      ],
      "name": "transferEstateToken",
      "outputs": [],
      "stateMutability": "nonpayable",
      "type": "function"
    },
    {
      "stateMutability": "payable",
      "type": "receive"
    }
  ],
  "bytecode": "0x608060405234801561001057600080fd5b50612425806100206000396000f3fe60806040526004361061012e5760003560e01c806396e58bd4116100ab578063b9209e331161006f578063b9209e33146103a0578063bfd2b3a3146103c0578063d0ebdbe7146103e0578063d9b376e914610400578063f23a6e6114610420578063fff3a01b1461044c57600080fd5b806396e58bd414610309578063987cac3314610329578063a0e67e2b1461033e578063abff168514610360578063b20573b41461038057600080fd5b8063481c6a75116100f2578063481c6a751461025d57806359dbfde81461029557806373ff81cc146102ce578063815d7bec146102e3578063838fb01d146102f657600080fd5b806301ffc9a7146101745780630c513541146101a9578063150b7a02146101d757806333189d8f1461021b5780633cc38f5c1461023d57600080fd5b3661016f576040805134815247602082015233917f363f315f930a17d1266b86a20d6dd34b1cfbc5a9db9f13a65d06a689c3a2af8a910160405180910390a2005b600080fd5b34801561018057600080fd5b5061019461018f36600461207d565b61046c565b60405190151581526020015b60405180910390f35b3480156101b557600080fd5b506101c96101c4366004611cee565b6104a3565b6040519081526020016101a0565b3480156101e357600080fd5b506102026101f2366004611e10565b630a85bd0160e11b949350505050565b6040516001600160e01b031990911681526020016101a0565b34801561022757600080fd5b5061023b610236366004611cee565b610531565b005b34801561024957600080fd5b5061023b610258366004611f70565b61069a565b34801561026957600080fd5b50609f5461027d906001600160a01b031681565b6040516001600160a01b0390911681526020016101a0565b3480156102a157600080fd5b506101946102b0366004611cee565b6001600160a01b031660009081526036602052604090205460ff1690565b3480156102da57600080fd5b506033546101c9565b61023b6102f1366004611f9c565b61089c565b34801561030257600080fd5b50476101c9565b34801561031557600080fd5b5061023b610324366004611dcf565b6109c3565b34801561033557600080fd5b506034546101c9565b34801561034a57600080fd5b50610353610a39565b6040516101a09190612163565b34801561036c57600080fd5b5061023b61037b366004611dcf565b610a9b565b34801561038c57600080fd5b5061023b61039b366004611ef2565b610b7b565b3480156103ac57600080fd5b506101946103bb366004611cee565b610f41565b3480156103cc57600080fd5b5061023b6103db366004611f70565b610fcf565b3480156103ec57600080fd5b5061023b6103fb366004611cee565b61127e565b34801561040c57600080fd5b506101c961041b366004611d96565b6112fa565b34801561042c57600080fd5b5061020261043b366004611e7c565b63f23a6e6160e01b95945050505050565b34801561045857600080fd5b5061023b610467366004611d0b565b61137e565b60006001600160e01b0319821663f23a6e6160e01b148061049d57506301ffc9a760e01b6001600160e01b03198316145b92915050565b6040516357b29b1b60e11b81526001600160a01b0382166004820152600090735e17b14add6c386305a32928f985b29bba34eff59063af6536369060240160206040518083038186803b1580156104f957600080fd5b505afa15801561050d573d6000803e3d6000fd5b505050506040513d601f19601f8201168201806040525081019061049d919061211e565b609f546001600160a01b031633146105855760405162461bcd60e51b815260206004820152601260248201527129b0b3329d1037b7363c9036b0b730b3b2b960711b60448201526064015b60405180910390fd5b6001600160a01b0381163b151580156105a657506001600160a01b03811615155b6106085760405162461bcd60e51b815260206004820152602d60248201527f536166653a207472616e7366657220746f20636f6e74726163742026206e6f6e60448201526c207a65726f206164647265737360981b606482015260840161057c565b604051637921219560e11b81523060048201526001600160a01b0382166024820152600160448201819052606482015260a06084820152600060a4820152735e17b14add6c386305a32928f985b29bba34eff59063f242432a9060c401600060405180830381600087803b15801561067f57600080fd5b505af1158015610693573d6000803e3d6000fd5b5050505050565b60005b60335481101561070c57336001600160a01b0316603582815481106106c4576106c46123ab565b6000918252602090912001546001600160a01b031614156106fa57336000908152603660205260409020805460ff191660011790555b8061070481612364565b91505061069d565b503360009081526036602052604090205460ff1615156001146107415760405162461bcd60e51b815260040161057c906121fe565b6001600160a01b03821660009081526036602052604090205460ff1615801561077257506001600160a01b03821615155b6107ca5760405162461bcd60e51b8152602060048201526024808201527f4f776e6572733a206f776e657220657869737473206f72207a65726f206164646044820152637265737360e01b606482015260840161057c565b6035805460018101825560009182527fcfa4bec1d3298408bb5afcfcd9c430549c5b31f8aa5c5848151c0a55f473c34d0180546001600160a01b0319166001600160a01b038516179055603380549161082283612364565b90915550506001600160a01b0382166000908152603660205260409020805460ff19166001179055603454811461085c5761085c8161165f565b6040516001600160a01b03831681527f994a936646fe87ffe4f1e469d3d6aa417d6b855598397f323de5b449f765f0c39060200160405180910390a15050565b60006108a8600161171f565b905080156108c0576000805461ff0019166101001790555b6108ca83836117a7565b610911604051806040016040528060088152602001674d7274725361666560c01b815250604051806040016040528060058152602001640312e302e360dc1b815250611a13565b610919611a48565b610921611a48565b609e80546001600160a01b031916339081179091556109775760405162461bcd60e51b8152602060048201526012602482015271536166653a2061646472657373207a65726f60701b604482015260640161057c565b80156109be576000805461ff0019169055604051600181527f7f26b83ff96e1f2b6a682f133852f6798a09c465da95921460cefb3847402498906020015b60405180910390a15b505050565b6109cb611a71565b50604051632142170760e11b81523060048201526001600160a01b038381166024830152604482018390528416906342842e0e90606401600060405180830381600087803b158015610a1c57600080fd5b505af1158015610a30573d6000803e3d6000fd5b50505050505050565b60606035805480602002602001604051908101604052809291908181526020018280548015610a9157602002820191906000526020600020905b81546001600160a01b03168152600190910190602001808311610a73575b5050505050905090565b610aa3611a71565b50609f546001600160a01b03163314610af35760405162461bcd60e51b815260206004820152601260248201527129b0b3329d1037b7363c9036b0b730b3b2b960711b604482015260640161057c565b60405163a9059cbb60e01b81526001600160a01b0383811660048301526024820183905284169063a9059cbb90604401602060405180830381600087803b158015610b3d57600080fd5b505af1158015610b51573d6000803e3d6000fd5b505050506040513d601f19601f82011682018060405250810190610b75919061205b565b50505050565b610b83611a71565b50609f546001600160a01b0316331480610bac57503360009081526036602052604090205460ff165b610bf85760405162461bcd60e51b815260206004820152601760248201527f536166653a20756e617574686f72697a65642075736572000000000000000000604482015260640161057c565b6001600160a01b0384163b610c4f5760405162461bcd60e51b815260206004820181905260248201527f536166653a2061737365742061646472657373206e6f7420636f6e7472616374604482015260640161057c565b6001600160a01b038416735e17b14add6c386305a32928f985b29bba34eff514801590610c9957506001600160a01b03841673d9145cce52d386f254917e481eb44e9943f3913814155b610ce55760405162461bcd60e51b815260206004820152601a60248201527f536166653a20564354202620414e4420617265206c6973746564000000000000604482015260640161057c565b8015610b755781604051602001610cfc9190612147565b60408051601f19818403018152908290528051602090910120622b600360e21b825260048201839052906001600160a01b0386169062ad800c9060240160006040518083038186803b158015610d5157600080fd5b505afa158015610d65573d6000803e3d6000fd5b505050506040513d6000823e601f3d908101601f19168201604052610d8d91908101906120a7565b604051602001610d9d9190612147565b6040516020818303038152906040528051906020012014610dbd57600080fd5b82604051602001610dce9190612147565b60408051601f19818403018152908290528051602090910120634e41a1fb60e01b825260048201839052906001600160a01b03861690634e41a1fb9060240160006040518083038186803b158015610e2557600080fd5b505afa158015610e39573d6000803e3d6000fd5b505050506040513d6000823e601f3d908101601f19168201604052610e6191908101906120a7565b604051602001610e719190612147565b6040516020818303038152906040528051906020012014610e9157600080fd5b6040518060800160405280856001600160a01b031681526020018481526020018381526020018281525060a284604051610ecb9190612147565b90815260405160209181900382019020825181546001600160a01b0319166001600160a01b039091161781558282015180519192610f1192600185019290910190611bff565b5060408201518051610f2d916002840191602090910190611bff565b506060820151816003015590505050505050565b60405163b9209e3360e01b81526001600160a01b0382166004820152600090735e17b14add6c386305a32928f985b29bba34eff59063b9209e339060240160206040518083038186803b158015610f9757600080fd5b505afa158015610fab573d6000803e3d6000fd5b505050506040513d601f19601f8201168201806040525081019061049d919061205b565b60005b60335481101561104157336001600160a01b031660358281548110610ff957610ff96123ab565b6000918252602090912001546001600160a01b0316141561102f57336000908152603660205260409020805460ff191660011790555b8061103981612364565b915050610fd2565b503360009081526036602052604090205460ff1615156001146110765760405162461bcd60e51b815260040161057c906121fe565b6001600160a01b03821660009081526036602052604090205460ff16151560011480156110ab57506001600160a01b03821615155b61110d5760405162461bcd60e51b815260206004820152602d60248201527f4f776e6572733a206f776e65722020646f6573206e6f74206578697374206f7260448201526c207a65726f206164647265737360981b606482015260840161057c565b6000600160335461111e91906122cf565b9050808211611205576035818154811061113a5761113a6123ab565b600091825260209091200154603580546001600160a01b039092169450908061116557611165612395565b60008281526020808220830160001990810180546001600160a01b03191690559092019092556001600160a01b03851682526036905260408120805460ff1916905560338054916111b583612312565b919050555081603454146111cc576111cc8261165f565b6040516001600160a01b03841681527f58619076adf5bb0943d100ef88d52d7c3fd691b19d3a9071b555b651fbf418da906020016109b5565b60405162461bcd60e51b815260206004820152604260248201527f4f776e6572733a206d696e20617070726f76616c2068617320746f206265206560448201527f7175616c206f72206c657373207468616e206e6577206f776e65727320636f756064820152611b9d60f21b608482015260a40161057c565b609e546001600160a01b031633146112d85760405162461bcd60e51b815260206004820152601960248201527f536166653a20756e617574686f72697a65642073656e64657200000000000000604482015260640161057c565b609f80546001600160a01b0319166001600160a01b0392909216919091179055565b6040516370a0823160e01b81526001600160a01b038281166004830152600091908416906370a082319060240160206040518083038186803b15801561133f57600080fd5b505afa158015611353573d6000803e3d6000fd5b505050506040513d601f19601f82011682018060405250810190611377919061211e565b9392505050565b60005b6033548110156113f057336001600160a01b0316603582815481106113a8576113a86123ab565b6000918252602090912001546001600160a01b031614156113de57336000908152603660205260409020805460ff191660011790555b806113e881612364565b915050611381565b503360009081526036602052604090205460ff1615156001146114255760405162461bcd60e51b815260040161057c906121fe565b61142d611a71565b506001600160a01b0384161580159061144f57506001600160a01b0384163014155b6114b15760405162461bcd60e51b815260206004820152602d60248201527f736166653a206e6f6e207a65726f20616464726573732026206f7574206f662060448201526c7468652073616665206f6e6c7960981b606482015260840161057c565b60408051808201825260048152634252434b60e01b602090910152517fdbc2612804e5df54a662169e29f93beaf7fe79a23031577517a5660e86a7cb94906114fc9085908590612137565b6040518091039020141561156f578047101561156a5760405162461bcd60e51b815260206004820152602760248201527f536166653a206578636565647320617661696c61626c6520427269636b27732060448201526662616c616e636560c81b606482015260840161057c565b6115bc565b604080518082018252600381526210539160ea1b602090910152517f2feb63c2c262895ab5f671b924f903b32e1fe8c0f0f62ccab07f3905d3b00a32906115b99085908590612137565b50505b6000846001600160a01b03168260405160006040518083038185875af1925050503d8060008114611609576040519150601f19603f3d011682016040523d82523d6000602084013e61160e565b606091505b50509050806106935760405162461bcd60e51b815260206004820152601b60248201527f536166653a207472616e7366657220627269636b206661696c65640000000000604482015260640161057c565b6001811015801561167257506033548111155b6116e45760405162461bcd60e51b815260206004820152603e60248201527f4f776e6572733a20617070726f76616c732067726561746572207468616e206f60448201527f6e65202620657175616c206f72206c657373207468616e206f776e6572730000606482015260840161057c565b60348190556040518181527f8b2f7e347ebed013f88116ca40fb660c59fbb84ed5fb90b8bb3bdf214b4ab8b89060200160405180910390a150565b60008054610100900460ff1615611766578160ff1660011480156117425750303b155b61175e5760405162461bcd60e51b815260040161057c906121b0565b506000919050565b60005460ff80841691161061178d5760405162461bcd60e51b815260040161057c906121b0565b506000805460ff191660ff92909216919091179055600190565b600054610100900460ff166117ce5760405162461bcd60e51b815260040161057c9061222b565b60005b825181101561193b5760008382815181106117ee576117ee6123ab565b6020026020010151905060006001600160a01b0316816001600160a01b0316141561185b5760405162461bcd60e51b815260206004820152601f60248201527f4f776e6572733a206e6f207a65726f206164647265737320616c6c6f77656400604482015260640161057c565b6001600160a01b03811660009081526036602052604090205460ff16156118c45760405162461bcd60e51b815260206004820152601960248201527f4f776e6572733a2061646472657373206475706c696361746500000000000000604482015260640161057c565b6035805460018181019092557fcfa4bec1d3298408bb5afcfcd9c430549c5b31f8aa5c5848151c0a55f473c34d0180546001600160a01b039093166001600160a01b031990931683179055600091825260366020526040909120805460ff191690911790558061193381612364565b9150506117d1565b5060008251116119845760405162461bcd60e51b815260206004820152601460248201527313dddb995c9cce881b9bc81bdddb995c881e595d60621b604482015260640161057c565b600081118015611995575081518111155b611a075760405162461bcd60e51b815260206004820152603f60248201527f4f776e6572733a20617070726f76616c732067726561746572207468616e207a60448201527f65726f202620657175616c206f72206c657373207468616e206f776e65727300606482015260840161057c565b60345550603554603355565b600054610100900460ff16611a3a5760405162461bcd60e51b815260040161057c9061222b565b611a448282611bbe565b5050565b600054610100900460ff16611a6f5760405162461bcd60e51b815260040161057c9061222b565b565b609e54604080516358c3de9360e11b815290516000926001600160a01b03169163b187bd26916004808301926020929190829003018186803b158015611ab657600080fd5b505afa158015611aca573d6000803e3d6000fd5b505050506040513d601f19601f82011682018060405250810190611aee919061205b565b15611b335760405162461bcd60e51b815260206004820152601560248201527414d859994e8818dbdb9d1c9858dd081c185d5cd959605a1b604482015260640161057c565b609e60009054906101000a90046001600160a01b03166001600160a01b031663b187bd266040518163ffffffff1660e01b815260040160206040518083038186803b158015611b8157600080fd5b505afa158015611b95573d6000803e3d6000fd5b505050506040513d601f19601f82011682018060405250810190611bb9919061205b565b905090565b600054610100900460ff16611be55760405162461bcd60e51b815260040161057c9061222b565b815160209283012081519190920120603791909155603855565b828054611c0b90612329565b90600052602060002090601f016020900481019282611c2d5760008555611c73565b82601f10611c4657805160ff1916838001178555611c73565b82800160010185558215611c73579182015b82811115611c73578251825591602001919060010190611c58565b50611c7f929150611c83565b5090565b5b80821115611c7f5760008155600101611c84565b600082601f830112611ca957600080fd5b8135611cbc611cb7826122a7565b612276565b818152846020838601011115611cd157600080fd5b816020850160208301376000918101602001919091529392505050565b600060208284031215611d0057600080fd5b8135611377816123d7565b60008060008060608587031215611d2157600080fd5b8435611d2c816123d7565b9350602085013567ffffffffffffffff80821115611d4957600080fd5b818701915087601f830112611d5d57600080fd5b813581811115611d6c57600080fd5b886020828501011115611d7e57600080fd5b95986020929092019750949560400135945092505050565b60008060408385031215611da957600080fd5b8235611db4816123d7565b91506020830135611dc4816123d7565b809150509250929050565b600080600060608486031215611de457600080fd5b8335611def816123d7565b92506020840135611dff816123d7565b929592945050506040919091013590565b60008060008060808587031215611e2657600080fd5b8435611e31816123d7565b93506020850135611e41816123d7565b925060408501359150606085013567ffffffffffffffff811115611e6457600080fd5b611e7087828801611c98565b91505092959194509250565b600080600080600060a08688031215611e9457600080fd5b8535611e9f816123d7565b94506020860135611eaf816123d7565b93506040860135925060608601359150608086013567ffffffffffffffff811115611ed957600080fd5b611ee588828901611c98565b9150509295509295909350565b60008060008060808587031215611f0857600080fd5b8435611f13816123d7565b9350602085013567ffffffffffffffff80821115611f3057600080fd5b611f3c88838901611c98565b94506040870135915080821115611f5257600080fd5b50611f5f87828801611c98565b949793965093946060013593505050565b60008060408385031215611f8357600080fd5b8235611f8e816123d7565b946020939093013593505050565b60008060408385031215611faf57600080fd5b823567ffffffffffffffff80821115611fc757600080fd5b818501915085601f830112611fdb57600080fd5b8135602082821115611fef57611fef6123c1565b8160051b9250612000818401612276565b8281528181019085830185870184018b101561201b57600080fd5b600096505b8487101561204a5780359550612035866123d7565b85835260019690960195918301918301612020565b509997909101359750505050505050565b60006020828403121561206d57600080fd5b8151801515811461137757600080fd5b60006020828403121561208f57600080fd5b81356001600160e01b03198116811461137757600080fd5b6000602082840312156120b957600080fd5b815167ffffffffffffffff8111156120d057600080fd5b8201601f810184136120e157600080fd5b80516120ef611cb7826122a7565b81815285602083850101111561210457600080fd5b6121158260208301602086016122e6565b95945050505050565b60006020828403121561213057600080fd5b5051919050565b8183823760009101908152919050565b600082516121598184602087016122e6565b9190910192915050565b6020808252825182820181905260009190848201906040850190845b818110156121a45783516001600160a01b03168352928401929184019160010161217f565b50909695505050505050565b6020808252602e908201527f496e697469616c697a61626c653a20636f6e747261637420697320616c72656160408201526d191e481a5b9a5d1a585b1a5e995960921b606082015260800190565b6020808252601390820152724f776e6572733a206f776e657273206f6e6c7960681b604082015260600190565b6020808252602b908201527f496e697469616c697a61626c653a20636f6e7472616374206973206e6f74206960408201526a6e697469616c697a696e6760a81b606082015260800190565b604051601f8201601f1916810167ffffffffffffffff8111828210171561229f5761229f6123c1565b604052919050565b600067ffffffffffffffff8211156122c1576122c16123c1565b50601f01601f191660200190565b6000828210156122e1576122e161237f565b500390565b60005b838110156123015781810151838201526020016122e9565b83811115610b755750506000910152565b6000816123215761232161237f565b506000190190565b600181811c9082168061233d57607f821691505b6020821081141561235e57634e487b7160e01b600052602260045260246000fd5b50919050565b60006000198214156123785761237861237f565b5060010190565b634e487b7160e01b600052601160045260246000fd5b634e487b7160e01b600052603160045260246000fd5b634e487b7160e01b600052603260045260246000fd5b634e487b7160e01b600052604160045260246000fd5b6001600160a01b03811681146123ec57600080fd5b5056fea2646970667358221220d123aa30d81f41da81db7ec70656ecffa2df8b6bef395bc7690c2629525371a464736f6c63430008070033",
  "linkReferences": {},
  "deployedLinkReferences": {}
}