{
  "_format": "hh-sol-artifact-1",
  "contractName": "MrtrSafe",
  "sourceName": "contracts/MrtrSafe.sol",
  "abi": [
    {
      "anonymous": false,
      "inputs": [
        {
          "indexed": false,
          "internalType": "uint256",
          "name": "minApproval",
          "type": "uint256"
        }
      ],
      "name": "ApprovalsChanged",
      "type": "event"
    },
    {
      "anonymous": false,
      "inputs": [
        {
          "indexed": true,
          "internalType": "address",
          "name": "sender",
          "type": "address"
        },
        {
          "indexed": false,
          "internalType": "uint256",
          "name": "amount",
          "type": "uint256"
        },
        {
          "indexed": false,
          "internalType": "uint256",
          "name": "balance",
          "type": "uint256"
        }
      ],
      "name": "FundsReceived",
      "type": "event"
    },
    {
      "anonymous": false,
      "inputs": [
        {
          "indexed": false,
          "internalType": "uint8",
          "name": "version",
          "type": "uint8"
        }
      ],
      "name": "Initialized",
      "type": "event"
    },
    {
      "anonymous": false,
      "inputs": [
        {
          "indexed": false,
          "internalType": "address",
          "name": "newOwner",
          "type": "address"
        }
      ],
      "name": "OwnerAdded",
      "type": "event"
    },
    {
      "anonymous": false,
      "inputs": [
        {
          "indexed": false,
          "internalType": "address",
          "name": "removedOwner",
          "type": "address"
        }
      ],
      "name": "OwnerRemoved",
      "type": "event"
    },
    {
      "inputs": [],
      "name": "BRCKBalance",
      "outputs": [
        {
          "internalType": "uint256",
          "name": "",
          "type": "uint256"
        }
      ],
      "stateMutability": "view",
      "type": "function"
    },
    {
      "inputs": [
        {
          "internalType": "address",
          "name": "owner",
          "type": "address"
        }
      ],
      "name": "EstateTokenBalance",
      "outputs": [
        {
          "internalType": "uint256",
          "name": "",
          "type": "uint256"
        }
      ],
      "stateMutability": "view",
      "type": "function"
    },
    {
      "inputs": [
        {
          "internalType": "uint256",
          "name": "id",
          "type": "uint256"
        }
      ],
      "name": "VCTExist",
      "outputs": [
        {
          "internalType": "uint256",
          "name": "",
          "type": "uint256"
        }
      ],
      "stateMutability": "view",
      "type": "function"
    },
    {
      "inputs": [
        {
          "internalType": "address[]",
          "name": "_owners",
          "type": "address[]"
        },
        {
          "internalType": "uint256",
          "name": "_minApprovals",
          "type": "uint256"
        }
      ],
      "name": "__MrtrSafe_init",
      "outputs": [],
      "stateMutability": "payable",
      "type": "function"
    },
    {
      "inputs": [
        {
          "internalType": "address",
          "name": "newOwner",
          "type": "address"
        },
        {
          "internalType": "uint256",
          "name": "_minApproval",
          "type": "uint256"
        }
      ],
      "name": "addOwner",
      "outputs": [],
      "stateMutability": "nonpayable",
      "type": "function"
    },
    {
      "inputs": [],
      "name": "getMinApproval",
      "outputs": [
        {
          "internalType": "uint256",
          "name": "",
          "type": "uint256"
        }
      ],
      "stateMutability": "view",
      "type": "function"
    },
    {
      "inputs": [],
      "name": "getOwners",
      "outputs": [
        {
          "internalType": "address[]",
          "name": "",
          "type": "address[]"
        }
      ],
      "stateMutability": "view",
      "type": "function"
    },
    {
      "inputs": [],
      "name": "getOwnersCount",
      "outputs": [
        {
          "internalType": "uint256",
          "name": "",
          "type": "uint256"
        }
      ],
      "stateMutability": "view",
      "type": "function"
    },
    {
      "inputs": [
        {
          "internalType": "address",
          "name": "",
          "type": "address"
        },
        {
          "internalType": "address",
          "name": "",
          "type": "address"
        },
        {
          "internalType": "uint256",
          "name": "",
          "type": "uint256"
        },
        {
          "internalType": "uint256",
          "name": "",
          "type": "uint256"
        },
        {
          "internalType": "bytes",
          "name": "",
          "type": "bytes"
        }
      ],
      "name": "onERC1155Received",
      "outputs": [
        {
          "internalType": "bytes4",
          "name": "",
          "type": "bytes4"
        }
      ],
      "stateMutability": "nonpayable",
      "type": "function"
    },
    {
      "inputs": [
        {
          "internalType": "address",
          "name": "",
          "type": "address"
        },
        {
          "internalType": "address",
          "name": "",
          "type": "address"
        },
        {
          "internalType": "uint256",
          "name": "",
          "type": "uint256"
        },
        {
          "internalType": "bytes",
          "name": "",
          "type": "bytes"
        }
      ],
      "name": "onERC721Received",
      "outputs": [
        {
          "internalType": "bytes4",
          "name": "",
          "type": "bytes4"
        }
      ],
      "stateMutability": "nonpayable",
      "type": "function"
    },
    {
      "inputs": [
        {
          "internalType": "address",
          "name": "owner",
          "type": "address"
        }
      ],
      "name": "ownerExists",
      "outputs": [
        {
          "internalType": "bool",
          "name": "",
          "type": "bool"
        }
      ],
      "stateMutability": "view",
      "type": "function"
    },
    {
      "inputs": [
        {
          "internalType": "address",
          "name": "owner",
          "type": "address"
        },
        {
          "internalType": "uint256",
          "name": "_minApproval",
          "type": "uint256"
        }
      ],
      "name": "removeOwner",
      "outputs": [],
      "stateMutability": "nonpayable",
      "type": "function"
    },
    {
      "inputs": [
        {
          "internalType": "bytes4",
          "name": "interfaceId",
          "type": "bytes4"
        }
      ],
      "name": "supportsInterface",
      "outputs": [
        {
          "internalType": "bool",
          "name": "",
          "type": "bool"
        }
      ],
      "stateMutability": "view",
      "type": "function"
    },
    {
      "inputs": [
        {
          "internalType": "address payable",
          "name": "receiver",
          "type": "address"
        },
        {
          "internalType": "string",
          "name": "symbol",
          "type": "string"
        },
        {
          "internalType": "uint256",
          "name": "id",
          "type": "uint256"
        },
        {
          "internalType": "uint256",
          "name": "amount",
          "type": "uint256"
        }
      ],
      "name": "transfer",
      "outputs": [],
      "stateMutability": "nonpayable",
      "type": "function"
    },
    {
      "inputs": [
        {
          "internalType": "uint256",
          "name": "tokenId",
          "type": "uint256"
        },
        {
          "internalType": "address",
          "name": "to",
          "type": "address"
        }
      ],
      "name": "transferEstateToken",
      "outputs": [],
      "stateMutability": "nonpayable",
      "type": "function"
    },
    {
      "inputs": [],
      "name": "walletAddress",
      "outputs": [
        {
          "internalType": "address",
          "name": "",
          "type": "address"
        }
      ],
      "stateMutability": "view",
      "type": "function"
    },
    {
      "stateMutability": "payable",
      "type": "receive"
    }
  ],
  "bytecode": "0x608060405234801561001057600080fd5b50611a57806100206000396000f3fe6080604052600436106100f75760003560e01c806373ff81cc1161008a578063a0e67e2b11610059578063a0e67e2b146102ea578063bfd2b3a31461030c578063f23a6e611461032c578063ff6aa4ea1461035857600080fd5b806373ff81cc1461029a578063815d7bec146102af578063838fb01d146102c2578063987cac33146102d557600080fd5b806316812c3e116100c657806316812c3e146102065780633cc38f5c1461022657806359dbfde8146102465780636ad5b3ea1461027f57600080fd5b80630109e2b91461013d57806301ffc9a714610170578063083fbd00146101a0578063150b7a02146101c257600080fd5b36610138576040805134815247602082015233917f363f315f930a17d1266b86a20d6dd34b1cfbc5a9db9f13a65d06a689c3a2af8a910160405180910390a2005b600080fd5b34801561014957600080fd5b5061015d610158366004611503565b610378565b6040519081526020015b60405180910390f35b34801561017c57600080fd5b5061019061018b366004611788565b6103fd565b6040519015158152602001610167565b3480156101ac57600080fd5b506101c06101bb3660046117e4565b610432565b005b3480156101ce57600080fd5b506101ed6101dd3660046115bb565b630a85bd0160e11b949350505050565b6040516001600160e01b03199091168152602001610167565b34801561021257600080fd5b5061015d6102213660046117b2565b6104a2565b34801561023257600080fd5b506101c061024136600461169d565b6104d8565b34801561025257600080fd5b50610190610261366004611503565b6001600160a01b031660009081526036602052604090205460ff1690565b34801561028b57600080fd5b50604051308152602001610167565b3480156102a657600080fd5b5060335461015d565b6101c06102bd3660046116c9565b6106e3565b3480156102ce57600080fd5b504761015d565b3480156102e157600080fd5b5060345461015d565b3480156102f657600080fd5b506102ff6107cb565b6040516101679190611824565b34801561031857600080fd5b506101c061032736600461169d565b61082d565b34801561033857600080fd5b506101ed610347366004611627565b63f23a6e6160e01b95945050505050565b34801561036457600080fd5b506101c0610373366004611527565b610adc565b609d546040516370a0823160e01b81526001600160a01b03838116600483015260009216906370a08231906024015b60206040518083038186803b1580156103bf57600080fd5b505afa1580156103d3573d6000803e3d6000fd5b505050506040513d601f19601f820116820180604052508101906103f791906117cb565b92915050565b60006001600160e01b0319821663f23a6e6160e01b14806103f757506301ffc9a760e01b6001600160e01b03198316146103f7565b609d54604051631ec81aa160e31b8152306004820152602481018490526001600160a01b0383811660448301529091169063f640d50890606401600060405180830381600087803b15801561048657600080fd5b505af115801561049a573d6000803e3d6000fd5b505050505050565b609b54604051627eeac760e11b8152306004820152602481018390526000916001600160a01b03169062fdd58e906044016103a7565b60005b60335481101561054a57336001600160a01b031660358281548110610502576105026119dd565b6000918252602090912001546001600160a01b0316141561053857336000908152603660205260409020805460ff191660011790555b8061054281611996565b9150506104db565b503360009081526036602052604090205460ff1615156001146105885760405162461bcd60e51b815260040161057f906118bf565b60405180910390fd5b6001600160a01b03821660009081526036602052604090205460ff161580156105b957506001600160a01b03821615155b6106115760405162461bcd60e51b8152602060048201526024808201527f4f776e6572733a206f776e657220657869737473206f72207a65726f206164646044820152637265737360e01b606482015260840161057f565b6035805460018101825560009182527fcfa4bec1d3298408bb5afcfcd9c430549c5b31f8aa5c5848151c0a55f473c34d0180546001600160a01b0319166001600160a01b038516179055603380549161066983611996565b90915550506001600160a01b0382166000908152603660205260409020805460ff1916600117905560345481146106a3576106a3816110b6565b6040516001600160a01b03831681527f994a936646fe87ffe4f1e469d3d6aa417d6b855598397f323de5b449f765f0c39060200160405180910390a15050565b60006106ef6001611176565b90508015610707576000805461ff0019166101001790555b61071183836111fe565b61071961146a565b609b80546001600160a01b0319908116730c12780426024405e90b9b40dee4b8f99b2e3da517909155609c805482167350dd14aa06f0032993e6a96fb314596beccd25c4179055609d805490911673bf54796c09ed3f0f9a816bf61f19620ecc99fbc417905580156107c6576000805461ff0019169055604051600181527f7f26b83ff96e1f2b6a682f133852f6798a09c465da95921460cefb3847402498906020015b60405180910390a15b505050565b6060603580548060200260200160405190810160405280929190818152602001828054801561082357602002820191906000526020600020905b81546001600160a01b03168152600190910190602001808311610805575b5050505050905090565b60005b60335481101561089f57336001600160a01b031660358281548110610857576108576119dd565b6000918252602090912001546001600160a01b0316141561088d57336000908152603660205260409020805460ff191660011790555b8061089781611996565b915050610830565b503360009081526036602052604090205460ff1615156001146108d45760405162461bcd60e51b815260040161057f906118bf565b6001600160a01b03821660009081526036602052604090205460ff161515600114801561090957506001600160a01b03821615155b61096b5760405162461bcd60e51b815260206004820152602d60248201527f4f776e6572733a206f776e65722020646f6573206e6f74206578697374206f7260448201526c207a65726f206164647265737360981b606482015260840161057f565b6000600160335461097c9190611968565b9050808211610a635760358181548110610998576109986119dd565b600091825260209091200154603580546001600160a01b03909216945090806109c3576109c36119c7565b60008281526020808220830160001990810180546001600160a01b03191690559092019092556001600160a01b03851682526036905260408120805460ff191690556033805491610a138361197f565b91905055508160345414610a2a57610a2a826110b6565b6040516001600160a01b03841681527f58619076adf5bb0943d100ef88d52d7c3fd691b19d3a9071b555b651fbf418da906020016107bd565b60405162461bcd60e51b815260206004820152604260248201527f4f776e6572733a206d696e20617070726f76616c2068617320746f206265206560448201527f7175616c206f72206c657373207468616e206e6577206f776e65727320636f756064820152611b9d60f21b608482015260a40161057f565b60005b603354811015610b4e57336001600160a01b031660358281548110610b0657610b066119dd565b6000918252602090912001546001600160a01b03161415610b3c57336000908152603660205260409020805460ff191660011790555b80610b4681611996565b915050610adf565b503360009081526036602052604090205460ff161515600114610b835760405162461bcd60e51b815260040161057f906118bf565b6001600160a01b03851615801590610ba457506001600160a01b0385163014155b610c065760405162461bcd60e51b815260206004820152602d60248201527f736166653a206e6f6e207a65726f20616464726573732026206f7574206f662060448201526c7468652073616665206f6e6c7960981b606482015260840161057f565b60408051808201825260048152634252434b60e01b602090910152517fdbc2612804e5df54a662169e29f93beaf7fe79a23031577517a5660e86a7cb9490610c519086908690611814565b60405180910390201415610d685780471015610cbf5760405162461bcd60e51b815260206004820152602760248201527f536166653a206578636565647320617661696c61626c6520427269636b27732060448201526662616c616e636560c81b606482015260840161057f565b6000856001600160a01b03168260405160006040518083038185875af1925050503d8060008114610d0c576040519150601f19603f3d011682016040523d82523d6000602084013e610d11565b606091505b5050905080610d625760405162461bcd60e51b815260206004820152601b60248201527f536166653a207472616e7366657220627269636b206661696c65640000000000604482015260640161057f565b506110af565b604080518082018252600381526210539160ea1b602090910152517f2feb63c2c262895ab5f671b924f903b32e1fe8c0f0f62ccab07f3905d3b00a3290610db29086908690611814565b60405180910390201415610e9c57609c546040516370a0823160e01b815230600482015282916001600160a01b0316906370a082319060240160206040518083038186803b158015610e0357600080fd5b505afa158015610e17573d6000803e3d6000fd5b505050506040513d601f19601f82011682018060405250810190610e3b91906117cb565b1015610e975760405162461bcd60e51b815260206004820152602560248201527f536166653a206578636565647320617661696c61626c6520414e4427732062616044820152646c616e636560d81b606482015260840161057f565b6110af565b60408051808201825260038152621590d560ea1b602090910152517f6225ed549502c0a5a145d9aecb911929318e1091ba351460c7e539ff7487d8af90610ee69086908690611814565b6040518091039020141561105657609b54604051627eeac760e11b81523060048201526024810184905282916001600160a01b03169062fdd58e9060440160206040518083038186803b158015610f3c57600080fd5b505afa158015610f50573d6000803e3d6000fd5b505050506040513d601f19601f82011682018060405250810190610f7491906117cb565b1015610fd05760405162461bcd60e51b815260206004820152602560248201527f536166653a206578636565647320617661696c61626c652056435427732062616044820152646c616e636560d81b606482015260840161057f565b609b54604051637921219560e11b81523060048201526001600160a01b038781166024830152604482018590526064820184905260a06084830152600060a48301529091169063f242432a9060c401600060405180830381600087803b15801561103957600080fd5b505af115801561104d573d6000803e3d6000fd5b505050506110af565b60405162461bcd60e51b815260206004820152602860248201527f536166653a20746f6b656e20646f206e6f74206578697374206f7220657374616044820152673a32903a37b5b2b760c11b606482015260840161057f565b5050505050565b600181101580156110c957506033548111155b61113b5760405162461bcd60e51b815260206004820152603e60248201527f4f776e6572733a20617070726f76616c732067726561746572207468616e206f60448201527f6e65202620657175616c206f72206c657373207468616e206f776e6572730000606482015260840161057f565b60348190556040518181527f8b2f7e347ebed013f88116ca40fb660c59fbb84ed5fb90b8bb3bdf214b4ab8b89060200160405180910390a150565b60008054610100900460ff16156111bd578160ff1660011480156111995750303b155b6111b55760405162461bcd60e51b815260040161057f90611871565b506000919050565b60005460ff8084169116106111e45760405162461bcd60e51b815260040161057f90611871565b506000805460ff191660ff92909216919091179055600190565b600054610100900460ff166112255760405162461bcd60e51b815260040161057f906118ec565b60005b8251811015611392576000838281518110611245576112456119dd565b6020026020010151905060006001600160a01b0316816001600160a01b031614156112b25760405162461bcd60e51b815260206004820152601f60248201527f4f776e6572733a206e6f207a65726f206164647265737320616c6c6f77656400604482015260640161057f565b6001600160a01b03811660009081526036602052604090205460ff161561131b5760405162461bcd60e51b815260206004820152601960248201527f4f776e6572733a2061646472657373206475706c696361746500000000000000604482015260640161057f565b6035805460018181019092557fcfa4bec1d3298408bb5afcfcd9c430549c5b31f8aa5c5848151c0a55f473c34d0180546001600160a01b039093166001600160a01b031990931683179055600091825260366020526040909120805460ff191690911790558061138a81611996565b915050611228565b5060008251116113db5760405162461bcd60e51b815260206004820152601460248201527313dddb995c9cce881b9bc81bdddb995c881e595d60621b604482015260640161057f565b6000811180156113ec575081518111155b61145e5760405162461bcd60e51b815260206004820152603f60248201527f4f776e6572733a20617070726f76616c732067726561746572207468616e207a60448201527f65726f202620657175616c206f72206c657373207468616e206f776e65727300606482015260840161057f565b60345550603554603355565b600054610100900460ff166114915760405162461bcd60e51b815260040161057f906118ec565b565b600082601f8301126114a457600080fd5b813567ffffffffffffffff8111156114be576114be6119f3565b6114d1601f8201601f1916602001611937565b8181528460208386010111156114e657600080fd5b816020850160208301376000918101602001919091529392505050565b60006020828403121561151557600080fd5b813561152081611a09565b9392505050565b60008060008060006080868803121561153f57600080fd5b853561154a81611a09565b9450602086013567ffffffffffffffff8082111561156757600080fd5b818801915088601f83011261157b57600080fd5b81358181111561158a57600080fd5b89602082850101111561159c57600080fd5b9699602092909201985095966040810135965060600135945092505050565b600080600080608085870312156115d157600080fd5b84356115dc81611a09565b935060208501356115ec81611a09565b925060408501359150606085013567ffffffffffffffff81111561160f57600080fd5b61161b87828801611493565b91505092959194509250565b600080600080600060a0868803121561163f57600080fd5b853561164a81611a09565b9450602086013561165a81611a09565b93506040860135925060608601359150608086013567ffffffffffffffff81111561168457600080fd5b61169088828901611493565b9150509295509295909350565b600080604083850312156116b057600080fd5b82356116bb81611a09565b946020939093013593505050565b600080604083850312156116dc57600080fd5b823567ffffffffffffffff808211156116f457600080fd5b818501915085601f83011261170857600080fd5b813560208282111561171c5761171c6119f3565b8160051b925061172d818401611937565b8281528181019085830185870184018b101561174857600080fd5b600096505b84871015611777578035955061176286611a09565b8583526001969096019591830191830161174d565b509997909101359750505050505050565b60006020828403121561179a57600080fd5b81356001600160e01b03198116811461152057600080fd5b6000602082840312156117c457600080fd5b5035919050565b6000602082840312156117dd57600080fd5b5051919050565b600080604083850312156117f757600080fd5b82359150602083013561180981611a09565b809150509250929050565b8183823760009101908152919050565b6020808252825182820181905260009190848201906040850190845b818110156118655783516001600160a01b031683529284019291840191600101611840565b50909695505050505050565b6020808252602e908201527f496e697469616c697a61626c653a20636f6e747261637420697320616c72656160408201526d191e481a5b9a5d1a585b1a5e995960921b606082015260800190565b6020808252601390820152724f776e6572733a206f776e657273206f6e6c7960681b604082015260600190565b6020808252602b908201527f496e697469616c697a61626c653a20636f6e7472616374206973206e6f74206960408201526a6e697469616c697a696e6760a81b606082015260800190565b604051601f8201601f1916810167ffffffffffffffff81118282101715611960576119606119f3565b604052919050565b60008282101561197a5761197a6119b1565b500390565b60008161198e5761198e6119b1565b506000190190565b60006000198214156119aa576119aa6119b1565b5060010190565b634e487b7160e01b600052601160045260246000fd5b634e487b7160e01b600052603160045260246000fd5b634e487b7160e01b600052603260045260246000fd5b634e487b7160e01b600052604160045260246000fd5b6001600160a01b0381168114611a1e57600080fd5b5056fea2646970667358221220cd26789c16c90f19589ef627161b8d6d86208290ec1ed4f1f74dd5a81072c1c564736f6c63430008070033",
  "linkReferences": {},
  "deployedLinkReferences": {}
}